:020000040800F2
:10000000E8BF00207D0200084B8300088D02000835
:1000100035810008713D00082DF500080000000042
:10002000000000000000000000000000A1C900085E
:100030002F4E0008000000006D14000835950008E0
:100040009D0200089D0200089D0200089D02000814
:100050009D0200089D0200089D0200089D02000804
:100060009D0200089D0200089D0200089D020008F4
:100070009D0200089D0200089D0200089D020008E4
:100080009D0200089D0200089D0200089D020008D4
:100090009D0200089D0200089D0200089D020008C4
:1000A0009D0200089D0200089D0200089D020008B4
:1000B0009D0200084BCB000853CB00089D020008AE
:1000C0009D0200089D0200089D0200089D02000894
:1000D0009D02000891D1000819D200089D02000875
:1000E0009D0200089D0200089D0200089D02000874
:1000F0009D0200089D0200089D0200089D02000864
:100100009D0200089D0200089D0200089D02000853
:100110007FD1000887D100089D0200089D020008D9
:100120009D0200089D0200089D0200089D02000833
:100130009D0200089D0200089D0200089D02000823
:100140009D0200089D0200089D02000879AF00088A
:100150009D0200089D0200089D0200089D02000803
:100160009D0200089D0200089D0200089D020008F3
:100170009D0200089D0200089D0200089D020008E3
:100180009D0200089D02000800F002F800F067F8E8
:100190000AA090E8000C82448344AAF10107DA45E2
:1001A00001D100F05CF8AFF2090EBAE80F0013F0CD
:1001B000010F18BFFB1A43F001031847C84601009E
:1001C000E84601000A444FF0000C10F8013B13F020
:1001D000070408BF10F8014B1D1108BF10F8015BA0
:1001E000641E05D010F8016B641E01F8016BF9D193
:1001F00013F0080F1EBF10F8014BAD1C0C1B09D1EA
:100200006D1E58BF01F801CBFAD505E014F8016B5B
:1002100001F8016B6D1EF9D59142D6D370470000ED
:100220000023002400250026103A28BF78C1FBD8FF
:10023000520728BF30C148BF0B607047662914F0D1
:100240006680002070471FB500F082FB040000208C
:10025000002112F08BFFE0601FBD10B510BD00F053
:1002600093FC1146FFF7EFFF12F0BAFA00F0B1FC71
:1002700003B4FFF7F2FF03BC0FF09EFD0B480168CB
:1002800041F4700101600A480047FEE7FEE7FEE71F
:10029000FEE7FEE7FEE7FEE7FEE7FEE7FEE700001B
:1002A00004480549034A054B7047000088ED00E00B
:1002B00089010008E8BB0020E8BF0020E8BB00205F
:1002C00072B6704762B67047EFF3108072B670472F
:1002D00080F31088704730BF704720BF7047B0FA76
:1002E00080F0704790FAA0F0B0FA80F0704790FA72
:1002F000A0F07047704700000FB4044910B503AA7E
:10030000029800F0E1FA10BC5DF814FB40070020F1
:100310002DE9F0410E460446002020622046E168A7
:10032000884730B3252805D0D4E901219047206AB9
:10033000401CF2E7E168204600278847050018D0F6
:10034000A5F14100192802D820354FF40067324644
:10035000294620462760FFF771FF40B1012804D0ED
:10036000F61D26F007060836D8E7361DD6E72846DC
:10037000DAE7206ABDE8F08110B5431C02E010F80E
:10038000011B71B18107FAD14FF0013202C88C1AFA
:100390008C4314EAC211F9D0C01A0A0603D0C01E59
:1003A00010BDC01A10BD0A0401D0801E10BD090284
:1003B000FCD0401E10BD032A40F2308010F0030C28
:1003C00000F0158011F8013BBCF1020F624498BFA8
:1003D00011F801CB00F8013B38BF11F8013BA2F145
:1003E000040298BF00F801CB38BF00F8013B11F0C0
:1003F000030300F07B82083AC0F0088051F8043B08
:10040000083A51F804CBA0E80810F5E7121D5CBFCC
:1004100051F8043B40F8043BAFF30080D20724BFFF
:1004200011F8013B11F801CB48BF11F8012B24BF93
:1004300000F8013B00F801CB48BF00F8012B7047E2
:100440004FF0000200B5134694469646203922BF6D
:10045000A0E80C50A0E80C50B1F12001BFF4F7AFB8
:10046000090728BFA0E80C5048BF0CC05DF804EB9A
:10047000890028BF40F8042B08BF704748BF20F808
:10048000022B11F0804F18BF00F8012B7047704706
:1004900070477047704710B500F05EFA006810BDF5
:1004A00010B5044600F058FA046010BD70472DE9FD
:1004B000FF4F0C461E464FF0FF378BB0D2E90001CC
:1004C000DDF860800A908A46C1F30A5505B93D46B9
:1004D000002108464FF00000BAF1000F00F4400080
:1004E00005DA00EB80004FF4400101EA50004FEACA
:1004F0009059B9F1010F00DDB9460A9850EA4A0057
:100500000ED044F61050A5F2FF3545432F14B8F134
:10051000000F1ED07542291E1EDDC9F100021CE02D
:10052000B8F1010F4FF0000001D0302103E0F24399
:1005300005E02154401CB042FBDB30460022002184
:1005400021540B99C1F80880C1E900200FB0BDE823
:10055000F08FBD1B6D1CDEE74A4600DA694206A833
:1005600000F09CFA06AB93E8070003AB83E80700B2
:1005700050460A9900F076FB8DE80700A0F5005080
:100580001F3800900398002D09DD42F21F014A46F2
:10059000084403A90390684600F0D5FD08E0A0F5E3
:1005A00000504A461F3803A90390684600F0DFFD5B
:1005B0008DE807000004000C03D04FF0FF30410825
:1005C00000E01046B8F1000F03D00022009215465B
:1005D0001EE0751E05D400F0C3F9303262556D1E61
:1005E000F9D5B3460122084302D000227F1C04E063
:1005F0002078302801D100227F1E002A099786D05A
:100600001DE0112D07DA00F0ABF9303262556D1C98
:1006100050EA0102F5D1084302D00098C8B10EE0BB
:100620000021681E05E0235C625C63542254401E76
:10063000491C8142F7DBAB46A81B401E09900020F5
:1006400004F80B000B98099AC0F80880C0E9002B49
:100650007CE711264FF0000859E72DE9F04F884656
:100660000446D21D22F0070191B0D1E90001CDE985
:100670000A010FF027FB02460B98C00F01D02D2076
:1006800007E02068810701D52B2002E0202101EA44
:10069000C000032A099001D0072A05DB0346414622
:1006A000204600F0BBF90BE12078800601D5E06917
:1006B00000E00620B8F1650F814606D0B8F1660F5C
:1006C00018D0B8F1670F70D131E00020B9F1110FE7
:1006D000009001DB112301E009F101030AAA01A93D
:1006E0000CA8FFF7E4FEDDE90C70002609F1010516
:1006F000834647E001204B4600904FF000470AAA8E
:1007000001A90CA8FFF7D3FEDDE90DB00C995D46F9
:10071000002610B909F101000D18B9EB050003D44A
:10072000C0F1FF3609F10105A5EB09002BE0B9F195
:10073000010F01DA4FF001090020B9F1110F00900B
:10074000484601DD112300E003460AAA01A90CA8CE
:10075000FFF7ADFEDDE90C704D460026834620789C
:1007600000070AD4AB4500DA5D4601A8012D04DD7F
:10077000411911F8011C302907D04F4502DA17F151
:10078000040F04DA012082460FE06D1EEEE7002F11
:1007900002DCED1B3E4403E0781CA84200DD7D1C1A
:1007A000B81B00F1010A4FF000472078000703D47E
:1007B000AA4501DB4FF0FF3A0021B7F1004F0DF1E0
:1007C00043088DF8431024D002202B23002F01DA98
:1007D0007F422D230A21021EA0F1010000DC5FB13F
:1007E00097FBF1FC97FBF1F201FB1C7C17460CF127
:1007F000300C08F801CDEEE7A8F101000370218864
:10080000090501D5452100E06521A0F1010800F8A6
:10081000011C09980FA9A1EB0807FF1D00B10120D9
:10082000411901EBEA70A1693844081A401EA06121
:100830002078C00602D42046AFF30080099828B182
:10084000D4E901219047206A401C20622078C0062C
:1008500022D52046AFF300801EE0002E04DBB34516
:1008600002DD01A8805D00E03020D4E9012190473D
:10087000206A401C2062761CAAF101005FEA000A8F
:100880000AD100F065F8C0680168405CD4E9012134
:100890009047206A401C2062281EA5F10105DCDC7F
:1008A00007E0D4E9012118F8010B9047206A401CA9
:1008B0002062381EA7F10107F3DC2046AFF3008069
:1008C000032011B043E60000074B70B50D467B4492
:1008D00000F091F80446284600F04EF910B14FF0B0
:1008E000FF3070BD204670BD7719010010B5203A69
:1008F000C0F00B80B1E81850203AA0E81850B1E8D9
:100900001850A0E81850BFF4F5AF5FEA027C24BF8E
:10091000B1E81850A0E8185044BF18C918C0BDE885
:1009200010405FEA827C24BF51F8043B40F8043B4E
:1009300008BF7047D20728BF31F8023B48BF11F803
:10094000012B28BF20F8023B48BF00F8012B70475D
:1009500000487047A4BB00200048704784BB0020BB
:1009600030B5B0F10A024FEA900E71F100034EEA81
:10097000817EB0EB0E0061EB91014FEA101E4EEA52
:10098000017E10EB0E0041EB11114FEA102E4EEAE2
:10099000016E10EB0E0041EB11214FEA104E4EEAB2
:1009A000014E10EB0E0041EB1141401841F10001E6
:1009B0004FEAD00040EA41704FEAD10110EB8005C8
:1009C0004FEA810444EA907444EB01046D1944EB4E
:1009D0000404521BA3414FF0000348BF0A3200D564
:1009E00030BD401C41F1000130BD000001694A1CCE
:1009F00002610878704700B58FB0CDE90131002160
:100A0000059105497944CDE9031011466846FFF781
:100A10007FFC0FB000BD0000E5FFFFFF2DE9F041B6
:100A20001F46044603260168072A01F4006004DB20
:100A300008B116A505E016A503E008B115A500E06C
:100A400015A521F010002060A069C01EA0610FB1A3
:100A5000401EA0612046AFF300804FB1D4E90121D0
:100A600038469047206A401C2062C01C206206E085
:100A7000206AFAE7D4E9012115F8010B9047761EA8
:100A8000F8D22046AFF30080BDE8F0814E414E0021
:100A90006E616E00494E4600696E66002DE9F047B2
:100AA000814616468AB0334878440DC88DE80D005B
:100AB00030487844801C03AC0DC884E80D0041F632
:100AC0009B300844372190FBF1F290FBF1F5A5F142
:100AD000800501FB12041B3C02D56442012000E0AA
:100AE0000020DFF890A080460027FA44AAF1BE0A51
:100AF0000DE0E00709D03246684607EB47010AEBF4
:100B0000810100F034FB8DE8070064107F1C002C8D
:100B1000EFD1184F7F44AC3F18E0E80714D007EB43
:100B200004100DF1180A90E80E008AE80E00C06863
:100B3000F04201D198190890324606A903A800F0A6
:100B400016FB03AB83E807006D10641C002DE4D195
:100B500032466946B8F1000F03A802D000F0F3FA5C
:100B600001E000F004FBC9E90001C9F808200AB05F
:100B7000BDE8F087C03D0100007B00F080007047B9
:100B80000048704784BB00207546FFF7F9FFAE466A
:100B900005006946534620F00700854618B020B589
:100BA000FFF77EFBBDE820404FF000064FF0000746
:100BB0004FF000084FF0000B21F00701AC46ACE805
:100BC000C009ACE8C009ACE8C009ACE8C0098D4672
:100BD000704710B50446AFF300802046BDE81040D2
:100BE000FFF746BB4FF0013C50F8042B51F8043B93
:100BF0009A4221D1A2EB0C03934313EACC1317D1F1
:100C000050F8042B51F8043B9A4215D1A2EB0C0387
:100C1000934313EACC130BD150F8042B51F8043B47
:100C20009A4209D1A2EB0C03934313EACC13DBD015
:100C30004FF00000704700BFD01A01BAB1FA81F13D
:100C400001F0180122FA01F0CB40C1F12001DBB222
:100C5000C0B2C01A2CFA01F3D11A914311EAC311A0
:100C6000E6D170475FEA400C08BF91F0000F4FEAF1
:100C70008C234FEAC12243EA51514FEA1C5018BF5E
:100C800000F5F0404FEA300018BF41F000415FEA44
:100C90006C5C00F02980BCF1FF3F08BF40F0804051
:100CA0007047130C06BF12044FF0100C4FF0000CED
:100CB000130E04BF12020CF1080C130F04BF120133
:100CC0000CF1040C930F04BF92000CF1020CD30F33
:100CD00004BF52000CF1010C11464FF00002A0F1CC
:100CE0001F00A0EB0C00704711F0004F08BF7047C9
:100CF00031F000413FF4D5AF0B0C06BF09044FF0B3
:100D0000100C4FF0000C0B0E04BF09020CF1080C84
:100D10000B0F04BF09010CF1040C8B0F04BF8900F9
:100D20000CF1020CCB0F04BF49000CF1010CCCF10B
:100D30002003A0EB0C0022FA03F302FA0CF241EAC2
:100D4000030100F10100704720F07F4C80EA0300AE
:100D500023F07F47ACEB070303F57C5300F0004022
:100D600003F1FF032DE980494FEA154B09B44FEA1F
:100D7000144325EA0B4E24EA03480FF2042606EB3F
:100D8000132749083E785FEA320203FB0667C7F57E
:100D9000000707FB06F64FEA54374FEAD64606F13E
:100DA000020607FB066CCCF1005C4FEA1C472CEAFC
:100DB000074C07FB06F40CFB06F504EB15464FEA5F
:100DC000961634BF00204FF000404FEAD13706FBA3
:100DD00007FC4FEA1C4C0CFB0BF7D21B03FB0CF778
:100DE00061EB07010CFB0EF7B0EB074072EB17420B
:100DF0000CFB08F734BFA2EB0742B2EB074261EBF2
:100E000017414FEA0C444FEA910706FB07FC4FEAF3
:100E10001C4C0CFB0BF7B0EBC74072EB573203FBDB
:100E20000CF734BFA2EBC742B2EBC74261EB5731BC
:100E30000CFB0EF7B0EBC70072EB57720CFB08F718
:100E400034BFA2EBC702B2EBC70261EB5771039F3D
:100E50004FEA816141EA921104EBCC044FEAD137A9
:100E60004FEA826206FB07FC42EA90124FEA80607A
:100E70004FEA1C4C0CFB0BF7D21B03FB0CF761EB8E
:100E800007010CFB0EF7B0EB074072EB17420CFBAF
:100E900008F734BFA2EB0742B2EB074261EB174100
:100EA0004FEA8C554FEA910704EB9C2406FB07FCA4
:100EB0004FEA1C4C0CFB0BF7B0EBC74072EB573200
:100EC00003FB0CF734BFA2EBC742B2EBC74261EBA6
:100ED00057310CFB0EF7B0EBC70072EB57720CFBEF
:100EE00008F734BFA2EBC702B2EBC70261EB577140
:100EF00015EB4C254FEA816141EA92114FEA82627B
:100F00004FEAD13742EA901206FB07FC44F1000495
:100F10004FEA80604FEA1C4C0CFB0BF7D21B03FB23
:100F20000CF761EB07010CFB0EF7B0EB074072EB1F
:100F300017420CFB08F734BFA2EB0742B2EB0742A3
:100F400061EB174115EB1C154FEA813141EA9241E3
:100F50004FEA823242EA90424FEA80304FEA0C7602
:100F600044F1000448EA03434EEA0B484FF0000EF8
:100F7000B2EB080C71EB030724BF624639464EEB17
:100F80000E0E4FF0000B0018524149414BEB0B0B7A
:100F9000B2EB080C71EB03077BF1000B24BF624638
:100FA00039464EEB0E0E4FF0000B001852414941EE
:100FB0004BEB0B0BB2EB080C71EB03077BF1000B57
:100FC00024BF624639464EEB0E0E51EA020718BFA7
:100FD00046F0010616EB0E7655F1000254F10001C1
:100FE00003D5BDE88901BDE80088BDE88901BDE8F9
:100FF0000048B619524141EB0101A3F101037047CA
:1010000080807F7E7D7C7B7A797877767675747345
:10101000727171706F6E6E6D6C6C6B6A6A69686804
:10102000676666656464636362616160605F5F5E9A
:101030005E5D5D5C5C5B5B5A5A5959585857575610
:101040005655555554545353525252515150505075
:101050004F4F4F4E4E4D4D4D4C4C4C4B4B4B4A4AC7
:101060004A4949494848484747474746464645450B
:101070004544444444434343434242424241414144
:10108000002B26D4770021D01CB54FEA370703B4D4
:101090004FF010004FF010014FF000000FBCBDE802
:1010A00010400BF1010BBBF1010F08BF5FEA1707FE
:1010B00022BF12F1010211F101014FF0004143F191
:1010C000000300F0004043EA00007047F9D35708DE
:1010D000DAE746EA064613F1400F4FEA16461FDDEF
:1010E00013F1200FDFBF16430A46002120335B4275
:1010F000C8D0C3F1200746EA064602FA07F74FEACE
:10110000164646EA0706C3F1200722FA03F201FA5F
:1011100007F721FA03F14FF0000342EA0702B1E7B3
:1011200046EA020646EA06464FEA164646EA01063F
:10113000BCBF46EA0646360C4FF000034FF00002F3
:101140004FF000019EE72DE9C048934630B491E886
:10115000380007C831EA400C48BF34EA430C03D5D5
:10116000FFF7F2FDFFF78CFFF0BCBDE800882DE92A
:10117000C048934630B491E8380007C810F0804F5B
:1011800008BF13F0804F03D100F005F8FFF778FF98
:10119000F0BCBDE8008820F07F4780EA030023F020
:1011A0007F4C07EB0C03A3F57C5300F00040A3F148
:1011B000FE0392F0000F00F0B38095F0000F00F0F6
:1011C00077802DE901494FEA11404FEA144621EAA0
:1011D000004800FB06FC24EA064708FB06F607FB6E
:1011E00008F800FB07F718EB06484CEB164C4FEAE3
:1011F000124B18EB07484FEA15464CEB174022EA12
:101200000B4E0BFB06FC25EA06470EFB06F607FB1A
:101210000EFE0BFB07F71EEB064E4CEB164C4FF089
:1012200000061EEB074E4CEB174B18EB0B0840F17A
:10123000000018EB0E0B58EB000840F100008F1A6D
:101240004FF000013CBFC943661B14BFB5EB040C53
:1012500000213CBFC943F61B4FEA17444EEA8E0EED
:1012600027EA04454FEA1C4704FB07622CEA074CB7
:1012700005FB07F70CFB05F604FB0CFC16EB074619
:1012800042EB174216EB0C4642EB1C421BEB0606E8
:1012900058EB0202414146EA9E0601D5BDE80189AC
:1012A000B619524141EB0101A3F10103BDE80189E7
:1012B0004FEA14454FEA114724EA054621EA074C54
:1012C00005FB07F406FB07F70CFB06F105FB0CFC1E
:1012D00011EB074144EB17444FEA124711EB0C4165
:1012E00044EB1C4422EA074C05FB07F206FB07F718
:1012F0000CFB06F605FB0CFC16EB074642EB17420F
:1013000016EB0C4642EB1C456A1854F1000148BF2D
:101310007047B619524141EB0101A3F10103704737
:1013200095F0000F37D04FEA11424FEA144721EAF7
:10133000024624EA074C02FB07F106FB07F70CFB09
:1013400006F402FB0CFC14EB074441EB17414FEA97
:10135000154714EB0C4441EB1C4125EA074C02FBFA
:1013600007F506FB07F70CFB06F602FB0CFC16EB79
:10137000074645EB174516EB0C4645EB1C42121988
:1013800051F1000148BF7047B619524141EB0101CC
:10139000A3F1010370474FEA14454FEA114724EACD
:1013A000054621EA074C05FB07F106FB07F70CFB96
:1013B00006F24FF0000605FB0CFC12EB074241EB76
:1013C000174112EB0C4251EB1C4148BF7047921879
:1013D00041EB0101A3F101037047000072B64EF624
:1013E0002250CEF2000040F2FF01C0F20001017075
:1013F0004FF0000080F3098807F0DAFF40F678002C
:10140000C2F20000016881F3088840F2FE70C2F267
:10141000000040F2FF71C2F200010A78027040F64B
:101420007005C2F2000540F67401C2F200010A68BC
:101430002A60106880F30988EFF3148040F00200FE
:1014400080F31488BFF36F8FBDE8F00F0FBCBDE8C9
:10145000005006BC62B6084718484FF08051016042
:10146000704716484FF080510160704772B6EFF335
:10147000098020E9F00F40F67005C2F200052E68E1
:101480003060744607F094FF40F2FE70C2F2000034
:1014900040F2FF71C2F200010A78027040F6740156
:1014A000C2F200010A682A6044F0F40E1068B0E845
:1014B000F00F80F3098862B67047000004ED00E089
:1014C00070B59B48007800287ED09A48B0F900009B
:1014D000002803DD9748B0F9000003E09548B0F913
:1014E00000004042B0F5C87F6FDA9248B0F90200C0
:1014F000002803DD8F48B0F9020003E08D48B0F901
:1015000002004042B0F5C87FEEDA8A48B0F9040024
:10151000002803DD8748B0F9040003E08548B0F9EE
:1015200004004042B0F5C87FDEDA8249B1F900001C
:1015300012F010FD044680480168204612F036FE85
:1015400005D27C49B1F9000012F004FD01E07A48AF
:101550000068794908607749B1F9020012F0FAFC95
:10156000044675484168204612F020FE05D27149B4
:10157000B1F9020012F0EEFC01E06F4840686E49DC
:1015800048606C49B1F9040012F0E4FC04466A4872
:101590008168204612F00AFE05D26649B1F90400BE
:1015A00012F0D8FC01E064488068634988606149B2
:1015B000B1F9000012F0CEFC0446604801682046F4
:1015C00012F0F4FC08D201E0B0E0AAE05949B1F908
:1015D000000012F0BFFC01E058480068574908605D
:1015E0005449B1F9020012F0B5FC04465348416871
:1015F000204612F0DBFC05D24E49B1F9020012F090
:10160000A9FC01E04D4840684C4948604949B1F99E
:10161000040012F09FFC044648488168204612F0FE
:10162000C5FC05D24349B1F9040012F093FC01E076
:10163000424880684149886041480088B0F5FA6FA7
:101640006FD10A4611683C4A106812F0E3FA064668
:101650004FF07C5112F0DEFC054612F03FFC04B264
:10166000204612F077FC33498860344A5168324A88
:10167000506812F0CFFA06464FF07C5112F0CAFCC7
:10168000054612F02BFC04B2204612F063FC2949F7
:10169000C8602A4A9168284A906812F0BBFA064648
:1016A0004FF07C5112F0B6FC054612F017FC04B264
:1016B000204612F04FFC1F490861204A11681E4A5B
:1016C000106812F0AFFD1F4908601C4A51681A4AA1
:1016D000506812F0A7FD1B494860184A9168164AE5
:1016E000906812F09FFD174988600A46516810689B
:1016F00012F0FEFA0F498861124A9168106812F0E0
:10170000F7FA0C49C86101F108000AF015FD002044
:101710000B4908800649087003200B490870012016
:10172000487007480088401C0549088070BD0000CB
:101730005D06002030060020600600206C060020B8
:1017400078060020F09F00208412002010B500F0E1
:1017500001F810BD1FB50020394908706A46032101
:101760000C2004F0A1FC0DF1010204210C2004F076
:101770009BFC9DF800009DF8011040EA012000B29A
:10178000ADF80A000DF1020205210C2004F08CFCDA
:101790000DF1030206210C2004F086FC9DF80200E6
:1017A0009DF8031040EA012000B2ADF8080001AA3C
:1017B00007210C2004F078FC0DF1050208210C2013
:1017C00004F072FC9DF804009DF8051040EA012029
:1017D000404200B2ADF80C00BDF80800194908807D
:1017E000BDF80A004880BDF80C008880B1F90000FF
:1017F00012F0B0FB044613488168204612F012FD37
:1018000010490862B1F9020012F0A4FB04460D4829
:10181000C168204612F006FD0A494862B1F9040089
:1018200012F098FB044607480169204612F0FAFCC2
:1018300004498862FFF744FE00F006F81FBD00006F
:101840007A0600203006002010B501220A210C2063
:1018500004F088FC08B1012010BD0020FCE7000066
:101860002DE9F04F87B0FE480078FE49097890FBDB
:10187000F1F201FB1201FB480078401E814202D1C7
:101880000120F9494871F6480078F849097890FB39
:10189000F1F201FB1201F5480078401E814202D1AD
:1018A0000120F1498871EE480078F149097890FBF0
:1018B000F1F201FB1201EE480078801E814202D154
:1018C0000120E9494874E6480078EA49097890FB24
:1018D000F1F201FB1201E7480078401E814202D17B
:1018E0000120E1490871DE480078E349097890FB5E
:1018F000F1F201FB1201E0480078401E814202D162
:101900000120D9494873D6480078DC49097890FB12
:10191000F1F201FB1201D9480078801E814202D108
:101920000120D149C873CE480078D549097890FB89
:10193000F1F201FB1201D2480078801E814202D1EF
:101940000120C9490874C6480078CE49097890FB3F
:10195000F1F201FB1201CB480078C01E814202D196
:101960000120C1498874BE480078C749097890FBB6
:10197000F1F201FB1201C4480078C01E814204D17B
:10198000B948C07C401CB849C874B5480078401CB0
:10199000C0B2B3490870C82801DD00200870B24801
:1019A000007838B1B04A5178107800F01BFF002061
:1019B000AD490870AC48807848B10020AA498870C9
:1019C000B2480178B248007800F0B8FDD6E1A648E8
:1019D000C07860B10020A449C8704FF4C873642275
:1019E0004FF496710090042001F014FCC6E19E486B
:1019F0000079D0B100209C490871A648016CA64826
:101A000012F008FB054612F069FA0446A348007874
:101A100000212346CDE90010A1480268A1480168D1
:101A2000A148006801F090FAA8E18F48807C48B195
:101A300000208D4988749D4800210268084601F005
:101A40000FFA9BE18848407C28B100208649487401
:101A500001F01CFB92E184484079E8B30020824900
:101A600048719349886A12F039FA04B29049486A79
:101A700012F034FA05B28E49086A12F02FFA06B253
:101A80008C49486A12F02AFA07B28A49086A12F0A9
:101A900025FA0FFA80F88749C86912F01FFA0FFA81
:101AA00080F98449886912F019FA0FFA80FA81499D
:101AB000486912F013FA0FFA80FB7E49086912F0A8
:101AC0000DFA00B24B4652465946CDE90087CDE9A2
:101AD00002650494069000E002E001F0A3F84DE1F5
:101AE0006148807950B100205F498871724A12883C
:101AF00091B2724A106801F063F93FE15A48407BA5
:101B0000A8B300205849487340F2DC526C48C089A1
:101B100000F2DC5080B26A49898901F2DC5189B255
:101B2000CDE90302664805920291408900F2DC503B
:101B300080B26349098901F2DC5189B2604CCDE978
:101B40000010648804F2DC54A3B25D4C248804F2D3
:101B5000DC54A2B25A4CE48804F2DC54A1B2584CD2
:101B6000A48804F2DC54A0B200F0AAFF06E1FFE76B
:101B70003D48C07BA8B100203B49C873009001904C
:101B80000290504C0390E488A3B24E4CA488A2B2B9
:101B90004C4C6488A1B24B4C2488A0B200F08CFD60
:101BA000ECE03148007C40B100202F4908744FF42C
:101BB000E4717B2000F03EFFE0E02B48C079C0B12B
:101BC00000202949C8714048826FC36F416F806E01
:101BD00002AC0BC405923C48C06E3B49496ECDE94E
:101BE00000103948836DC26D416D012000F01CFE6C
:101BF000C4E01D48007AC0B100201B490872334878
:101C0000816FC36F426F806E02AC0DC405912F4887
:101C1000C06E2E49496ECDE900102C48836DC26D0F
:101C2000416D022000F000FEA8E00F48407AA8B104
:101C300000200D4948722648D0F88410D0F888005A
:101C4000234AD2F88020224B5B6FCDE90232CDE9E6
:101C500004011F48806F1E49096F3BE044E000000B
:101C6000C0000020C100002084120020C20000201B
:101C7000C3000020C4000020C5000020C6000020D2
:101C8000C7000020C8000020C9000020BD000020BF
:101C9000BC0000203C100020CDCCCC3DBC05002079
:101CA000400100203C010020380100208800002075
:101CB0003006002008A000200CA2002098A10020DF
:101CC000E8350020AC0000208010002044110020E6
:101CD000B4140020CDE900102B48436E826E016ED3
:101CE000032000F0A1FD49E02848807A98B1002047
:101CF000264988720290039004900590009001900C
:101D00002148D0F89430D0F89820D0F890100420D2
:101D100000F08AFD32E01D48C07A78B100201B49EE
:101D2000C87202900390049005900090034602460A
:101D300001460190052000F077FD1FE01348007B6D
:101D400078B1002011490873029003900490059027
:101D500000900346024601460190062000F064FD13
:101D60000CE00A48C07C022808D100200749C8744A
:101D7000034602460146009000F010FC0DF0D8FC2E
:101D800007B0BDE8F08F0000B414002084120020DA
:101D90002DE9F04704468A464FF00009002005E08F
:101DA000215C494401F0FF09411CC8B2AAF10101BC
:101DB0008142F5DC04EB0A0010F8010C484501D023
:101DC000BDE8F0872078AA2802D16078AF2800D03B
:101DD000F6E7A078012822D12079012802D1FE4916
:101DE00008701CE02079022803D10120FA494870CC
:101DF00015E02079032804D10120F74908704870C4
:101E00000DE02079042803D10120F449087006E090
:101E10002079212802DB2079262800DD00BFA07868
:101E2000022814D12079012806D1ED49C871087221
:101E300048728872C87208732079A02802D10120E4
:101E4000E749C8702079A12801D10AF039F8A078B3
:101E5000032836D1E3480078012802D0022002F09E
:101E6000FFFF2079617941EA0020DF498880A0796D
:101E7000E17941EA0020DC49C880207A617A41EAB0
:101E80000020D9490880A07AE17A41EA0020D649A9
:101E90004880207B617B41EA0020D3490881A07BF8
:101EA000E17B41EA0020D0494881207C617C41EA05
:101EB0000020CD498881A07CE17C41EA0020CA490C
:101EC000C881A07810287CD12179090209B26279F1
:101ED00041EA020011F09AFB0746C44AC44B11F0D4
:101EE000ADFB054611F058F9C2494865A1790902D0
:101EF00009B2E27941EA020011F088FB0746BB4AC9
:101F0000BB4B11F09BFB054611F046F9B949C8657A
:101F1000217A090209B2627A41EA020011F076FBE5
:101F20000746B24AB24B11F089FB054611F034F96D
:101F3000B0498865A17A090209B2E27A41EA020051
:101F400011F064FB0746A94AA94B11F077FB05463F
:101F500011F022F9A7494866217B090209B2627B88
:101F600041EA020011F052FB0746A04AA04B11F0D3
:101F700065FB054611F010F901469E48C166A17B3C
:101F8000090209B2E27B41EA020011F03FFB074679
:101F9000964A974B11F052FB054611F0FDF80146A9
:101FA00094488166217C090209B2627C41EA020000
:101FB00011F02CFB07468D4A8D4B11F03FFB054677
:101FC00000E03AE011F0E8F88A494867A17C09028C
:101FD00009B2E27C41EA020011F018FB0746834A8D
:101FE000834B11F02BFB054611F0D6F801468148D2
:101FF000C167217D090209B2627D41EA020011F048
:1020000005FB0746794A7A4B11F018FB054611F09B
:10201000C3F80146774881677148807840B901204C
:102020006F498870A07874490870744880F80090EF
:1020300009F0D6FA012072490880A07811287CD1D5
:102040002179090209B2627941EA020011F0DEFA4F
:102050000746664A664B11F0F1FA054611F09CF806
:1020600068494865A179090209B2E27941EA0200AA
:1020700011F0CCFA07465D4A5D4B11F0DFFA0546D8
:1020800011F08AF85F49C865217A090209B2627ABB
:1020900041EA020011F0BAFA0746544A544B11F0D3
:1020A000CDFA054611F078F856498865A17A0902FB
:1020B00009B2E27A41EA020011F0A8FA07464B4A57
:1020C0004B4B11F0BBFA054611F066F84D494866D6
:1020D000217B090209B2627B41EA020011F096FA03
:1020E0000746424A424B11F0A9FA054611F054F84E
:1020F00001464448C166A17B090209B2E27B41EA7C
:10210000020011F083FA0746384A394B11F096FA6B
:10211000054611F041F801463A488166217C0902E2
:1021200009B2627C41EA020011F070FA07462F4AB8
:102130002F4B11F083FA054600E03AE011F02CF83D
:1021400030494867A17C090209B2E27C41EA0200F9
:1021500011F05CFA0746254A254B11F06FFA054647
:1021600011F01AF801462748C167217D090209B21A
:10217000627D41EA020011F049FA07461B4A1C4BF6
:1021800011F05CFA054611F007F801461D48816719
:102190001348807840B9012011498870A078164909
:1021A0000870164880F8009009F01AFA01201449C6
:1021B0000880A07812287DD12179090209B26279BC
:1021C00041EA020011F022FA0546084A084B11F0D4
:1021D00035FA074618E0000008A000205D06002040
:1021E0008412002085050020CA120020FCA9F1D22B
:1021F0004D62503F80100020BC000020BD00002038
:10220000BE0000204411002010F0C6FF8A49086675
:10221000A179090209B2E27941EA020011F0F6F966
:102220000546864A864B11F009FA074610F0B4FFBE
:1022300081498866217A090209B2627A41EA02007C
:1022400011F0E4F905467D4A7D4B11F0F7F9074698
:1022500010F0A2FF78494866A17A090209B2E27A31
:1022600041EA020011F0D2F90746744A744B11F0AA
:10227000E5F9054610F090FF6F490867217B0902D8
:1022800009B2627B41EA020011F0C0F905466B4ACF
:102290006B4B11F0D3F9074610F07EFF6649886753
:1022A000A17B090209B2E27B41EA020011F0AEF91A
:1022B000054600E052E0614A614B11F0BFF9074664
:1022C00010F06AFF5C494867217C090209B2627C10
:1022D00041EA020011F09AF90546584A584B11F0AC
:1022E000ADF9074610F058FF5349C1F88000A17CB2
:1022F000090209B2E27C41EA020011F087F90746BF
:102300004E4A4F4B11F09AF9054610F045FF4A49E5
:10231000C1F88800217D090209B2627D41EA02000C
:1023200011F074F90546454A454B11F087F9074607
:1023300010F032FF4049C1F884004248807840B92B
:10234000012040498870A0783F4908703F4880F8D4
:10235000009009F045F901203D490880A078132834
:1023600049D12179090209B2627941EA020011F0EA
:102370004DF90546314A324B11F060F9074610F02D
:102380000BFF2D49C1F89000A179090209B2E27949
:1023900041EA020011F03AF90546284A284B11F0AB
:1023A0004DF9074610F0F8FE2349C1F89800217A4C
:1023B000090209B2627A41EA020011F027F90546E2
:1023C0001E4A1F4B11F03AF9074610F0E5FE1A4974
:1023D000C1F894001B48807840B9012019498870E1
:1023E000A07819490870194880F8009009F0F8F8A9
:1023F000012017490880A07814280BD11148807853
:1024000040B901200F498870A0780F4908700F4823
:1024100080F80090A07815280BD10A48807840B940
:10242000012008498870A07807490870074880F89B
:10243000009000BFC4E40000B4140020FCA9F1D255
:102440004D62503F84120020BC000020BD000020DF
:10245000BE00002010B504463448007838B9AA2CD4
:1024600005D1012031490870314804705DE02F48E2
:102470000078012807D1AF2C05D102202B49087024
:102480002B48447051E029480078022807D1F12CEC
:1024900005DA0320254908702548847045E0234863
:1024A000007803280CD1322C0ADA04201F49087066
:1024B0001F48C4701F48047000201F49087034E092
:1024C0001A480078042819D11A480078002815DD28
:1024D00018480078401E17490870174800781649B8
:1024E0000978491C144A1170001D11490C541148F7
:1024F0000078D0B905200D49087016E00B48007827
:1025000005280FD10020094908700B480078001DEC
:1025100007490C5408480078401DC1B20448FFF731
:1025200037FC02E000200149087010BDCC000020FB
:10253000DA120020CA000020CB00002070B504464B
:102540000D46AA200D4908704870EF2088700220BF
:10255000C8700846047145710026002005E007494F
:10256000095C3144CEB2411CC8B20628F7DB0348EF
:102570008671072100F004F870BD00009812002059
:1025800070B505460C46214603480DF0B3F82146C8
:1025900001480DF089F870BD981200202DE9FC5F0C
:1025A00005460E4617469846DDF830A00024AA22BC
:1025B0002146641C3E4842542146641C4254042275
:1025C0002146641C425400222146641C4254214688
:1025D000641C45542146641C465400979DF8032012
:1025E0002146641C42549DF802202046611CCCB256
:1025F0002F490A549DF801202046611CCCB22C4979
:102600000A549DF800202046611CCCB228490A5487
:10261000CDF800809DF803202046611CCCB22449EF
:102620000A549DF802202046611CCCB220490A546D
:102630009DF801202046611CCCB21D490A549DF82A
:1026400000202046611CCCB219490A545146194851
:1026500011F0E0FC834611F041FC00B201909DF8BE
:1026600005202046611CCCB211490A549DF8042073
:102670002046611CCCB20E490A54201FC8704FF08E
:102680000009002006E00A49095C494401F0FF09FD
:10269000411CC8B2A042F6DB2046611CCCB2044902
:1026A00001F8009021460248FFF76AFFBDE8FC9F51
:1026B000981200200000C8427FB50024AA222146BB
:1026C000641C474842542146641C42540622214659
:1026D000641C425400222146641C42549DF801208F
:1026E0002146641C42549DF800202146641C42543B
:1026F0009DF805202146641C42549DF80420204684
:10270000611CCCB236490A549DF809202046611C50
:10271000CCB233490A549DF808202046611CCCB243
:102720002F490A549DF80D202046611CCCB22C493B
:102730000A549DF80C202146601CC4B2284842541B
:102740009DF821202046611CCCB225490A549DF8F1
:1027500020202046611CCCB221490A549DF8252036
:102760002046611CCCB21E490A549DF82420204604
:10277000611CCCB21A490A549DF829202046611CDC
:10278000CCB217490A549DF828202046611CCCB2CF
:1027900013490A549DF82D202046611CCCB21049E3
:1027A0000A549DF82C202046611CCCB20C490A54D6
:1027B000201FC8700025002005E00949095C294454
:1027C000CDB2411CC8B2A042F7DB2046611CCCB29E
:1027D00003490D5421460248FFF7D2FE7FBD000099
:1027E0009812002070B504460D46AA200D490870C5
:1027F0004870EE2088700220C87008460471457148
:102800000026002005E00749095C3144CEB2411C96
:10281000C8B20628F7DB034886710721FFF7B0FE30
:1028200070BD0000981200202DE9FC5F05460E46A1
:1028300017469846DDE90CAB0024AA222146641C09
:102840007A4842542146641C425405F10F00C2B23A
:102850002146641C7548425400222146641C42549F
:102860007349304611F0D6FB009011F037FB00B2EF
:1028700001909DF805202146641C6C4842549DF847
:1028800004202146641C42546949384611F0C2FBB9
:10289000009011F023FB00B201909DF80520214625
:1028A000641C624842549DF804202046611CCCB24E
:1028B0005E490A545E49404611F0ACFB009011F0AD
:1028C0000DFB00B201909DF805202146601CC4B2AA
:1028D000564842549DF804202046611CCCB253490E
:1028E0000A545349504611F095FB009011F0F6FA46
:1028F00000B201909DF805202046611CCCB24B49E6
:102900000A549DF804202046611CCCB247490A5461
:102910004749584611F07EFB009011F0DFFA00B2F3
:1029200001909DF805202046611CCCB23F490A5415
:102930009DF804202046611CCCB23C490A543C4915
:102940000E9811F067FB009011F0C8FA00B20190E8
:102950009DF805202046611CCCB234490A549DF8EC
:1029600004202046611CCCB230490A5430490F98EB
:1029700011F050FB009011F0B1FA00B201909DF8F7
:1029800005202146601CC4B2284842549DF804200A
:102990002046611CCCB225490A542549109811F0F3
:1029A00039FB009011F09AFA00B201909DF80520D1
:1029B0002046611CCCB21D490A549DF804202046D3
:1029C000611CCCB219490A541949119811F022FB23
:1029D000009011F083FA00B201909DF80520204686
:1029E000611CCCB211490A549DF804202046611C98
:1029F000CCB20E490A54201FC8704FF000090020C5
:102A000006E00A49095C494401F0FF09411CC8B2CB
:102A1000A042F6DB2046611CCCB2044901F80090CC
:102A200021460248FFF7ACFDBDE8FC9F981200204C
:102A300000007A44F8B505460E460024AA22214635
:102A4000641C1E4842542146641C425405222146FF
:102A5000641C425400222146641C425400959DF897
:102A600001202146641C42549DF800202146641C2C
:102A7000425400969DF801202146641C42549DF862
:102A800000202146601CC4B20C484254201F0B4950
:102A9000C8700027002005E00849095C3944CFB21E
:102AA000411CC8B2A042F7DB2046611CCCB20349EE
:102AB0000F5421460148FFF763FDF8BD981200202E
:102AC0007FB50024AA222146641C55484254214661
:102AD000641C425403222146641C425400222146B5
:102AE000641C42549DF801202146641C42549DF808
:102AF00000202146641C42549DF805202146641C98
:102B000042549DF804202046611CCCB244490A542A
:102B10009DF809202046611CCCB241490A549DF819
:102B200008202046611CCCB23D490A549DF80D2076
:102B30002046611CCCB23A490A549DF80C2020462C
:102B4000611CCCB236490A549DF821202046611CF4
:102B5000CCB233490A549DF820202146601CC4B2EF
:102B60002F4842549DF825202046611CCCB22C49A8
:102B70000A549DF824202046611CCCB228490A54EE
:102B80009DF829202046611CCCB225490A549DF8A5
:102B900028202046611CCCB221490A549DF82D20E2
:102BA0002046611CCCB21E490A549DF82C202046B8
:102BB000611CCCB21A490A549DF831202046611C90
:102BC000CCB217490A549DF830202046611CCCB283
:102BD00013490A549DF835202046611CCCB2104997
:102BE0000A549DF834202046611CCCB20C490A548A
:102BF000201FC8700025002005E00949095C294410
:102C0000CDB2411CC8B2A042F7DB2046611CCCB259
:102C100003490D5421460248FFF7B2FC7FBD000076
:102C2000981200202DE9F84F05460E4617469846A3
:102C3000DDE90AAB0024AA222146641C5F48425405
:102C40002146641C425402222146641C4254002244
:102C50002146641C425400959DF801202146641CC5
:102C600042549DF800202146641C425400969DF871
:102C700001202146641C42549DF800202146601C1E
:102C8000C4B24E48425400979DF801202046611C72
:102C9000CCB24A490A549DF800202046611CCCB2AF
:102CA00046490A54CDF800809DF801202046611C59
:102CB000CCB242490A549DF800202046611CCCB297
:102CC0003E490A54CDF800A09DF801202046611C21
:102CD000CCB23A490A549DF800202046611CCCB27F
:102CE00036490A54CDF800B09DF801202146601CF9
:102CF000C4B2324842549DF800202146601CC4B240
:102D00002E4842540C9800909DF801202046611CEA
:102D1000CCB22A490A549DF800202046611CCCB24E
:102D200026490A540D9800909DF801202046611C08
:102D3000CCB222490A549DF800202046611CCCB236
:102D40001E490A540E9800909DF801202046611CEF
:102D5000CCB21A490A549DF800202046611CCCB21E
:102D600016490A54002000909DF801202046611C5D
:102D7000CCB212490A549DF800202046611CCCB206
:102D80000E490A54201FC8704FF00009002006E0C9
:102D90000A49095C494401F0FF09411CC8B2A0423C
:102DA000F6DB2046611CCCB2044901F800902146B4
:102DB0000248FFF7E5FBBDE8F88F000098120020FD
:102DC00073B50024AA222146641C2448425421469B
:102DD000641C425407222146641C425400222146AE
:102DE000641C42549DF803202146641C42549DF803
:102DF00002202146641C42549DF801202146641C97
:102E000042549DF800202046611CCCB213490A545C
:102E10009DF805202046611CCCB210490A549DF84B
:102E200004202046611CCCB20C490A54201FC870F3
:102E30000025002005E00949095C2944CDB2411C68
:102E4000C8B2A042F7DB2046611CCCB203490D5446
:102E500021460248FFF794FB7CBD00009812002039
:102E60002DE9F8430746884615460024AA22214644
:102E7000641C334842542146641C42540B222146B0
:102E8000641C425400222146641C42542D49384699
:102E900011F0C0F8814611F021F800B200909DF8C1
:102EA00001202146641C264842549DF800202146FA
:102EB000641C42544146234811F0ACF8814611F09D
:102EC0000DF800B200909DF801202146641C1C48BA
:102ED00042549DF800202046611CCCB218490A5487
:102EE0002946184811F096F8814610F0F7FF00B215
:102EF00000909DF801202046611CCCB210490A5474
:102F00009DF800202046611CCCB20D490A54201FB8
:102F1000C8700026002005E00949095C3144CEB2A2
:102F2000411CC8B2A042F7DB2046611CCCB2044968
:102F30000E5421460248FFF723FBBDE8F88300004A
:102F400098120020CDCCCC3D2DE9FE4F81460D4698
:102F500016461F46DDE90CAB00240197AA22214644
:102F6000641C484842542146641C425401222146B4
:102F7000641C425400222146641C42544249484683
:102F800011F048F8009010F0A9FF00B202909DF8EF
:102F900009202146641C3B4842549DF808202146E4
:102FA000641C42543849284611F034F8009010F05F
:102FB00095FF00B202909DF809202146641C31481B
:102FC00042549DF808202046611CCCB22D490A5479
:102FD0002D49304611F01EF8009010F07FFF00B22E
:102FE00002909DF809202046611CCCB225490A5464
:102FF0009DF808202046611CCCB222490A549DF855
:1030000007202046611CCCB21E490A549DF80620B8
:103010002046611CCCB21B490A549DF8052020466D
:10302000611CCCB217490A549DF804202046611C4B
:10303000CCB214490A542046611CCCB2114901F8A3
:1030400000A02046611CCCB20E4901F800B0201F40
:10305000C8704FF00008002006E00A49095C4144AE
:1030600001F0FF08411CC8B2A042F6DB2046611CFB
:10307000CCB2044901F8008021460248FFF780FAEB
:10308000BDE8FE8F981200200000C842F8B5002469
:10309000AA222146641C584842542146641C4254CA
:1030A000F1222146641C425400222146641C4254F1
:1030B0005249486810F012FF00B200909DF80120BC
:1030C0002146641C4C4842549DF800202146641C53
:1030D00042544B48006810F001FF00B200909DF888
:1030E00001202146641C444842549DF8002020469B
:1030F000611CCCB240490A544049C86810F0EEFE49
:1031000000B200909DF801202046611CCCB23A49E3
:103110000A549DF800202046611CCCB236490A545E
:103120003849086910F0DAFE00B200909DF80120DD
:103130002046611CCCB230490A549DF8002020463C
:10314000611CCCB22C490A542E49086C10F0C6FE02
:1031500000B200909DF801202046611CCCB22649A7
:103160000A549DF800202046611CCCB222490A5422
:103170002548008800EB8000400000B200909DF8D8
:1031800001202046611CCCB21B490A549DF8002046
:103190002046611CCCB218490A541C4881681C485E
:1031A00010F038FF064610F099FE00B200909DF82E
:1031B00001202046611CCCB20F490A549DF8002022
:1031C0002046611CCCB20C490A54201FC87000254F
:1031D000002005E00849095C2944CDB2411CC8B271
:1031E000A042F7DB2046611CCCB203490D542146B6
:1031F0000148FFF7C5F9F8BD9812002024100020FF
:10320000880000203C1000200CA20020F0130020B9
:1032100000401C467FB505460024AA222146641CB6
:103220002C4842542146641C425400222146641C0E
:1032300042542146641C42542146641C45549DF866
:1032400005202146641C42549DF804202146641C3C
:1032500042549DF809202046611CCCB21D490A54F5
:103260009DF808202046611CCCB21A490A549DF8EA
:103270000D202046611CCCB216490A549DF80C2042
:103280002046611CCCB213490A549DF821202046E7
:10329000611CCCB20F490A549DF820202046611CC5
:1032A000CCB20C490A54201FC8700026002005E04B
:1032B0000849095C3144CEB2411CC8B2A042F7DBD8
:1032C0002046611CCCB203490E5421460148FFF749
:1032D00057F97FBD9812002010B502F0CDFD08F01F
:1032E00067FA4FF4C87008F0CBFB0CF019FA04F041
:1032F000A1FE4FF4C87001F09BFD142004F054FCB3
:1033000004F048F84FF4E1300FF0D6FD15480CF00A
:1033100053F914480BF058FF08F024FD642001F025
:1033200087FD0CF0FDF8FEF78FFA80F001000E49E2
:1033300008700E48007810B904F074F80AE00A48E2
:10334000007810B904F0C0F804E00948007808B922
:1033500004F084F804200CF0C3FD01F05DFD0120B1
:1033600010BD000020A107005C060020B40600206C
:10337000E60600202DE9FF4705460F46164663493D
:10338000304610F013FE01D2604807E06049304635
:1033900010F00CFF01D25E4800E03046064685F092
:1033A00000493946484610F035FC8046314610F059
:1033B00031FC00903946284610F02CFC80463146FE
:1033C00010F030FF01903946284610F02BFF804660
:1033D000314610F01FFC029085F0004939464846FE
:1033E00010F020FF8046314610F01CFF03900024AF
:1033F00024E05DF82400474910F0D8FD01D245488B
:1034000009E05DF82400444910F0D0FE01D24248A2
:1034100001E05DF824004DF824005DF824103F48D9
:10342000006810F0F7FD80463D480168404610F006
:10343000F1FB3C4941F82400601CC4B2042CD8DBE9
:1034400039480078002840D038480078F0B9002486
:1034500019E0344951F82400354910F0A7FD01D294
:1034600033480BE02F4951F824002B4910F09EFE01
:1034700001D2294802E02B4850F82400294941F89C
:103480002400601CC4B2042CE3DB28E0002419E013
:10349000244951F82400002110F088FD01D20020B9
:1034A0000BE0204951F824001B4910F07FFE01D2A7
:1034B000194802E01B4850F824001A4941F824003A
:1034C000601CC4B2042CE3DB09E0002405E000200A
:1034D000144941F82400601CC4B2042CF7DB00241A
:1034E0000AE0104951F8240010F0F8FC00B211492C
:1034F00021F81400601CC4B2042CF2DB4FF47A7281
:1035000000210C4809F04EFABDE8FF870000C8C34F
:103510000000C84300007AC400007A44A8000020DC
:10352000A000002054120020BC050020A4000020B0
:1035300000004843AC0000202DE9F04704468946CE
:103540004FF0000A002005E0215C514401F0FF0A21
:10355000411CC8B2A9F101018142F5DC04EB09006C
:1035600010F8010C504501D0BDE8F087A078512833
:1035700035D1207970B9607997490870A07940B247
:1035800096490870E07940B295490870207A9549CB
:10359000087024E02079012821D160798E490870D3
:1035A000A079000200B2E17908438F490880207AAF
:1035B000000200B2617A08438C490880A07A0002B8
:1035C00000B2E17A08438A490880207B000200B2F9
:1035D000617B084387490880A07B82490870A078F6
:1035E000522811D1207930B9A079617940EA0120BF
:1035F0008149088008E02079012805D1A079617906
:1036000040EA01207D490880A078532859D12079CB
:1036100050BB6079000200B2A17908437849088064
:10362000E079000200B2217A084376490880607A86
:10363000000200B2A17A084373490880E07A0002D0
:1036400000B2217B084371490880607B000200B210
:10365000A17B08436E490880E07B000200B2217C18
:1036600008436C4908802CE02079012829D1607931
:10367000000200B2A179084367490880E07900029E
:1036800000B2217A084365490880607A000200B2DE
:10369000A17A084362490880E07A000200B2217BE7
:1036A000084360490880607B000200B2A17B0843A8
:1036B0005D490880E07B000200B2217C08435B4941
:1036C0000880A078542837D12079B0BB61790902ED
:1036D00009B2A27941EA02000FF098FF0746544A66
:1036E000544B0FF0ABFF05460FF056FD52490860F2
:1036F000E179090209B2227A41EA02000FF086FF5D
:1037000007464B4A4B4B0FF099FF05460FF044FD1F
:103710004A490860617A090209B2A27A41EA0200C4
:103720000FF074FF0746424A424B0FF087FF0546F1
:103730000FF032FD424908604BE0FFE72079012895
:1037400047D16179090209B2A27941EA02000FF07A
:103750005DFF05463B4A3C4B0FF070FF07460FF0FC
:103760001BFD3A490860E179090209B2227A41EA6F
:1037700002000FF04BFF0546324A334B0FF05EFF5D
:1037800007460FF009FD32490860617A090209B263
:10379000A27A41EA02000FF039FF0546294A2A4B76
:1037A0000FF04CFF07460FF0F7FC2A490860E17A5A
:1037B000090209B2227B41EA02000FF027FF054609
:1037C000204A214B0FF03AFF07460FF0E5FC224953
:1037D000086000BFC8E600000400002006000020CA
:1037E0000700002005000020080000200A0000203B
:1037F0000C0000200E00002010000020120000200D
:1038000014000020160000201800002020000020D6
:1038100022000020240000201A0000201C000020AC
:103820001E00002026000020280000202A00002082
:103830007B14AE47E17A843F2C000020300000204A
:10384000340000202D431CEBE2361A3F38000020E4
:103850003C000020400000204400002010B5044639
:103860003448007838B9AA2C05D1012031490870B4
:10387000314804705DE02F480078012807D1AA2C58
:1038800005D102202B4908702B48447051E029488B
:103890000078022807D1F12C05DA032025490870A9
:1038A0002548847045E02348007803280CD12D2C4E
:1038B0000ADA04201F4908701F48C4701F480470AA
:1038C00000201F49087034E01A480078042819D1F4
:1038D0001A480078002815DD18480078401E17495E
:1038E00008701748007816490978491C144A117065
:1038F000001D11490C5411480078D0B905200D491C
:10390000087016E00B48007805280FD100200949FF
:1039100008700B480078001D07490C5408480078CF
:10392000401DC1B20448FFF707FE02E00020014934
:10393000087010BD4A0000203C0D00204800002007
:103940004900002000B58BB00AA80321002205928F
:10395000CDE906210890012081026622404BCDE985
:103960000132CDE90310052000233E4A3EA100901C
:10397000414805F07FFA0AA8032100220592CDE90B
:10398000062108900120810266223C4BCDE90132DC
:10399000CDE9031005200023394A3AA100903D48A3
:1039A00005F068FA0AA8032100220592CDE9062154
:1039B0000890012081026622374BCDE90132CDE922
:1039C000031005200023354A35A10090384805F042
:1039D00051FA0AA8032100220592CDE90621089098
:1039E000012081026622334BCDE90132CDE903107B
:1039F00005200023304A31A10090344805F03AFAFE
:103A00000AA8032100220592CDE906210890012091
:103A1000810266222E4BCDE90132CDE9031005204B
:103A200000232C4A2CA100902F4805F023FA0AA865
:103A3000032100220592CDE9062108900120810290
:103A400066222A4BCDE90132CDE90310052000237F
:103A5000274A28A100902B4805F00CFA0BB000BDB6
:103A60000C3C0020793B0008417070205461736B5E
:103A700020316D73000000004C3B0020CC4C002036
:103A8000A93B0008417070205461736B20326D7344
:103A9000000000000C4C00208C5D0020993C0008C8
:103AA000417070205461736B20356D73000000000D
:103AB000CC5C00204C6E0020653B000841707020FB
:103AC0005461736B2031306D730000008C6D0020E9
:103AD0000C7F0020933B0008417070205461736B91
:103AE0002032306D730000004C7E0020CC8F00200F
:103AF000713C0008417070205461736B2035306D4B
:103B0000730000000C8F002038B504460CF01EFE38
:103B100000F040F900F0F8F8FFF7DEFB0C49087000
:103B2000684605F01DF900F0A3F9FFF70BFF09A0A7
:103B3000FCF7E2FB07A0FCF7DFFB06A0FCF7DCFBD1
:103B400004A0FCF7D9FB03A0FCF7D6FB38BD0000AE
:103B50000000002053797374656D20537461727492
:103B6000210A000008B506E0FDF7F0FD6A460021D5
:103B70000A2005F05BFCF7E708B509E0012001F039
:103B80000DFDFDF76DFE6A460021012005F04EFC9B
:103B9000F4E708B506E008F08BFB6A460021142024
:103BA00005F044FCF7E7000088B04CE0002001F08D
:103BB000F5FC064610F0E6F90546234910F098F8A2
:103BC000044601F0D1FC064610F0DCF905461E491A
:103BD00010F08EF81D49086004F04AF8204603F002
:103BE000C1FD21464FF07C5010F014FA05461849EB
:103BF000184A194B19488069CDE9033205910290A2
:103C00001648406915490969CDE900101348036B4E
:103C1000C26A816A284602F023FB0F4800680FF051
:103C2000CDFF05462A460B460DA0FCF765FB204656
:103C300000F0DEF90D49204608F018FC07AA002123
:103C4000022005F0F3FBB1E700247449DC9F00205B
:103C5000400100203C0100203801002008A0002085
:103C6000526F6C6C3A25660A00000000C0A100206B
:103C700008B50CE0064907480EF00EFE03F05CF9AB
:103C80000BF0D2FB6A460021322005F0CFFBF1E7B2
:103C90000C1300201836002008B528E0022001F09F
:103CA0007DFC064610F06EF90546114910F020F82B
:103CB000044601F059FC064610F064F905460C492B
:103CC00010F016F80B498860204600F09FFD01F0C7
:103CD0004BFC064610F056F90546054910F008F869
:103CE0000449C8606A460021052005F09FFBD5E71E
:103CF00000247449DC9F00201FB5684608F042FB91
:103D0000019804B010BD00002DE9F041FFF7F4FF69
:103D1000054614480068B5FBF0F42146481EB0F192
:103D2000807F00D31BE0481E4FF0E0225061501707
:103D30000F22002807DA13071F0E0B4B00F00F06A7
:103D4000361F9F5503E013071E0E084B1E5400BF7D
:103D500000204FF0E02290610720106100BFBDE815
:103D6000F08100000046010818ED00E000E400E0EA
:103D700000BFFEE70246002007E0054B1B5632F865
:103D8000133021F81030431CD8B20828F5DB7047F7
:103D90007C05002010B500F0FBF800F003F800F0FF
:103DA000F3F810BD70B500260020184908801849A6
:103DB00008801849086018490860184908601849BF
:103DC000086018490860002400BFFCF77DFA064629
:103DD00000BF00250BE000201049086000F074F8D7
:103DE00000F08CF80D4800680444681C85B2002D72
:103DF000F1D00C48046000200849086008490860B8
:103E000000BF3046FCF764FA00BF70BDA007002079
:103E1000A2070020A4070020A8070020B007002068
:103E2000B4070020AC07002001460846044A126887
:103E3000904203D9024A1268801A00E000207047BD
:103E4000AC07002070B5002500BFFCF73DFA054621
:103E500000BF0648046800BF2846FCF739FA00BFD7
:103E60002046FFF7E1FF0646304670BDB007002050
:103E700070B50025FFF7E6FF044600BFFCF724FA03
:103E8000054600BF00200449086000BF2846FCF733
:103E90001FFA00BF204670BDB007002070B5002596
:103EA00000BFFCF711FA054600BF0648046800BFD2
:103EB0002846FCF70DFA00BF2046FFF7B5FF06467F
:103EC000304670BDB407002010B509480088401C7A
:103ED000074908800748008818B900F083F80649A8
:103EE000086004480088401C0249088010BD00009A
:103EF000A0070020A2070020A407002010B50F484B
:103F00000088401E0D49088008460088A0B900F0CE
:103F100069F80B490860084600680A490968441AAC
:103F200009480068A04201D20748046007480068B9
:103F3000A04201D20548046010BD0000A207002085
:103F4000A8070020A4070020B0070020B407002025
:103F500010B5002400BF00BFFCF7B6F9044600BF4F
:103F6000FFF7B2FF00BF1021064804F0E5F800BFDC
:103F7000FFF7C4FF00BF2046FCF7AAF900BF00BF4F
:103F800010BD000058A7002010B5FFF7E1FF10BDDD
:103F900010B500200249086000F00AF810BD0000CA
:103FA0009C07002001490860704700009C07002022
:103FB00010B5FFF7A1FE04460848006840F0807085
:103FC000064908600020064948600846006840F03D
:103FD000010008602046FFF7E5FF10BDFCED00E0A2
:103FE000001000E00149486870470000001000E040
:103FF00001B58CB0FD48806CFD4907900FF078FE4C
:10400000FC49089010F006F80990F848C06CF8498F
:1040100007900FF06DFEF74908900FF0FBFF0A9034
:10402000F248006DF24907900FF062FEF2490890E5
:104030000FF0F0FF0B90F149099808600A9848606A
:104040000B98886008460068ED4908900FF0AEFFB5
:1040500001D2EB480AE0E9480068E649089010F010
:10406000A5F801D2E34801E0E4480068E3490860AC
:1040700008464068E24908900FF098FF01D2E048F6
:104080000AE0DE484068DB49089010F08FF801D262
:10409000D84801E0D9484068D84948600846806857
:1040A000D84908900FF082FF01D2D6480AE0D348E1
:1040B0008068D149089010F079F801D2CE4801E02B
:1040C000CE488068CD498860CF480C990FF010FE2B
:1040D0000890CE4800680690CD48806A0590069901
:1040E00010F0A0F8079008990FF094FFC949C86331
:1040F000C5480C990FF0FCFD0890C548C06A80F0D7
:1041000000400690C148406801460590069810F0AE
:1041100089F8079008990FF07DFFBE490864BA48F6
:104120000C990FF0E5FD0890B948006B80F0004055
:104130000690B648806801460590069810F072F81F
:10414000079008990FF066FFB2494864B048806A4A
:104150000790AA4800680690079910F063F84FF09E
:104160007E5108900FF056FFAA490860A848C06A1F
:104170000790A2484068069007990FF04BFD4FF05A
:104180007E5108900FF046FFA2494860A048006B9E
:1041900007909A488068069007990FF03BFD4FF012
:1041A0007E5108900FF036FF9A49886008460068F3
:1041B000002107900FF0FAFF02D29648006803E052
:1041C0009448006880F000408A4908900FF090FD04
:1041D0009049C1F8B40008464068002107900FF0EC
:1041E000E5FF02D28B48406803E08A48406880F0CF
:1041F0000040804908900FF07BFD8649C1F8B80067
:1042000008468068002107900FF0D0FF02D2814855
:10421000806803E07F48806880F00040764908901D
:104220000FF066FD7B49C1F8BC0077480C990FF090
:104230005FFD08907748C06B0146059076480FF007
:10424000E9FE06907348806D0146059006980FF0D0
:10425000E1FE079008990FF0DDFE6E4908636A4899
:104260000C990FF045FD08906A48006C01460590D6
:1042700069480FF0CFFE06906648806E01460590B3
:1042800006980FF0C7FE079008990FF0C3FE61492A
:1042900048635D480C990FF02BFD08905D48406C19
:1042A000014605905C480FF0B5FE06905948806FB6
:1042B0000146059006980FF0ADFE079008990FF0A3
:1042C000A9FE544988630846C06B059008460068FB
:1042D000049005990FF0A6FF06904E48C06D014668
:1042E000059006980FF096FE07900C990FF092FE3D
:1042F0000890484880690146079008980FF08AFCAA
:10430000444988610846006C05900846406804905E
:1043100005990FF087FF06903E48C06E0146059054
:1043200006980FF077FE07900C990FF073FE089037
:104330003848C0690146079008980FF06BFC354972
:10434000C8610846406C059008468068049005994D
:104350000FF068FF06902F48C06F01460590069841
:104360000FF058FE07900C990FF054FE0890294862
:10437000006A0146079008980FF04CFC2549086236
:104380004FF07C51254800680FF044FE1949089011
:104390000FF040FE1F4948624FF07C511F480068F3
:1043A0000FF038FE134908900FF034FE1949886267
:1043B0004FF07C51194800680FF02CFE0D49089011
:1043C0000FF028FE1349C8620846406A80F000409A
:1043D0000890084680690146079008980FF0E6FEAD
:1043E0001ED20C48406A80F0004028E044110020B2
:1043F0000000F04100009643000016432C120020FC
:10440000000096C3000016C36F12033B3812002051
:1044100008A0002080100020000020C1A80000207B
:10442000F348406A0890F2488069079008990FF0B5
:10443000BDFE02D2EE48406A01E0ED488069EC49D9
:1044400088610846806A80F0004008900846C0698C
:104450000146079008980FF0A9FE04D2E448806A4C
:1044600080F000400EE0E248806A0890E048C069B1
:10447000079008990FF09AFE02D2DD48806A01E0A9
:10448000DB48C069DA49C8610846C06A80F000406C
:1044900008900846006A0146079008980FF086FECB
:1044A00004D2D348C06A80F000400EE0D048C06A11
:1044B0000890CF48006A079008990FF077FE02D263
:1044C000CB48C06A01E0CA48006AC9490862084688
:1044D000006B029008460068019002990FF09AFB69
:1044E0000390C34880690146029003980FF092FB45
:1044F0000590BF48D0F8C000014602904FF07E50B2
:104500000FF090FE0390BA48406D01460290039868
:104510000FF080FD049005990FF07CFD0790B548E1
:10452000D0F8B40001460190B3480FF073FDB349D1
:1045300002900FF06FFB002103900FF037FD01D2C6
:10454000002020E0AB48D0F8B40001460190AA4812
:104550000FF060FDA94902900FF05CFB4FF07E5117
:1045600003900FF023FE02D24FF07E500BE0A148E3
:10457000D0F8B400014602909F480FF04BFD9F49D0
:1045800003900FF047FB04909948D0F8C000014613
:10459000039004980FF03EFD05909948006801468D
:1045A000049005980FF036FD069007990FF032FB46
:1045B0004FF0804108900FF02DFD8D49886408462A
:1045C000406B029008464068019002990FF022FB70
:1045D00003908748C0690146029003980FF01AFBC8
:1045E00005908348D0F8C000014602904FF07E50FD
:1045F0000FF018FE03907E48406E0146029003982B
:104600000FF008FD049005990FF004FD079079481C
:10461000D0F8B8000146019077480FF0FBFC7749CD
:1046200002900FF0F7FA002103900FF0BFFC01D2C7
:10463000002020E06F48D0F8B800014601906E4895
:104640000FF0E8FC6D4902900FF0E4FA4FF07E5154
:1046500003900FF0ABFD02D24FF07E500BE06548A7
:10466000D0F8B8000146029063480FF0D3FC6349CC
:1046700003900FF0CFFA04905D48D0F8C0000146D7
:10468000039004980FF0C6FC05905D484068014611
:10469000049005980FF0BEFC069007990FF0BAFA47
:1046A0004FF0804108900FF0B5FC5149C8640846AE
:1046B000806B029008468068019002990FF0AAFA78
:1046C00003904B48006A0146029003980FF0A2FA4B
:1046D00005904748D0F8C000014602904FF07E5048
:1046E0000FF0A0FD03904248406F014602900398EE
:1046F0000FF090FC049005990FF08CFC07903D485A
:10470000D0F8BC00014601903B480FF083FC3B49C8
:1047100002900FF07FFA002103900FF047FC01D2C6
:10472000002020E03348D0F8BC0001460190324818
:104730000FF070FC314902900FF06CFA4FF07E518F
:1047400003900FF033FD02D24FF07E500BE029486A
:10475000D0F8BC000146029027480FF05BFC2749C7
:1047600003900FF057FA04902148D0F8C00001469A
:10477000039004980FF04EFC059021488068014694
:10478000049005980FF046FC069007990FF042FA46
:104790004FF0814108900FF03DFC154908650C98D9
:1047A00008F004FC1248006D08901148C06C079096
:1047B0000F48806C0690DDE90712FEF7DBFD0C4820
:1047C00000680B49C8600846416801618168416121
:1047D0000C48806A0C4908600A48C06A80F00040B2
:1047E00048600848006B80F0004088600DB000BD54
:1047F0008010002044110020CDCC0C3F6666E63EC0
:104800002C12002008A000203812002001B58CB026
:10481000FD480068FD4A002109900EF093F8FC491C
:104820000A900FF065FAF9490B900FF0F3FBF94984
:104830000860F548406880F00040F44A0021099083
:104840000EF080F8F2490A900FF052FAEF490B90FF
:104850000FF0E0FBEF494860EF48007820BBEA48E2
:10486000C068EE4A002105900EF090F8E8490690E5
:104870000FF03EFAEA4907900FF0CCFB08900FF0DA
:104880002DFB00B209900FF065FB0A900C990FF018
:10489000C1FB0B90DF48806801460A900B980FF02F
:1048A000B9F9DC4988602EE0DA488068014600905A
:1048B000DC4800680FF0B6FC01900FF07FF9CDE9FD
:1048C00004010C980FF07AF9D74AD84BCDE90001D2
:1048D0000EF0B4FECDE90201DDE904230EF0AEFED8
:1048E000CDE90801CB48806805900FF067F9CDE964
:1048F0000601DDE908230EF081FCCDE90A010EF086
:104900004BFCC4498860C34880680B9008F012FCD7
:10491000C0498860084600680990C548006808904A
:1049200009990FF077F90A90C24801680A980FF0C8
:1049300079FC0B9008F0FEFBBF490860B548406861
:104940000990BB484068089009990FF063F90A90F4
:10495000BA4801680A980FF065FC0B9008F0EAFB72
:10496000B5494860AB4880680990B14880680890B4
:1049700009990FF04FF90A90AA4801680A980FF0B8
:1049800051FC0B9008F0D6FBAB49886008460068E4
:1049900000210A900FF00AFC02D2A748006803E049
:1049A000A548006880F0004098490B900FF0A0F9EE
:1049B000A149C1F8B4000846406800210A900FF0F0
:1049C000F5FB02D29C48406803E09B48406880F0B9
:1049D00000408E490B900FF08BF99749C1F8B80051
:1049E0000846806800210A900FF0E0FB02D292484E
:1049F000806803E09048806880F0004083490B9015
:104A00000FF076F98C49C1F8BC008D480C990FF075
:104A10006FF90B908848C068079087480068069037
:104A200007990FF0FFFB09908348806D01460790BE
:104A300084480FF0EFFA089009990FF0EBFA0A900A
:104A40000B990FF0E7FA7C4908637D480C990FF049
:104A50004FF90B90784800690790774840680690B6
:104A600007990FF0DFFB09907348806E01460790AD
:104A700074480FF0CFFA089009990FF0CBFA0A901A
:104A80000B990FF0C7FA6C4948636D480C990FF009
:104A90002FF90B9068484069079067488068069036
:104AA00007990FF0BFFB09906348806F014607909C
:104AB00064480FF0AFFA089009990FF0ABFA0A902A
:104AC0000B990FF0A7FA5C498863084600680990C3
:104AD0000846C06D089009990FF09CFA0A900C994D
:104AE0000FF098FA0B905448806901460A900B9891
:104AF0000FF090F8504988610846406809900846D0
:104B0000C06E089009990FF085FA0A900C990FF081
:104B100081FA0B904848C06901460A900B980FF043
:104B200079F84549C8610846806809900846C06F11
:104B3000089009990FF06EFA0A900C990FF06AFA32
:104B40000B903D48006A01460A900B980FF062F8FE
:104B5000394908624FF07C513B4800680FF05AFA1F
:104B60002A490B900FF056FA334948624FF07C51B6
:104B7000354800680FF04EFA24490B900FF04AFABE
:104B80002D4988624FF07C512F4800680FF042FA9F
:104B90001E490B900FF03EFA2749C8620846406A4A
:104BA00080F000400B900846806901460A900B98FF
:104BB0000FF0FCFA04D22048406A80F000400EE07A
:104BC0001D48406A0B901C4880690A900B990FF0B1
:104BD000EDFA02D21848406A01E017488069164988
:104BE00088610846806A80F000400B900846C069E2
:104BF00001460A900B980FF0D9FA27D20E48806A26
:104C000080F0004031E00000183600200000F04144
:104C10000000FA4308120020A400002000002042F7
:104C200000001643400100201F85EB51B81E0940CB
:104C30001412002038010020441100203C01002003
:104C40000AD7A33B00002041A80000206748806AE3
:104C50000B906648C0690A900B990FF0A7FA02D230
:104C60006248806A01E06148C0696049C8610846DD
:104C7000C06A80F000400B900846006A01460A9026
:104C80000B980FF093FA04D25848C06A80F00040A5
:104C90000EE05648C06A0B905448006A0A900B997F
:104CA0000FF084FA02D25148C06A01E04F48006A0E
:104CB0004E49086208460068C860084641680161BC
:104CC0008168416100684A490B900FF06FF901D289
:104CD00047480AE04548006846490B900FF066FADD
:104CE00001D2444801E04148006840490860084654
:104CF00040683F490B900FF059F901D23C480AE057
:104D00003A4840683B490B900FF050FA01D23948BD
:104D100001E03648406835494860084680683449B3
:104D20000B900FF043F901D231480AE02F48806818
:104D300030490B900FF03AFA01D22E4801E02B488F
:104D400080682A4988600846006B09900846006818
:104D5000089009990EF05EFF0A9024488069014688
:104D600009900A980EF056FF0B902048406D0146BE
:104D70000A900B980FF04EF91C4988640846406B66
:104D8000099008464068089009990EF043FF0A9080
:104D90001648C069014609900A980EF03BFF0B9037
:104DA0001248406E01460A900B980FF033F90F49F4
:104DB000C8640846806B0990084680680890099985
:104DC0000EF028FF0A900948006A014609900A98E7
:104DD0000EF020FF0B900548406F01460A900B989B
:104DE0000FF018F9014908650DB000BD441100200D
:104DF0000000B4C20000B4424FF07E510448016686
:104E00000167C0F8801003480149C1F8C00070472D
:104E100080100020CDCC4C3E10B5002404E020468C
:104E200000F0BCFB601CC4B2052CF8DB10BD704761
:104E300010B5044603E04FF47A7000F005F8201E28
:104E4000A4F10104F7D110BD30B5044600F08CFB8D
:104E5000054600BF00F088FB401BA042FAD330BDDE
:104E6000024908700021024A118070478505002020
:104E70008E05002000487047FC9F002000B589B0D7
:104E80000121084607F02EFA0121080307F05AFA1B
:104E900005221146564800F03DFB052206215448E4
:104EA00000F038FB05220721514800F033FBE020D9
:104EB000069002208DF81C0003208DF81D000020B4
:104EC0008DF81E0002208DF81F0006A9484800F04A
:104ED000D9FA1020069001208DF81C0000208DF8D2
:104EE0001E0001208DF81F0000208DF81D0006A96E
:104EF0003F4800F0C7FA3F4807F0FAFC0020ADF841
:104F000004004FF48270ADF806000020ADF80800F0
:104F10000220ADF80A000120ADF80C004002ADF807
:104F20000E001820ADF810000020ADF81200072088
:104F3000ADF8140001A92F4807F014FD01212D48F8
:104F400007F0C9FC01221021294800F008FB0022CB
:104F50001021274800F003FBFF2000F03FF9012259
:104F60001021234800F0FBFA08A800F09DF89DF8F6
:104F70002000EF2831D14FF480501F4948809DF820
:104F80002200182803D14FF4805088801DE09DF83E
:104F90002200172804D14FF400601749888014E0DC
:104FA0009DF82200162804D14FF4806012498880B1
:104FB0000BE09DF82200152804D14FF400700E4933
:104FC000888002E000200C4988800B4840880A490C
:104FD000898848430849886004E000200649087031
:104FE00009B000BD01200449087000BFF8E70000C7
:104FF0000000024000300140FC9F002070B50446D4
:105000000D46164600221021104800F0A8FA032091
:1050100000F0E4F8C4F3074000F0E0F8C4F3072020
:1050200000F0DCF8E0B200F0D9F804E0FF2000F076
:10503000D5F828706D1C301EA6F10106F6D10122AC
:105040001021024800F08BFA70BD00000000024001
:1050500070B504460D46164600F0F8F800221021FF
:10506000104800F07CFA022000F0B8F8C4F30740C2
:1050700000F0B4F8C4F3072000F0B0F8E0B200F09C
:10508000ADF803E0287800F0A9F86D1C301EA6F1F9
:105090000106F7D101221021024800F060FA00F069
:1050A000B9F870BD0000024070B505462C460022DC
:1050B00010210E4800F053FA9F2000F08FF8FF20D7
:1050C00000F08CF804F8010BFF2000F087F804F8DA
:1050D000010BFF2000F082F804F8010B01221021DF
:1050E000024800F03CFA287870BD00000000024041
:1050F00070B504460D4600F0A9F8002210210D48B5
:1051000000F02DFA202000F069F8C4F3074000F009
:1051100065F8C4F3072000F061F8E0B200F05EF833
:1051200001221021034800F01AFA0DB100F072F8C4
:1051300070BD0000000002402DE9F04104460D461C
:105140001646002700BF0DE0084842882946204641
:10515000FFF754FF0548408805440448408804444C
:10516000781C87B2B742EFDBBDE8F081FC9F0020DE
:105170002DE9F04104460D46164600271649488899
:10518000C11700EB11614FEA212800F05FF800BF62
:105190001EE001212046FFF7ABFF0F494888C117E9
:1051A00000EB11614FEA212809E04FF48072294693
:1051B0002046FFF74DFF05F5807504F58074B8F1C2
:1051C0000000A8F101011FFA81F8EED1781C87B226
:1051D000B742DEDBBDE8F081FC9F002010B504463D
:1051E00000BF02210A4807F0AFFB0028F9D0214692
:1051F000074807F0B5FB00BF0121054807F0A4FBF5
:105200000028F9D0024807F0A8FBC0B210BD00008A
:105210000030014010B5002400BF002210210A48D0
:1052200000F09DF90520FFF7D9FFFF20FFF7D6FF1B
:10523000044601221021044800F091F904F0010015
:105240000028EAD110BD00000000024010B5002285
:105250001021064800F083F90620FFF7BFFF012266
:105260001021024800F07BF910BD00000000024050
:105270002DE9F04105460C467549886875490EF0E0
:1052800095FE53D20120744908707149C86871496C
:105290000EF08CFE1ED27148B0F90000401C0028B0
:1052A00049D06F480078002845D06E4928460EF056
:1052B000B1FE07466948B0F900000EF04BFE80468B
:1052C00039460EF0A7FC06460EF008FE00B2634910
:1052D000088030E05E49C86863490EF067FF1CD261
:1052E0005E48B0F90000401CF8B15D480078E0B9B4
:1052F0005C4928460EF08EFE07465848B0F900007B
:105300000EF028FE804639460EF084FC06460EF06C
:10531000E5FD00B2514908800DE05048B0F90000A9
:10532000401C10B900204D49088004E000204B4982
:105330000880494908704948B0F90000B0F5967FE7
:1053400012DD4FF0FF30454908804548007840B9EC
:1053500001204349087002204449487044490870BC
:1053600002E000203E4908703949886839490EF04A
:105370001DFE30D23649C86836490EF017FE2AD2D3
:105380003349086838490EF011FF24D23049486883
:1053900035490EF00BFF1ED23648B0F90000B0F5CB
:1053A000FA6F14DA2F4928460EF034FE07463148CA
:1053B000B0F900000EF0CEFD804639460EF02AFC12
:1053C00006460EF08BFD00B22A49088006E0012057
:1053D0002949087002E0002026490880204800780A
:1053E00080B31D48007801282DD1002120460EF001
:1053F000DDFE01D2204601E084F0004006461F4950
:105400000EF0D4FD1FD21E48B0F90000B0F5FA6FBF
:1054100014DA144928460EF0FDFD07461848B0F985
:1054200000000EF097FD804639460EF0F3FB06466D
:105430000EF054FD00B21249088007E00020084930
:10544000087003E0FFE700200D490880BDE8F08107
:10545000183600200000C8C3BD050020BE0500208E
:10546000BC05002000007A440000C84308A00020CA
:1054700068010020C00500205D0600200000964362
:10548000C2050020F0B50A4600210023002400BF19
:105490003DE0012505FA01F3156805EA03049C4285
:1054A00034D105684F000326BE40B5430560157929
:1054B0004E00B5400668354305601579012D02D0D0
:1054C0001579022D16D185684F000326BE40B543DD
:1054D000856055794E00B5408668354385604568DE
:1054E00001268E40B5434560456896798E40B6B238
:1054F00035434560C5684F000326BE40B543C560CF
:10550000D5794E00B540C6683543C560491C1029A1
:10551000BFD3F0BDF0B5002300244D07ED0E02FA15
:1055200005F3CE1000F1200555F826504E07F70E72
:105530000F26BE40B543CF1000F1200646F8275095
:10554000CE1000F1200555F8265045EA0304CE1090
:1055500000F1200545F82640F0BD018370470AB1EF
:10556000018300E0418370470B4A11684FF0E0224D
:1055700052694FF0E0239B69D21A4FF47A735A4371
:105580004FF0E0235B69B2FBF3F201EB4103C3EBA5
:10559000C11302EBC30070471C07002070B504461E
:1055A00004EB4400164951F8200004EB4401144A6E
:1055B00002EB81014860FFF7D7FF05460EF0E2FCE1
:1055C00004EB44010E4A42F8210004EB44020C4B68
:1055D00003EB8202516804EB440253F822000EF000
:1055E00021FE04EB4401064A02EB8101886004EBD2
:1055F000440102EB810188680EF08CFC70BD000054
:10560000D0A100202DE9F04F85B005460E46174683
:105610001C464FB90020FB490870FB490870002464
:10562000FA490860FA490870FA480078052815D246
:10563000DFE800F00304080C100010E00220F54938
:1056400008700CE00320F349087008E00420F149D9
:10565000087004E00020EF49087000E000BF00BFC0
:10566000ED48016820460EF0DDFD814600210EF078
:105670009DFD05D2E848016820460EF0D3FD06E006
:10568000E548016820460EF0CDFD80F000408046E0
:105690004FF07C510EF08AFD10D2E049DB480068E3
:1056A0000EF084FC08D2DE49DE4800680EF07EFD74
:1056B00002D2DD48D5490860D7480460DB4930464E
:1056C0000EF0B0FD8146DA4A00210DF03BF980462C
:1056D000D24A00210DF05AF9D24908600021D14880
:1056E00000680EF063FD1DD2D249CE4800680EF06E
:1056F000FFFA8046D0490EF08DFCD0490860D049B1
:10570000C84800680EF052FD1DD20120BD49087046
:10571000BF480078B8B90120BD490870C948BB49E5
:10572000086010E0B7480078012801D1B649087038
:10573000C049BC4800680EF0DBFA8046C2490EF052
:1057400069FCBE490860C149BC4800680EF02EFCE7
:1057500001D2BE4809E0B849B84800680EF026FDFD
:1057600001D2B54801E0B5480068B4490860B649BF
:10577000B24800680EF0BCFA002100900EF016FD51
:1057800005D2B149AD4800680EF0B2FA06E0AE4964
:10579000AA4800680EF0ACFA80F000404FF07A5151
:1057A00001900EF037FC83464FF07D510EF032FA37
:1057B0008246A248016850460EF02CFC0290A44894
:1057C000016802980EF02EFD8146A24928460EF08F
:1057D00021FC014602904FF07E500EF089FA83467C
:1057E0004FF07E510EF016FA824651464FF07E5031
:1057F0000EF07EFA494603900EF00CFC8046944869
:10580000016840460EF006FA914908608F499048B9
:1058100000680EF0CBFB01D28C4809E086498C4829
:1058200000680EF0C3FC01D2834801E0884800689C
:1058300087490860884928460AF032FE8648416850
:10584000834800680EF0EEFC814629460EF0E2FB2C
:1058500080468248016840460EF0DCF97F490860C6
:10586000694909784EF6784211FB02F00EF072FB9E
:1058700080467A48016840460EF098FC08D262499A
:1058800009784EF6784211FB02F00EF063FB19E046
:105890005D49097841F2883211FB02F00EF05AFBA3
:1058A00080466E48016840460EF080FB08D256499B
:1058B000097841F2883211FB02F00EF04BFB01E057
:1058C00066480068654908606348016964480EF0ED
:1058D000A1FB82465E48016850460EF098FC814666
:1058E00029460EF097FB80465E48016840460EF060
:1058F00091F95C490860444909784EF6784211FBF9
:1059000002F00EF027FB80465648016840460EF034
:105910004DFC08D23C4909784EF6784211FB02F062
:105920000EF018FB19E03849097841F2883211FB72
:1059300002F00EF00FFB80464A48016840460EF028
:1059400035FB08D23049097841F2883211FB02F068
:105950000EF000FB01E04348006842490860084639
:1059600001683E4800680EF05DFC3F490390284600
:105970000EF050FB014602904FF07E500EF0B8F949
:1059800083464FF07E510EF045F9824651464FF066
:105990007E500EF0ADF9814603990EF03BFB804638
:1059A0003048016840460EF035F92E4908602F490D
:1059B00020460EF0FBFA07D2274800692C49086000
:1059C0002548C0682B4908602B49486800210EF023
:1059D00051FA01D1002004E02748416827480EF021
:1059E00087F9049026480068264908601A4800692B
:1059F00023490860002128460EF03CFA44D10020DB
:105A00004CE00000240100202501002018010020A6
:105A1000040100202C010020200100200000204172
:105A2000000016C30C0100200000C8430000FA4328
:105A3000000020420000E14300409C45E8000020B7
:105A40000000C8420000AF4300803B4500803BC5DA
:105A5000EC00002034337B4218130020E4000020C7
:105A60006666863FE00000209CC4A03ECDCCCC3DC5
:105A7000F0000020F8000020301300200000164342
:105A8000F400002000010020CA480168CA480068EC
:105A90000EF0C8FB804629460EF02AF9C749086077
:105AA000214604980EF0B6FA8046C548C549CDE9AE
:105AB00001080091C1480368C3480268016828468C
:105AC00005F094FDC1490860C14904980EF0A2FA9E
:105AD0008046BB48816940460EF068FA2BD2BD492A
