:020000040800F2
:100000007879002065020008732100087502000855
:1000100009210008411200086D8800080000000056
:1000200000000000000000000000000079600008EF
:10003000C114000800000000250400085D3300081A
:100040008502000885020008850200088502000874
:100050008502000885020008850200088502000864
:100060008502000885020008850200088502000854
:100070008502000885020008850200088502000844
:100080008502000885020008850200088502000834
:100090008502000885020008850200088502000824
:1000A0008502000885020008850200088502000814
:1000B000850200089D610008A5610008850200080E
:1000C00085020008850200088502000885020008F4
:1000D00085020008850200080F66000885020008F6
:1000E00085020008850200088502000885020008D4
:1000F00085020008850200088502000885020008C4
:1001000085020008850200088502000885020008B3
:10011000FF650008076600088502000885020008E0
:100120008502000885020008850200088502000893
:100130008502000885020008850200088502000883
:10014000850200088502000885020008C14D0008EC
:100150008502000885020008850200088502000863
:100160008502000885020008850200088502000853
:100170008502000885020008850200088502000843
:10018000850200088502000800F002F800F05AF825
:100190000AA090E8000C82448344AAF10107DA45E2
:1001A00001D100F04FF8AFF2090EBAE80F0013F0DA
:1001B000010F18BFFB1A43F00103184738B70000BE
:1001C00058B700000A444FF0000C10F8013B13F040
:1001D000070408BF10F8014B1D1108BF10F8015BA0
:1001E000641E05D010F8016B641E01F8016BF9D193
:1001F00013F0080F1EBF10F8014BAD1C0C1B09D1EA
:100200006D1E58BF01F801CBFAD505E014F8016B5B
:1002100001F8016B6D1EF9D59142D6D370470000ED
:100220000023002400250026103A28BF78C1FBD8FF
:10023000520728BF30C148BF0B6070471FB51FBDB4
:1002400010B510BD00F070F81146FFF7F7FF0AF087
:1002500097FB00F08EF803B4FFF7F2FF03BC00F049
:1002600091F800000B48016841F4700101600A48F0
:100270000047FEE7FEE7FEE7FEE7FEE7FEE7FEE7F4
:10028000FEE7FEE7FEE7000004480549034A054B88
:100290007047000088ED00E08901000878750020B3
:1002A000787900207875002072B6704762B6704782
:1002B000EFF3108072B6704780F31088704730BF3C
:1002C000704720BF7047B0FA80F0704790FAA0F0F6
:1002D000B0FA80F0704790FAA0F0704710B5431C58
:1002E00002E010F8011B71B18107FAD14FF0013221
:1002F00002C88C1A8C4314EAC211F9D0C01A0A063B
:1003000003D0C01E10BDC01A10BD0A0401D0801E4B
:1003100010BD0902FCD0401E10BD704770477047E9
:1003200000487047187500207546FFF7F9FFAE4684
:1003300005006946534620F00700854618B020B5F1
:10034000FFF7A2FFBDE820404FF000064FF0000786
:100350004FF000084FF0000B21F00701AC46ACE86D
:10036000C009ACE8C009ACE8C009ACE8C0098D46DA
:10037000704710B50446AFF300802046BDE810403A
:10038000FFF769BF01491820ABBEFEE72600020057
:100390007047000072B64EF62250CEF2000040F2D6
:1003A000FF01C0F2000101704FF0000080F30988E6
:1003B00002F012FF40F21030C2F20000016881F337
:1003C000088840F29620C2F2000040F29721C2F263
:1003D00000010A78027040F20835C2F2000540F2CE
:1003E0000C31C2F200010A682A60106880F30988A3
:1003F000EFF3148040F0020080F31488BFF36F8F96
:10040000BDE8F00F0FBCBDE8005006BC62B608475F
:1004100018484FF080510160704716484FF08051E6
:100420000160704772B6EFF3098020E9F00F40F2E7
:100430000835C2F200052E683060744602F0CCFE2A
:1004400040F29620C2F2000040F29721C2F2000171
:100450000A78027040F20C31C2F200010A682A6088
:1004600044F0F40E1068B0E8F00F80F3098862B62B
:100470007047000004ED00E010B501220A210C20B5
:1004800001F034FC08B1012010BD0020FCE70000A1
:100490002DE9F04704468A464FF00009002005E0A8
:1004A000215C494401F0FF09411CC8B2AAF10101D5
:1004B0008142F5DC04EB0A0010F8010C484501D03C
:1004C000BDE8F0872078AA2802D16078AF2800D054
:1004D000F6E7A078012822D12079012802D1FE492F
:1004E00008701CE02079022803D10120FA494870E5
:1004F00015E02079032804D10120F74908704870DD
:100500000DE02079042803D10120F449087006E0A9
:100510002079212802DB2079262800DD00BFA07881
:10052000022814D12079012806D1ED49C87108723A
:1005300048728872C87208732079A02802D10120FD
:10054000E749C8702079A12801D105F0FBFAA0780D
:10055000032836D1E3480078012802D0022000F0B9
:10056000C9FF2079617941EA0020DF498880A079BC
:10057000E17941EA0020DC49C880207A617A41EAC9
:100580000020D9490880A07AE17A41EA0020D649C2
:100590004880207B617B41EA0020D3490881A07B11
:1005A000E17B41EA0020D0494881207C617C41EA1E
:1005B0000020CD498881A07CE17C41EA0020CA4925
:1005C000C881A07810287CD12179090209B262790A
:1005D00041EA02000AF0B1FC0746C44AC44B0AF0E3
:1005E000C3FC05460AF078FCC2494865A1790902B6
:1005F00009B2E27941EA02000AF09FFC0746BB4AD1
:10060000BB4B0AF0B1FC05460AF066FCB949C86567
:10061000217A090209B2627A41EA02000AF08DFCED
:100620000746B24AB24B0AF09FFC05460AF054FC5A
:10063000B0498865A17A090209B2E27A41EA02006A
:100640000AF07BFC0746A94AA94B0AF08DFC054637
:100650000AF042FCA7494866217B090209B2627B85
:1006600041EA02000AF069FC0746A04AA04B0AF0E2
:100670007BFC05460AF030FC01469E48C166A17B22
:10068000090209B2E27B41EA02000AF056FC074681
:10069000964A974B0AF068FC05460AF01DFC014695
:1006A00094488166217C090209B2627C41EA020019
:1006B0000AF043FC07468D4A8D4B0AF055FC05466F
:1006C00000E03AE00AF008FC8A494867A17C090288
:1006D00009B2E27C41EA02000AF02FFC0746834A95
:1006E000834B0AF041FC05460AF0F6FB01468148BF
:1006F000C167217D090209B2627D41EA02000AF068
:100700001CFC0746794A7A4B0AF02EFC05460AF093
:10071000E3FB0146774881677148807840B9012042
:100720006F498870A07874490870744880F8009008
:1007300004F07AFE012072490880A07811287CD14B
:100740002179090209B2627941EA02000AF0F5FB57
:100750000746664A664B0AF007FC05460AF0BCFBF2
:1007600068494865A179090209B2E27941EA0200C3
:100770000AF0E3FB07465D4A5D4B0AF0F5FB0546D0
:100780000AF0AAFB5F49C865217A090209B2627AB8
:1007900041EA02000AF0D1FB0746544A544B0AF0E2
:1007A000E3FB05460AF098FB56498865A17A0902E1
:1007B00009B2E27A41EA02000AF0BFFB07464B4A5F
:1007C0004B4B0AF0D1FB05460AF086FB4D494866C3
:1007D000217B090209B2627B41EA02000AF0ADFB0B
:1007E0000746424A424B0AF0BFFB05460AF074FB3B
:1007F00001464448C166A17B090209B2E27B41EA95
:1008000002000AF09AFB0746384A394B0AF0ACFB63
:1008100005460AF061FB01463A488166217C0902DF
:1008200009B2627C41EA02000AF087FB07462F4AC0
:100830002F4B0AF099FB054600E03AE00AF04CFB2A
:1008400030494867A17C090209B2E27C41EA020012
:100850000AF073FB0746254A254B0AF085FB05463F
:100860000AF03AFB01462748C167217D090209B217
:10087000627D41EA02000AF060FB07461B4A1C4BFE
:100880000AF072FB05460AF027FB01461D48816706
:100890001348807840B9012011498870A078164922
:1008A0000870164880F8009004F0BEFD012014493D
:1008B0000880A07812287DD12179090209B26279D5
:1008C00041EA02000AF039FB0546084A084B0AF0E3
:1008D0004BFB074618E00000A05A00203D01002015
:1008E0000C0A002069000020520A0020FCA9F1D265
:1008F0004D62503F080800204C0000204D000020B1
:100900004E000020CC0800200AF0E6FA8A4908666A
:10091000A179090209B2E27941EA02000AF00DFB6D
:100920000546864A864B0AF01FFB07460AF0D4FAB2
:1009300081498866217A090209B2627A41EA020095
:100940000AF0FBFA05467D4A7D4B0AF00DFB07468F
:100950000AF0C2FA78494866A17A090209B2E27A35
:1009600041EA02000AF0E9FA0746744A744B0AF0B9
:10097000FBFA05460AF0B0FA6F490867217B0902C5
:1009800009B2627B41EA02000AF0D7FA05466B4AD7
:100990006B4B0AF0E9FA07460AF09EFA6649886747
:1009A000A17B090209B2E27B41EA02000AF0C5FA22
:1009B000054600E052E0614A614B0AF0D5FA07466D
:1009C0000AF08AFA5C494867217C090209B2627C14
:1009D00041EA02000AF0B1FA0546584A584B0AF0BB
:1009E000C3FA07460AF078FA5349C1F88000A17C9F
:1009F000090209B2E27C41EA02000AF09EFA0746C7
:100A00004E4A4F4B0AF0B0FA05460AF065FA4A49D9
:100A1000C1F88800217D090209B2627D41EA020025
:100A20000AF08BFA0546454A454B0AF09DFA0746FF
:100A30000AF052FA4049C1F884004248807840B92F
:100A4000012040498870A0783F4908703F4880F8ED
:100A5000009004F0E9FC01203D490880A0781328AB
:100A600049D12179090209B2627941EA02000AF00A
:100A700064FA0546314A324B0AF076FA07460AF024
:100A80002BFA2D49C1F89000A179090209B2E27947
:100A900041EA02000AF051FA0546284A284B0AF0BA
:100AA00063FA07460AF018FA2349C1F89800217A38
:100AB000090209B2627A41EA02000AF03EFA0546EA
:100AC0001E4A1F4B0AF050FA07460AF005FA1A4967
:100AD000C1F894001B48807840B9012019498870FA
:100AE000A07819490870194880F8009004F09CFC1F
:100AF000012017490880A07814280BD1114880786C
:100B000040B901200F498870A0780F4908700F483C
:100B100080F80090A07815280BD10A48807840B959
:100B2000012008498870A07807490870074880F8B4
:100B3000009000BFC4E40000AC0B0020FCA9F1D27F
:100B40004D62503F0C0A00204C0000204D00002058
:100B50004E00002010B504463448007838B9AA2C5D
:100B600005D1012031490870314804705DE02F48FB
:100B70000078012807D1AF2C05D102202B4908703D
:100B80002B48447051E029480078022807D1F12C05
:100B900005DA0320254908702548847045E023487C
:100BA000007803280CD1322C0ADA04201F4908707F
:100BB0001F48C4701F48047000201F49087034E0AB
:100BC0001A480078042819D11A480078002815DD41
:100BD00018480078401E17490870174800781649D1
:100BE0000978491C144A1170001D11490C54114810
:100BF0000078D0B905200D49087016E00B48007840
:100C000005280FD10020094908700B480078001D05
:100C100007490C5408480078401DC1B20448FFF74A
:100C200037FC02E000200149087010BD5C00002084
:100C3000620A00205A0000205B00002010B500F07E
:100C400007FF04F0F7FB4FF4C87004F05BFD07F0FA
:100C5000CBFE01F00FFA4FF4C87000F032FC142004
:100C600001F044F901F0C0F80A4807F045FE0948D0
:100C700007F0A0FC04F0B8FE642000F022FC07F0AE
:100C8000EFFDFFF7F9FB80F0010003490870012038
:100C900010BD000020A107003C0100202DE9F04715
:100CA000044689464FF0000A002005E0215C5144CB
:100CB00001F0FF0A411CC8B2A9F101018142F5DC33
:100CC00004EB090010F8010C504501D0BDE8F08795
:100CD000A078512835D1207970B96079974908708A
:100CE000A07940B296490870E07940B29549087001
:100CF000207A9549087024E02079012821D1607973
:100D00008E490870A079000200B2E17908438F494A
:100D10000880207A000200B2617A08438C4908807A
:100D2000A07A000200B2E17A08438A490880207B59
:100D3000000200B2617B084387490880A07B82499A
:100D40000870A078522811D1207930B9A079617942
:100D500040EA01208149088008E02079012805D176
:100D6000A079617940EA01207D490880A078532864
:100D700059D1207950BB6079000200B2A1790843B3
:100D800078490880E079000200B2217A0843764968
:100D90000880607A000200B2A17A08437349088093
:100DA000E07A000200B2217B084371490880607B31
:100DB000000200B2A17B08436E490880E07B00027C
:100DC00000B2217C08436C4908802CE0207901287E
:100DD00029D16079000200B2A179084367490880EF
:100DE000E079000200B2217A084365490880607A00
:100DF000000200B2A17A084362490880E07A00024A
:100E000000B2217B084360490880607B000200B289
:100E1000A17B08435D490880E07B000200B2217C91
:100E200008435B490880A078542837D12079B0BBAB
:100E30006179090209B2A27941EA02000AF07DF85B
:100E40000746544A544B0AF08FF805460AF044F816
:100E500052490860E179090209B2227A41EA0200A6
:100E60000AF06BF807464B4A4B4B0AF07DF80546F3
:100E70000AF032F84A490860617A090209B2A27A96
:100E800041EA02000AF059F80746424A424B0AF08A
:100E90006BF805460AF020F8424908604BE0FFE78E
:100EA0002079012847D16179090209B2A27941EA82
:100EB00002000AF042F805463B4A3C4B0AF054F85F
:100EC00007460AF009F83A490860E179090209B2CF
:100ED000227A41EA02000AF030F80546324A334BE2
:100EE0000AF042F8074609F0F7FF32490860617AD4
:100EF000090209B2A27A41EA02000AF01EF8054688
:100F0000294A2A4B0AF030F8074609F0E5FF2A493A
:100F10000860E17A090209B2227B41EA02000AF084
:100F20000CF80546204A214B0AF01EF8074609F046
:100F3000D3FF2249086000BFC8E60000040000207B
:100F40000600002007000020050000200800002007
:100F50000A0000200C0000200E00002010000020DD
:100F600012000020140000201600002018000020AD
:100F70002000002022000020240000201A00002071
:100F80001C0000201E000020260000202800002059
:100F90002A0000207B14AE47E17A843F2C00002019
:100FA00030000020340000202D431CEBE2361A3FB5
:100FB000380000203C0000204000002044000020B9
:100FC00010B504463448007838B9AA2C05D1012060
:100FD00031490870314804705DE02F4800780128DD
:100FE00007D1AA2C05D102202B4908702B48447048
:100FF00051E029480078022807D1F12C05DA0320B6
:10100000254908702548847045E023480078032866
:101010000CD12D2C0ADA04201F4908701F48C47017
:101020001F48047000201F49087034E01A480078F7
:10103000042819D11A480078002815DD18480078CE
:10104000401E174908701748007816490978491C4E
:10105000144A1170001D11490C5411480078D0B980
:1010600005200D49087016E00B48007805280FD1BF
:101070000020094908700B480078001D07490C54EE
:1010800008480078401DC1B20448FFF707FE02E09F
:1010900000200149087010BD4A000020D40700203C
:1010A000480000204900002008B505E06A460021FC
:1010B0004FF4967002F0CEF8F8E7000000B58BB060
:1010C0000AA8032100220592CDE9062108900120FB
:1010D000410233221E4BCDE90132CDE9031003203A
:1010E00000231C4A1CA100901F4801F0D7FD0AA84C
:1010F000032100220592CDE9062108900220410239
:1011000066221A4BCDE90132CDE9031004200023F9
:10111000174A18A100901B4801F0C0FD0AA803213E
:1011200000220592CDE90621089010464FF4806117
:101130006622154BCDE90132CDE9031005200023CD
:10114000124A13A10090164801F0A8FD0BB000BD93
:1011500014310020A5110008417070205461736B98
:10116000205570646174650054300020D43900202B
:10117000A9100008417070205461736B20434F4DDB
:101180000000000014390020944A002005120008D5
:10119000417070205461736B20557365724946002D
:1011A000D449002008B50AE005480068C043054955
:1011B000C1F8A8026A460021C82002F04BF8F3E704
:1011C000A88242420080424208B507F007FE00F0C4
:1011D00039F800F027F8FFF731FD09490870684633
:1011E00001F0D2FC00F09CF8FFF768FF06E000F089
:1011F00043FE6A460021642002F02CF8F7E7000065
:101200000000002008B504E06A460021642002F0D6
:1012100021F8F9E71FB5684604F056FE019804B0BE
:1012200010BD000070B5FFF7F5FF044603480068E5
:10123000B4FBF0F5284602F0B1F870BD54B70008D1
:1012400000BFFEE710B500F0FBF800F003F800F077
:10125000F3F810BD70B50026002018490880184921
:10126000088018490860184908601849086018493A
:10127000086018490860002400BFFFF719F8064607
:1012800000BF00250BE000201049086000F074F852
:1012900000F08CF80D4800680444681C85B2002DED
:1012A000F1D00C4804600020084908600849086033
:1012B00000BF3046FFF700F800BF70BD38020020C5
:1012C0003A0200203C020020400200204802002098
:1012D0004C0200204402002001460846044A1268DD
:1012E000904203D9024A1268801A00E00020704739
:1012F0004402002070B5002500BFFEF7D9FF054667
:1013000000BF0648046800BF2846FEF7D5FF00BFAF
:101310002046FFF7E1FF0646304670BD4802002038
:1013200070B50025FFF7E6FF044600BFFEF7C0FFDB
:10133000054600BF00200449086000BF2846FEF7AC
:10134000BBFF00BF204670BD4802002070B50025DD
:1013500000BFFEF7ADFF054600BF0648046800BFAA
:101360002846FEF7A9FF00BF2046FFF7B5FF064657
:10137000304670BD4C02002010B509480088401C62
:10138000074908800748008818B900F083F8064923
:10139000086004480088401C0249088010BD000015
:1013A000380200203A0200203C02002010B50F480D
:1013B0000088401E0D49088008460088A0B900F04A
:1013C00069F80B490860084600680A490968441A28
:1013D00009480068A04201D2074804600748006835
:1013E000A04201D20548046010BD00003A0200206E
:1013F000400200203C020020480200204C02002055
:1014000010B5002400BF00BFFEF752FF044600BF26
:10141000FFF7B2FF00BF1021064800F077FE00BFC3
:10142000FFF7C4FF00BF2046FEF746FF00BF00BF26
:1014300010BD0000EC60002010B5FFF7E1FF10BD0B
:1014400010B500200249086000F00AF810BD000045
:101450003402002001490860704700003402002077
:1014600010B5FFF7D7FE04460848006840F08070CA
:10147000064908600020064948600846006840F0B8
:10148000010008602046FFF7E5FF10BDFCED00E01D
:10149000001000E00149486870470000001000E0BB
:1014A0004FF07E51044801660167C0F88010034880
:1014B0000149C1F8C000704708080020CDCC4C3E5F
:1014C000704710B5044603E04FF47A7000F005F859
:1014D000201EA4F10104F7D110BD30B5044600F080
:1014E00083FA054600BF00F07FFA401BA042FAD302
:1014F00030BD0000024908700021024A1180704787
:10150000690000207200002000487047945A0020B3
:1015100000B589B00121084604F086FC01210803CA
:1015200004F0B2FC05221146564800F033FA0522B9
:101530000621544800F02EFA05220721514800F0F8
:1015400029FAE020069002208DF81C0003208DF877
:101550001D0000208DF81E0002208DF81F0006A936
:10156000484800F0CFF91020069001208DF81C00AB
:1015700000208DF81E0001208DF81F0000208DF83E
:101580001D0006A93F4800F0BDF93F4804F01CFDCE
:101590000020ADF804004FF48270ADF80600002082
:1015A000ADF808000220ADF80A000120ADF80C00EB
:1015B0004002ADF80E001820ADF810000020ADF884
:1015C00012000720ADF8140001A92F4804F036FDE1
:1015D00001212D4804F0ECFC01221021294800F0E3
:1015E000FEF900221021274800F0F9F9FF2000F051
:1015F0003FF901221021234800F0F1F908A800F07A
:101600009DF89DF82000EF2831D14FF480501F49FC
:1016100048809DF82200182803D14FF4805088801C
:101620001DE09DF82200172804D14FF400601749EF
:10163000888014E09DF82200162804D14FF48060C1
:10164000124988800BE09DF82200152804D14FF440
:1016500000700E49888002E000200C4988800B4809
:1016600040880A49898848430849886004E0002086
:101670000649087009B000BD01200449087000BF88
:10168000F8E700000000024000300140945A0020BA
:1016900070B504460D46164600221021104800F091
:1016A0009EF9032000F0E4F8C4F3074000F0E0F8EE
:1016B000C4F3072000F0DCF8E0B200F0D9F804E051
:1016C000FF2000F0D5F828706D1C301EA6F1010631
:1016D000F6D101221021024800F081F970BD00000E
:1016E0000000024070B504460D46164600F0F8F8BA
:1016F00000221021104800F072F9022000F0B8F822
:10170000C4F3074000F0B4F8C4F3072000F0B0F8C9
:10171000E0B200F0ADF803E0287800F0A9F86D1C05
:10172000301EA6F10106F7D101221021024800F077
:1017300056F900F0B9F870BD0000024070B50546DA
:101740002C46002210210E4800F049F99F2000F09D
:101750008FF8FF2000F08CF804F8010BFF2000F058
:1017600087F804F8010BFF2000F082F804F8010B61
:1017700001221021024800F032F9287870BD0000E3
:101780000000024070B504460D4600F0A9F80022A2
:1017900010210D4800F023F9202000F069F8C4F36F
:1017A000074000F065F8C4F3072000F061F8E0B2EC
:1017B00000F05EF801221021034800F010F90DB18D
:1017C00000F072F870BD0000000002402DE9F04109
:1017D00004460D461646002700BF0DE00848428823
:1017E00029462046FFF754FF054840880544044831
:1017F00040880444781C87B2B742EFDBBDE8F08133
:10180000945A00202DE9F04104460D461646002763
:1018100016494888C11700EB11614FEA212800F0F2
:101820005FF800BF1EE001212046FFF7ABFF0F4924
:101830004888C11700EB11614FEA212809E04FF4F5
:10184000807229462046FFF74DFF05F5807504F5A7
:101850008074B8F10000A8F101011FFA81F8EED1FF
:10186000781C87B2B742DEDBBDE8F081945A0020D5
:1018700010B5044600BF02210A4804F0D1FB00283D
:10188000F9D02146074804F0D7FB00BF01210548E5
:1018900004F0C6FB0028F9D0024804F0CAFBC0B22D
:1018A00010BD00000030014010B5002400BF002230
:1018B00010210A4800F093F80520FFF7D9FFFF2018
:1018C000FFF7D6FF044601221021044800F087F8F4
:1018D00004F001000028EAD110BD00000000024021
:1018E00010B500221021064800F079F80620FFF715
:1018F000BFFF01221021024800F071F810BD000066
:1019000000000240F0B50A4600210023002400BF79
:101910003DE0012505FA01F3156805EA03049C4240
:1019200034D105684F000326BE40B54305601579E4
:101930004E00B5400668354305601579012D02D08B
:101940001579022D16D185684F000326BE40B54398
:10195000856055794E00B540866835438560456899
:1019600001268E40B5434560456896798E40B6B2F3
:1019700035434560C5684F000326BE40B543C5608A
:10198000D5794E00B540C6683543C560491C10295D
:10199000BFD3F0BDF0B5002300244D07ED0E02FAD1
:1019A00005F3CE1000F1200555F826504E07F70E2E
:1019B0000F26BE40B543CF1000F1200646F8275051
:1019C000CE1000F1200555F8265045EA0304CE104C
:1019D00000F1200545F82640F0BD018370470AB1AB
:1019E000018300E0418370470B4A11684FF0E02209
:1019F00052694FF0E0239B69D21A4FF47A735A432D
:101A00004FF0E0235B69B2FBF3F201EB4103C3EB60
:101A1000C11302EBC3007047C001002000B5402095
:101A20000A49088000F014F980200849088000F075
:101A30000FF940200549891E088000F009F940206F
:101A40000249088000F004F900BD00001A040240B9
:101A50001CB50121022004F0E7F9C020009001200C
:101A60008DF804008DF8060003208DF80500002095
:101A70008DF8070069460248FFF744FF1CBD0000CF
:101A80000004024000B540200A49088000F0E0F858
:101A900080200849891E088000F0DAF840200549B6
:101AA000891E088000F0D4F840200249088000F028
:101AB000CFF800BD1A04024030B5044608250023C3
:101AC00080201449088014E05806030E4020114974
:101AD000891C088000F0BCF840200E49088000F006
:101AE000B7F80C480838006800F0800008B143F0EF
:101AF0000103281EA5F10101CDB2E5D14020054921
:101B0000891C088014B1FFF789FF01E0FFF7BAFFD5
:101B1000184630BD1804024010B50346082419E0E9
:101B200040201149088000F093F803F0800020B1B4
:101B300080200D49891E088002E080200A49088023
:101B40005806030E00F084F840200749891E0880DB
:101B500000F07EF8201EA4F10101CCB2E0D14020BB
:101B60000149088010BD00001A04024000B5802021
:101B7000134908804020088000F06AF810480838AF
:101B8000006808B9012000E0002000F0800008B1E2
:101B9000002000BD80200A49891C088000F058F808
:101BA00007480838006800F0800008B10020F0E71E
:101BB00080200349891C088000F04AF80120E8E7EA
:101BC0001804024000B540200A49088000F040F89F
:101BD00080200849088000F03BF840200549891E14
:101BE000088000F035F880200249891E088000F046
:101BF0002FF800BD1A04024000B50023402013490D
:101C0000088000F025F880201049891E088000F027
:101C10001FF840200D49891E088000F019F807E0E0
:101C2000581CC3B2322B03DDFFF7CCFF012000BDEF
:101C300006480A38006800F080000028F0D14020F3
:101C40000249088000F004F80020F0E71A0402407E
:101C500000BF00BF00BF00BF00BF00BF00BF00BF8C
:101C600000BF0648007838B90F2000BF011EA0F160
:101C70000102D0B2FAD100BF704700005A01002023
:101C8000F0B506460F4614461D46FFF76FFF710676
:101C9000080EFFF741FFFFF7AFFF18B1FFF792FF04
:101CA0000120F0BD3846FFF737FFFFF7A5FFFFF72C
:101CB0005DFF012101EB4601C8B2FFF72DFFFFF7E1
:101CC0009BFF0DE0012C04D10020FFF7F5FE2870EA
:101CD00003E00120FFF7F0FE28706D1C601EC4B207
:101CE000002CEFD1FFF76EFF0020DAE770B5044655
:101CF0000D461646FFF73AFF6106080EFFF70CFF88
:101D0000FFF77AFF18B1FFF75DFF012070BD28468D
:101D1000FFF702FFFFF770FF3046FFF7FDFEFFF70A
:101D20006BFFFFF74FFF0020F0E70000F8B5064615
:101D30000F4614461D466B46012239463046FFF7D2
:101D40009FFF2DB10120A0409DF80010084305E041
:101D50000120A0409DF8001021EA0000C0B20090D0
:101D60009DF8002039463046FFF7C0FF08B9012032
:101D700000E0002001490870F8BD00005C0100206F
:101D80002DE9F8430746884614461D46089E6B46D3
:101D9000012241463846FFF773FF601CFF2101FA1C
:101DA00000F0C4F108012944491EFF220A411043F2
:101DB00000F0FF09C5F1080006FA00F0C6B2C4F150
:101DC000070006419DF8000000EA090000909DF818
:101DD0000000304300909DF8002041463846FFF750
:101DE00085FFBDE8F88300001CB50121102004F038
:101DF0001BF801208DF8040000208DF8060001205A
:101E00008DF805000420009069461948FFF77AFD17
:101E100004211748FFF7E1FD01208DF804000020A0
:101E20008DF8060001208DF805004FF4E060009069
:101E300069461048FFF766FD4FF480610D48FFF7D3
:101E4000CCFD4FF400710B48FFF7C7FD4FF48071D4
:101E50000848FFF7C2FD0420054908830002054930
:101E60001A31088040100880401008801CBD000016
:101E700000100240000C024004200B4908830002BD
:101E80000A49088040100880401008800BE00420B8
:101E9000054948839620FFF714FB04200249088374
:101EA000C820FFF70EFBF2E7001002401A0C0240B8
:101EB0001CB50121082003F0B7FF8020009000200E
:101EC0008DF8040003208DF8050000208DF8060031
:101ED00001208DF8070069460348FFF713FD8021B4
:101EE0000148FFF77AFD1CBD000C024070B50446A6
:101EF0000125FFF7DDFF2A2C15D006DC052C0CD0C0
:101F00000A2C0CD0142C16D10BE0622C0DD0BC2C5A
:101F10000DD0B4F5807F0ED10BE006250DE0052530
:101F20000BE0042509E0032507E0022505E0012573
:101F300003E0002501E0032500BF00BFFFF788FD97
:101F40004FF4C870FFF7BDFA002000F07CF80A20BB
:101F5000FFF7B7FA0A20FFF7B4FA032000F029F8D8
:101F60000A20FFF7AEFA4FF47A7000F075F80A20F5
:101F7000FFF7A7FA032000F042F80A20FFF7A1FAC2
:101F8000022000F02AF80A20FFF79BFAE8B200F0DE
:101F90001AF80A20FFF795FA002000F04BF80A2003
:101FA000FFF78FFA012000F03CF80A20FFF789FACA
:101FB00070BD38B50446032302226B2168200094CB
:101FC000FFF7DEFE38BD38B50446032302221A218E
:101FD00068200094FFF7D4FE38BD38B504460223CC
:101FE00004221C2168200094FFF7CAFE002003236E
:101FF00007221C2100906820FFF7C2FE38BD38B5CB
:102000000446022304221B2168200094FFF7B8FE37
:102010000020032307221B2100906820FFF7B0FE59
:1020200038BD10B504462346012237216820FFF74A
:102030007DFE10BD10B50446234605226A216820A6
:10204000FFF774FE10BD10B50446234606226B212F
:102050006820FFF76BFE10BD70B504464FF47A7030
:1020600090FBF4F0401EC5B22A4619216820FFF704
:102070003DFE70BD10B50A20FFF723FA00F036F8D8
:102080000320FFF71EFA00F00BF808B9012000E06A
:1020900000200249087000F030F810BD8E010020C9
:1020A00038B5002000900025002415E0A02000EBAA
:1020B0004400C1B26B4602227720FFF7E1FD2844BD
:1020C000C5B29DF801009DF8001040EA01200649C4
:1020D00021F81400601CC4B2082CE7DB082D01D1E4
:1020E000012038BD0020FCE7205C002010B5012253
:1020F0001E217720FFF7FAFD10BD10B501225821EF
:102100007720FFF7F3FD10BD00BFFEE730B50546B1
:102110000C4622460021284600F001F830BD2DE98A
:10212000F04105460B4694460027002402E03F029A
:102130001F43641C042CFAD3604605F003062946AD
:1021400046B1344603E001F8013B401E641C08B16F
:10215000042CF8D30A4601E080C2001F0428FBD2F9
:10216000114602E001F8013B401E0028FAD1BDE80B
:10217000F081704710B54FF4407000F03DF810BD8D
:1021800070B5002100230F22C4781CB3174C2468BB
:1021900004F4E064C4F5E064C4F30721C1F104046D
:1021A000E3B20A4144789C40E1B284781440214370
:1021B0000C07210E0E4C05786155047804F01F05BC
:1021C0000124AC4005786D11AD0005F1E025C5F89E
:1021D000004109E0047804F01F050124AC40054DDE
:1021E0000678761145F8264070BD00000CED00E041
:1021F00000E400E080E100E002490143024A11608E
:10220000704700000000FA050CED00E07047000088
:1022100010B50348006810B101480068804710BD40
:102220006002002070B5044600F0A2F800203E498C
:1022300008703E4908703E4908703E4908603E49B2
:1022400008603E4908703E4908703E4908703E48A3
:10225000006858B13D48056845B13B48066803E051
:10226000761E002028602D1D002EF9D1002038494F
:1022700008603849086038490860384908603849BA
:10228000086038490860384908603849087001F02A
:1022900017FC01F051FC204601F06CF9208800B1D8
:1022A00070BD204601F0D0F9208800B1F8E7204643
:1022B00001F0D6F9208800B1F2E7204601F046FA95
:1022C000208800B1ECE7204601F02AFC208800B10C
:1022D000E6E7204601F0C4FC208800B1E0E7204694
:1022E00001F066FF208800B1DAE7204601F074F9BA
:1022F000208800B1D4E7204602F0E2FB208800B13C
:10230000CEE7204601F04AFE208800B1C8E720460B
:1023100002F03AFC208800B1C2E701F057F8FFF75D
:1023200075FF00BFBCE70000740200207C020020A3
:10233000A2020020080300200C03002096020020C7
:10234000970200209802002024B7000820B7000858
:1023500054020020580200205C020020600200208D
:1023600064020020680200206C020020CE020020DF
:10237000064800680649096800EB810005490860C5
:102380000846006820F007000860704720B7000882
:1023900024B700081003002010B500242D48007851
:1023A000012800D010BD00BFFDF782FF044600BF2A
:1023B0002948007828B900BF2046FDF77DFF00BFFF
:1023C000F0E725480078401E234908700846007849
:1023D000002805DD00BF2046FDF76EFF00BFE1E7E6
:1023E0001E480078002805DD00BF2046FDF764FF89
:1023F00000BFD7E701F050FB194908700846007884
:1024000000EB4000174951F82000174908600846C2
:10241000006816490968884205D100BF2046FDF7CB
:102420004BFF00BFBEE710480068D0F88C00401C8E
:102430000D490968C1F88C000D480068401C0C4922
:102440000860FDF7EAFF00BF2046FDF735FF00BF3B
:1024500000BFA7E77C02002074020020A202002037
:1024600097020020287100200C03002008030020A0
:10247000C40200202DE9F04104460D46164600270F
:1024800000BF00BFFDF714FF074600BFFEF774FF53
:1024900000BF11482060656000202062606284F8FF
:1024A0002800E06204F1080001F001FA204601F082
:1024B0000DF90A480088401C0849088000BFFEF753
:1024C00075FF00BF3846FDF7F7FE00BF00BF0020D4
:1024D0003080BDE8F08100004D5554589402002032
:1024E0002DE9F04788B00546884691461C46109E67
:1024F0004FF0000A72492868884205D045F6C4505A
:10250000308008B0BDE8F0870CB10020206000BF2B
:1025100000BFFDF7CDFE824600BFFEF72DFF00BFD6
:1025200095F82800C8B9674800686862012085F8F6
:1025300028000CB1E86A206029466248006801F072
:10254000DDF800BFFEF732FF00BF5046FDF7B4FED6
:1025500000BF00BF00203080D3E75A49686A09688D
:10256000884225D195F82800FF280CD100BFFEF73E
:102570001DFF00BF5046FDF79FFE00BF00BF45F2A4
:1025800084703080BDE795F82800401C85F828004D
:102590000CB1E86A206000BFFEF708FF00BF50469C
:1025A000FDF78AFE00BF00BF45F282703080A8E7C9
:1025B00009F4004060B100BFFEF7F8FE00BF5046CE
:1025C000FDF77AFE00BF00BF46F2B010308098E7FA
:1025D0003D48007800280CDD00BFFEF7E7FE00BF95
:1025E0005046FDF769FE00BF00BF46F663503080DD
:1025F00087E76F6A97F837003249096891F8371012
:10260000884206DD2F48006890F83710384601F000
:1026100041FD434604222946684601F0A3F800BF65
:10262000FEF7C4FE00BF5046FDF746FE00BF00BFE8
:1026300000F00AF900BF00BFFDF73AFE824600BF76
:10264000FEF79AFE00BF1F48006890F8350030B1D1
:1026500001280CD002281AD0032821D110E01CB187
:1026600018480068806C2060002030801CE01CB19D
:1026700014480068806C206046F2A910308013E096
:102680000CB10020206047F2D92030800CE01CB152
:102690000C480068806C206045F6C250308003E032
:1026A00046F62E60308000BF00BF00BFFEF77EFE02
:1026B00000BF5046FDF700FE00BF00BF00BF20E78F
:1026C0004D55545808030020A20200202DE9F84F70
:1026D00004468A4615464FF0000B58492068884248
:1026E00004D045F6C4502880BDE8F88F00BF00BF75
:1026F000FDF7DEFD834600BFFEF73EFE00BF5049FA
:10270000606A096888420CD000BFFEF74FFE00BF28
:102710005846FDF7D1FD00BF00BF45F2817028800B
:10272000E2E7FEF7B7FE80462834C4F8048020783C
:10273000401E207014F8280900280CDD00BFFEF7A9
:1027400035FE00BF5846FDF7B7FD00BF00BF45F29C
:1027500083702880C8E721463948006800F0E8FF08
:1027600004F10809B9F8080078B90020606284F81B
:10277000280000BFFEF71AFE00BF5846FDF79CFD7B
:1027800000BF00BF00202880AEE72D48006890F809
:1027900037002B49096891F83810884228D028481A
:1027A000006800F0AFFF06462548006890F8381032
:1027B000B14204DA2248006890F8380000E0304660
:1027C00006461F48006890F83700B04210DA1C48EF
:1027D000006801F017FA1A48006880F83760304640
:1027E00001F07AF91648006801F0EEF91548067014
:1027F000D9F8000087686762012084F82800214624
:10280000384600F07BFF00231A4639462046CDF8B3
:10281000008001F0BFF800BFFEF7C8FD00BF5846BA
:10282000FDF74AFD00BF00BF0AF4004008B900F000
:102830000BF80020288000BF56E700004D55545883
:10284000080300209602002010B5002420480078DC
:10285000002800DD10BD1F480078002800DDF9E7E2
:1028600000BFFDF725FD044600BF01F015F91A4928
:1028700008700846007800EB4000184951F8200025
:10288000174908600846006816490968884205D15A
:1028900000BF2046FDF710FD00BFDBE710480068D1
:1028A000D0F88C00401C0E490968C1F88C000E4815
:1028B0000068401C0C490860FDF7AAFD00BF2046D7
:1028C000FDF7FAFC00BFBFF36F8F00BFC2E7000047
:1028D00074020020A202002097020020287100202C
:1028E0000C03002008030020C402002070B5044639
:1028F000002515480078012803D045F6896020801E
:1029000070BD12480078FA2803DB45F209202080C8
:10291000F6E700BF00BFFDF7CBFC054600BFFEF7A2
:102920002BFD00BF09480078401C0849087000BF13
:10293000FEF73CFD00BF2846FDF7BEFC00BF00BF10
:102940000020208000BFDBE77C020020A2020020E4
:1029500070B5044600251E480078012803D045F6CE
:102960008960208070BD1B48007818B946F6645015
:102970002080F7E700BF00BFFDF79AFC054600BFC7
:10298000FEF7FAFC00BF13480078401E114908709A
:102990000846007800280CDD00BFFEF707FD00BFE9
:1029A0002846FDF789FC00BF00BF46F66350208033
:1029B000D8E700BFFEF7FAFC00BF2846FDF77CFC15
:1029C00000BF00BFFFF740FF0020208000BFC9E725
:1029D0007C020020A202002010B5044612480078B4
:1029E000E8B901F059F81149087008460078104913
:1029F00008700E48007800EB40000E4951F82000A6
:102A00000D490860084600680C4908600120064925
:102A10000870FDF7BFFC43F69920208002E045F6E0
:102A20008A60208010BD00007C02002097020020F8
:102A300096020020287100200C03002008030020CB
:102A40002DE9F04107464FF0000800BF00BFFDF739
:102A50002FFC804600BFFEF78FFC00BF00204249DC
:102A6000088042490860424908604249086042497A
:102A700008604249088100BFFEF798FC00BF40464D
:102A8000FDF71AFC00BF00BF00BF00BFFDF710FC40
:102A9000804600BFFEF770FC00BF3948046800BFE5
:102AA000FEF784FC00BF4046FDF706FC00BF00BFF8
:102AB00025E000BF00BFFDF7FBFB804600BFFEF72F
:102AC0005BFC00BF00207434E06320602063A061E1
:102AD000A082E0826062A062FEF7DCFC2062743CAF
:102AE00004F160060020B081D4F8B84000BFFEF7C2
:102AF0005DFC00BF4046FDF7DFFB00BF00BF002CC0
:102B0000D7D100BF00BFFDF7D3FB804600BFFEF763
:102B100033FC00BF1B48056800BFFEF747FC00BF41
:102B20004046FDF7C9FB00BF00BF16E000BF00BF75
:102B3000FDF7BEFB804600BFFEF71EFC00BF05F19F
:102B400020060020B081AD6900BFFEF72FFC00BF5A
:102B50004046FDF7B1FB00BF00BF002DE6D10020CD
:102B60003880BDE8F0810000AE020020C0020020E5
:102B7000D4020020F8020020780200201C710020FE
:102B8000C80200209C020020F8B5044600266946D1
:102B9000364800F00FFBBDF8000018B1BDF800008A
:102BA0002080F8BD6A460021022000F053FBBDF8EA
:102BB000000018B1BDF800002080F2E700BF00BFA0
:102BC000FDF776FB064600BFFEF7D6FB00BF0020F0
:102BD0002749086000BFFEF7E9FB00BF3046FDF75C
:102BE0006BFB00BF00BF002522480068224909682E
:102BF000884205D91F4800681F490968B0FBF1F5F4
:102C000025B91C4800680A21B0FBF1F56A4600218D
:102C1000284600F01FFB6946144800F0EDF8BDF8A7
:102C2000000018B1BDF800002080BAE700BF00BF67
:102C3000FDF73EFB064600BFFEF79EFB00BF0020EF
:102C40000E4908600A4800680D49086001200D49D6
:102C5000087000BFFEF7AAFB00BF3046FDF72CFB53
:102C600000BF00BF0020208000BF9AE758740020FA
:102C7000B002002054B700083CB70008C002002092
:102C8000B4020020BC02002010B50348006810B157
:102C900001480068804710BD640200202DE9FF4F05
:102CA00085B004469146DDF854B0DDE912A5199EC1
:102CB00000200290BAF11F0F09D14648844206D085
:102CC00046F273211A98018009B0BDE8F08F2046C2
:102CD00001F07EFA00211A98018006F0010088B107
:102CE00006F0020070B1A8460020049007E0002022
:102CF000C8F8000008F104080498401C04900498E7
:102D00005845F4D3149805EB80000390CDE900B644
:102D10002A464846039B089900F0EAF98046C4F821
:102D200028900898E0620698206284F837A084F81A
:102D300038A0C4F800800398A060189860606562AD
:102D4000C4F840B0A4F84460002706E0002104F174
:102D5000780040F82710781CC7B2002FF6D004F195
:102D60006000169900F0AAFC204600F039F800BF78
:102D700000BFFDF79DFA029000BFFEF7FDFA00BF0D
:102D800094F8370000F0A8FE204600F01DFF204612
:102D900001F0F6F910480088401C0F4908800F48E0
:102DA0000078012809D000BFFEF700FB00BF0298A1
:102DB000FDF782FA00BF00BF86E700BFFEF7F6FA14
:102DC00000BF0298FDF778FA00BF00BFFFF73CFD97
:102DD00000BF79E75C700020CC0200207C0200205C
:102DE00010B504460348006818B120460149096837
:102DF000884710BD5402002070B504460D460026D9
:102E000000BF00BFFDF754FA064600BFFEF7B4FA54
:102E100000BF00BFFEF7CAFA00BF3046FDF74CFA0C
:102E200000BF00BF2946204601F034FA70BD000003
:102E300010B504460348006818B1204601490968E6
:102E4000884710BD5C0200202DE9F0470746884600
:102E500014461D464FF000090CB10020206000BF51
:102E600000BFFDF725FA814600BFFEF785FA00BFD7
:102E700065480068C06CC0B363480068C06C401E01
:102E800061490968C86460480068C66C1CB15E4846
:102E90000068806C2060FEF7FDFA5B490968896C68
:102EA000401A59490968C1F8A00057480068D0F88D
:102EB000A40055490968D1F8A010884207D25248A9
:102EC0000068D0F8A00050490968C1F8A40000BF0C
:102ED000FEF76CFA00BF4846FDF7EEF900BF00BFF1
:102EE000002028803046BDE8F087FFE708F4004066
:102EF00068B100BFFEF75AFA00BF4846FDF7DCF99B
:102F000000BF00BF46F2B01028800020EBE73F482A
:102F1000007800280DDD00BFFEF748FA00BF4846E4
:102F2000FDF7CAF900BF00BF46F6635028800020B5
:102F3000D9E73B4607220021084600F013FC00BFFA
:102F4000FEF734FA00BF4846FDF7B6F900BF00BFF0
:102F5000FFF77AFC00BF00BFFDF7AAF9814600BF6A
:102F6000FEF70AFA00BF2848006890F8350020B143
:102F7000012826D0032834D12CE0FCB12248006877
:102F8000806C2060FEF786FA1F490968896C401A38
:102F90001D490968C1F8A0001B480068D0F8A400CA
:102FA00019490968D1F8A010884207D2164800686C
:102FB000D0F8A00014490968C1F8A40000202880B6
:102FC00013E01CB110480068806C206046F2A91024
:102FD00028800AE00CB10020206047F2D920288028
:102FE00003E046F62E60288000BF00BF0648006858
:102FF000C66C00BFFEF7DAF900BF4846FDF75CF982
:1030000000BF00BF30466EE708030020A202002088
:103010002DE9F04105460E461446FEF73BFA804680
:10302000234642463146284601F0D4F90746384641
:10303000BDE8F0812DE9F04704460D4616461F46CF
:103040004FF0000A00BF00BFFDF732F9824600BF13
:10305000FEF792F900BF0CB924480468206880B9D3
:1030600000BFFEF7A3F900BF5046FDF725F900BFEA
:1030700000BF00202860306047F252103880BDE861
:10308000F08794F8440000F0010078B900BFFEF723
:103090008DF900BF5046FDF70FF900BF00BF0020BB
:1030A0002860306047F254103880E8E700BFFEF730
:1030B0007DF900BF5046FDF7FFF800BF00BF4FF09D
:1030C0000008D4F8249003E009F1040908F101088C
:1030D000D9F800000028F7D0C5F80080206CA0EBDC
:1030E000080030600020388000BFC8E708030020D7
:1030F000F0B50446DDE9055602EB850020F0070037
:103100004FF0807C071F3846C7F800C0071F3846BD
:103110003C60DFF89CC0071F3846C7F800C04FF07E
:10312000123C071F3846C7F800C04FF0033C071F8A
:103130003846C7F800C04FF0023C071F3846C7F8B2
:1031400000C0071F38463B60071F384639604FF004
:10315000113C071F3846C7F800C04FF0103C071F4E
:103160003846C7F800C04FF0093C071F3846C7F87B
:1031700000C04FF0083C071F3846C7F800C04FF0AA
:10318000073C071F3846C7F800C04FF0063C071F32
:103190003846C7F800C04FF0053C071F3846C7F84F
:1031A00000C04FF0043C071F3846C7F800C0F0BD10
:1031B000B143000870B505460C460648854203D168
:1031C00047F25B10208070BD2146284601F0FAF9D5
:1031D00000BFF8E75C70002070B51B48006810B1B4
:1031E000194800688047FEF755F9044617480068FB
:1031F00017490968884215D014480068D0F894002F
:10320000201A12490968C1F8900010480068D0F8E7
:1032100098000E490968D1F8901008440B490968D4
:10322000C1F898000A480068C0F89440FEF778F8A2
:10323000054606480068D0F8B000A84203D203480B
:103240000068C0F8B05070BD68020020080300207C
:103250000C0300202DE9F04105460E4614460027D8
:1032600026480078002804DD46F663502080BDE83B
:10327000F08136B1022E05D0042E0AD0082E09D1D5
:1032800001E000BF00BF1DB947F27E202080EEE7BD
:1032900004E003E045F625602080E8E700BF00BFBA
:1032A00000BFFDF705F8074600BFFEF765F800BF51
:1032B0002346324629461248006801F063FA208806
:1032C00048B100BFFEF772F800BF3846FCF7F4FFC4
:1032D00000BF00BFCBE70A48006800F093FC00BFC6
:1032E000FEF764F800BF3846FCF7E6FF00BF00BFFA
:1032F000FFF7AAFA0020208000BFB8E7A202002052
:103300000803002008B500F01FF86A4600210A48AB
:10331000FFF77EFE09480068401E0849086008461D
:10332000006838B90648006808606A460021054808
:10333000FFF76EFE08BD0000687300200403002044
:10334000000300205874002010B50348006810B135
:1033500001480068804710BD6C02002010B50024B1
:1033600000BF00BFFCF7A4FF044600BFFEF704F84F
:1033700000BF09480078401C0749087000BFFEF7ED
:1033800015F800BF2046FCF797FF00BF00BFFFF70E
:10339000B9FFFFF701F810BD7402002001464A1E74
:1033A0004FF0E0235A61084A106820F07F4000BFC8
:1033B00010601A46126942F005021A611A46126933
:1033C00042F002021A61704720ED00E0244A2549CC
:1033D000254A264A2649274A2748284A284A294A68
:1033E000294A2A482A482B4A2B482C4A2C482D4A3D
:1033F0002D482E482E482F482F4A304A304A31480F
:10340000314A324A324833483348344834483548E0
:103410003548364A364A374A374A384838483948AC
:10342000394A3A4A3A4A3B483B483C483C493D487D
:103430003D4A3E4A3E4A3F4A3F4A404A404A414846
:10344000414A424A42484348434A444A4448454A1A
:10345000454A4648464800BF00BF00BF70470000CD
:1034600088B70008F0B8000889B700088AB70008D4
:103470008CB7000890B7000894B7000891B700080F
:10348000BCB70008BDB70008BEB70008C0B7000849
:10349000C2B70008C6B70008C8B70008E8B70008F8
:1034A000EAB70008ECB70008EEB70008F0B700086C
:1034B000F2B70008F4B7000824B8000825B80008DF
:1034C00026B8000828B800082AB800082BB8000859
:1034D0002CB800082EB8000830B8000832B8000830
:1034E00034B8000836B8000838B8000868B80008D2
:1034F00069B800086AB800086BB800086CB8000822
:103500006EB8000870B8000898B8000899B80008AC
:103510009AB800089BB800089CB800089EB800083C
:10352000A0B80008A4B80008A5B80008A6B800080C
:10353000A7B80008A8B80008A9B80008AAB80008E9
:10354000ABB80008ACB80008AEB80008AFB80008C7
:10355000B0B80008B2B80008B4B80008B5B80008A0
:10356000B8B80008E8B80008E9B80008EAB80008E8
:10357000ECB800080021034A1160034A1180018061
:1035800070470000800200208402002000241DE01B
:1035900000BF00BFFCF78CFE044600BFFDF7ECFE49
:1035A00000BF0B480068401C0949086009480068D2
:1035B000401C0849086000BFFDF7F8FE00BF204628
:1035C000FCF77AFE00BF00BFFEF722FEE0E7000036
:1035D00070020020B002002010B58AB0044600201E
:1035E0000E4908600B2000210591CDE907040691E2
:1035F00008460B4909680B4A12680B4B1B68CDE95A
:103600000132CDE903101F200023084A08A10090D1
:103610000C48FFF743FB0AB010BD00007002002009
:10362000FCB60008F8B60008F4B600088D350008AE
:1036300075432F4F532D4949492049646C652054E7
:1036400061736B005C7000200021034A1160034A23
:103650001180018070470000880200208C02002049
:1036600070B50246124D286829681031114D2D8819
:103670006D1EACB2002308E00160002545600581A5
:10368000C560103010315D1CABB2A342F4DB0025E5
:10369000056045600581C560054D2D68064E3560A5
:1036A000044D2D88B5800025F5803581158070BDCD
:1036B00034B700082CB700081C71002001810022DB
:1036C00042818281026042607047000009A1C161AD
:1036D000002141610849096811B90021816105E0B3
:1036E000054909688161044909684861024908601F
:1036F000704700002000000090020020C26B0A62A8
:10370000C163704730B504461F2004F13C010BE053
:103710000D68AB682BB19D6895F83720824200DABE
:1037200010460D6805F120010D68002DF0D130BD67
:10373000024602F13C0002E0036803F12000036846
:103740008B42F9D103681B6A036070470021034A6A
:103750001160034A11800180704700009002002030
:10376000940200202DE9F04105460C4616461F46FE
:103770001548006880F8346000201349096881F812
:10378000350039461048006800F06EFC6CB104F159
:103790000808EC60012229460B48006800F016F882
:1037A0002946404600F088F807E0002006490968ED
:1037B000A1F84600044909680863034801682046E7
:1037C00000F018F8BDE8F0810803002010B5A0F85B
:1037D0004620016300230AE000244C600C600C6169
:1037E0004C610C83CC61886020315C1CA3B2934295
:1037F000F2DB10BD30B548B14568C1F8BC5000F1EE
:103800000804226893681D6AC56113E091F834507A
:10381000022D02D0072D08D103E007A5C1F8BC5046
:1038200007E007A5C1F8BC5003E008A5C1F8BC50EB
:1038300000BF00BF30BD00005461736B2051000019
:103840005461736B2053656D000000002000000080
:1038500030B507A5C1F8BC5000F1080422681AB1C0
:1038600093681D6AC56101E001A5C56130BD000016
:10387000200000002DE9F0410446256BB4F84670A5
:1038800011E0D5F80C8008F108063089012807D925
:103890002946304600F05DF82946304600F00CF825
:1038A0002035781E87B2002FEBD1BDE8F0810021D2
:1038B0000160416001817047F0B58E6896F837501D
:1038C00007893FB90127078100274F600F6001601A
:1038D000416023E007897F1C0781026806E0946845
:1038E00094F83770AF4200DD02E05268002AF6D14A
:1038F00000BF32B900274F6043680B6059604160D8
:103900000CE017682FB9116000270F604A60016052
:1039100004E013680B604A6059601160F0BD2DE946
:10392000F0410446256BB4F846600AE0D5F80C80F7
:1039300008F108072946384600F00BF82035701EBC
:1039400086B2002EF2DC0020A4F846002063BDE819
:10395000F08110B50489012C03D100240460446077
:1039600011E00C6824B94A680024146002600AE07F
:103970004C6824B90B6800245C60436003E00B686A
:103980004A685A6013600489641E048100244C60F4
:103990000C6010BD2DE9F84306460C4617469846C4
:1039A000089D94F8360008285BD2DFE800F0040593
:1039B00008090607323300BF00BF00BF52E000BF56
:1039C00094F83400032807D143463A46214630464E
:1039D000009500F04AF803E0A765A4F85C80A564B0
:1039E00036B12046FFF79BFF21463046FFF730FFF8
:1039F00094F83600032802D1204600F021FF20462B
:103A000000F0ACF800203434A070607004F8340981
:103A100028E000BF94F83400032807D143463A4613
:103A200021463046009500F020F803E0A765A4F891
:103A30005C80A56436B12046FFF771FF2146304611
:103A4000FFF706FF94F83600072802D1204600F061
:103A5000F7FE04203434A0700020607004F83409AC
:103A600000E000BF00BFBDE8F883F0B50446059E46
:103A7000086BB1F846500AE0C768A74204D1046158
:103A800042610383C66104E020306F1EBDB2002D89
:103A9000F2DC00BFF0BD000070B50025074C03E06C
:103AA00005F12000C5B2241D20680028F8D0206848
:103AB000FCF709FC2844C5B2284670BD500200201E
:103AC000002004E00021034A42F82010401C002896
:103AD000F8D070475002002030B5420900F01F03B3
:103AE0000121C3F11F04A140034C54F822400C43B0
:103AF000014D45F8224030BD5002002030B542094A
:103B000000F01F030121C3F11F04A140034C54F82E
:103B100022408C43014D45F8224030BD5002002028
:103B20000021034A1160034A1180018070470000A0
:103B30009C020020A002002000210AE001EB4102CB
:103B4000054B03EB820000220281026042604A1CA6
:103B5000D1B22029F2D370472871002010B5044655
:103B600094F83700FFF7B8FF94F837000549097853
:103B7000884203D1204600F027F802E0204600F0FA
:103B800003F810BD9602002010B590F8373003EB13
:103B900043030C4C04EB83010B893BB901230B81DC
:103BA0000023C36003610860486009E00B895B1C67
:103BB0000B810B68C360002303610A681061086011
:103BC00010BD00002871002010B590F8373003EBCD
:103BD00043030B4C04EB83010B893BB901230B819D
:103BE0000023C36003610860486008E00B895B1C28
:103BF0000B810023C3604A680261D060486010BD39
:103C0000287100202DE9F041054695F8370000EBBA
:103C10004000124901EB80042F69EE6887B946B96C
:103C2000002020812060606095F83700FFF766FF74
:103C30000EE02089401E208100203061266007E0D0
:103C40002089401E2081FE600EB9676000E0376168
:103C500000202861E860BDE8F081000028710020A4
:103C60000021034A1160034A11800180704700005F
:103C7000A4020020A802002086B00020009006E0E8
:103C8000B6490968480001AA0021FFF7E3FAB448E1
:103C900000780128F4D101A8FEF7D2FE0027B14830
:103CA0000068AE490968884205D9AE480068AB494A
:103CB0000968B0FBF1F727B9AA4800680A21B0FBF0
:103CC000F1F749E1FDF7E6FB8246FDF73FFBA64928
:103CD000086000BF00BFFCF7EBFA009000BFFDF7E3
:103CE0004BFB00BFA1480068A149086000209F4924
:103CF000086000BFFDF75AFB00BF0098FCF7DCFA34
:103D000000BF00BF9B48006899490968884248D9AC
:103D1000984800689849884205D242F21070039092
:103D20000120029023E0934800689449884205D21C
:103D30004FF47A7003900A20029018E08D480068D2
:103D40008F49884203D26420039002900FE0894893
:103D500000688C49884205D20A2003904FF47A709B
:103D6000029004E00120039042F21070029081481A
:103D700001680298B1FBF0F97D490398096848434E
:103D8000B0FBF9F042F21071081A7F4908807F48B1
:103D900000880988884207DA7B4800887B490880C8
:103DA00002E0002078490880FEF76EFF002500BF82
:103DB00000BFFCF77DFA009000BFFDF7DDFA00BF01
:103DC0007348046800BFFDF7F1FA00BF0098FCF7E4
:103DD00073FA00BF00BF2EE000BF00BFFCF768FA17
:103DE000009000BFFDF7C8FA00BF54F8980F60605C
:103DF000002044F8980900BFFDF7D8FA00BF0098EA
:103E0000FCF75AFA00BF00BFD4F89C00054400BF7D
:103E100000BFFCF74DFA009000BFFDF7ADFA00BF00
:103E2000D4F8B84000BFFDF7C1FA00BF0098FCF716
:103E300043FA00BF00BF002CCED145B34E488542A7
:103E400005D242F2107005904FF0010B1BE04B4879
:103E5000854205D24FF47A7005904FF00A0B12E0BC
:103E60004748854203D26420059083460BE04548CD
:103E7000854204D20A2005904FF47A7B03E00120AA
:103E8000059042F2107BB5FBFBF0049003E00020AC
:103E900005900120049000BF00BFFCF709FA0090D4
:103EA00000BFFDF769FA00BF3948046800BFFDF79D
:103EB0007DFA00BF0098FCF7FFF900BF00BF2FE0BC
:103EC000D4F89C00059948430499B0FBF1F086B200
:103ED00042F21070864200D90646A4F88860B4F811
:103EE0008A00B04201DAA4F88A6001AB04F1A802AA
:103EF000111D2046FFF79EF800BF00BFFCF7D8F960
:103F0000009000BFFDF738FA00BFD4F8B84000BFFA
:103F1000FDF74CFA00BF0098FCF7CEF900BF00BFD8
:103F2000002CCDD11B480078012805D1002019496B
:103F3000087001A8FEF784FDFDF7ACFAA0EB0A08B3
:103F400015480068404502D21348C0F8008001AA15
:103F500000213846FFF77EF9B4E600003CB70008C0
:103F6000BC02002054B7000878020020B0020020F4
:103F7000B8020020B4020020801A060000093D00AB
:103F8000005A62020084D717AC020020AE02002063
:103F9000C8020020AA020020C002002010B58AB08A
:103FA000044600201F4908601F4908601F49086037
:103FB0001F4908701F4908701F48006820B946F65D
:103FC0002B6020800AB010BD1C4800681C4909689D
:103FD000884203D246F62C602080F3E71948007827
:103FE0001F2803D346F62A602080EBE70320002138
:103FF0000591CDE907040691084610490968124A5F
:1040000012680D4B1B68CDE90132CDE903100D4854
:10401000007800230D4A0EA100901248FEF73EFEE4
:1040200000BFCFE7B0020020B8020020B402002099
:10403000BC020020AA02002040B7000848B70008D0
:1040400050B7000838B7000844B70008793C0008AA
:1040500075432F4F532D494949205374617420549F
:1040600061736B00A872002070B504460D4645B11F
:104070002A462146064800F041FB032084F836001A
:1040800002E0022084F836002046FFF7BBFD70BD39
:10409000E00200202DE9F04104460D4600BF002655
:1040A00094F8377094F8360008285FD2DFE800F003
:1040B00004191E1F1A1B20212046FFF7A3FD84F8B8
:1040C000375094F83700FFF707FD2C48006884420A
:1040D00003D12046FFF758FD02E02046FFF774FDAC
:1040E00046E000BF00BF84F8375041E000BF00BF8A
:1040F00000BF84F8375094F83400082831D2DFE844
:1041000000F0300431050B06073200BF00BF00BFCE
:104110002046FFF7AFFB27E02046FFF7ABFB206B05
:10412000C068466AAF4205DD96F83700A84217DC42
:10413000002615E096F83700B84211D13046FFF757
:10414000E1FA054696F83800A84202DA96F83800F7
:1041500000E02846054696F83700A84200D1002620
:1041600002E000BF00BF00BF00BF01E0BDE8F0817A
:1041700000BF3446002C92D100BFF7E708030020AF
:104180000021C0F8B4100949096819B90021C0F824
:10419000B81007E005490968C0F8B8100349096874
:1041A000C1F8B4000149086070470000C80200204F
:1041B0000021044A1160044A1180044A1160018000
:1041C00070470000C8020020CC020020C40200207A
:1041D00070B5044600202060A0606060E06020614F
:1041E0006061A061E06128A0206200206062A0629E
:1041F000E0622063A4F84600A064A065A4F85C0017
:10420000002104F16000FFF759FA00202067606781
:10421000E067A4F88400C4F88000002506E00021CF
:1042200004F1780040F82510681CC5B2002DF6D0C6
:1042300000203434A061E0662067E06084F852001A
:10424000A06760672082E0612062A4F85400A4F8AF
:104250005600A065E065FDF71DF9064626660020BC
:104260006066E06720706070A0702020E0702071B0
:104270000020A060C4F88000C4F8840004A0C4F842
:104280008800343C70BD00003F5461736B00000037
:104290002000000070B504460D46002600BF00BF98
:1042A000FCF706F8064600BFFDF766F800BF0020E1
:1042B000288094F83600082868D2DFE800F004056A
:1042C0000607142B3F5300BF00BF00BF00BFFDF720
:1042D0006DF800BF3046FBF7EFFF00BF00BF47F2AD
:1042E000531028805FE014F8860F401E207014F8E9
:1042F000860928B9002084F836002046FFF72EFCF6
:1043000000BFFDF753F800BF3046FBF7D5FF00BFF5
:1043100000BF48E014F8860F401E207014F886098C
:1043200010B9012084F8360000BFFDF73FF800BF48
:104330003046FBF7C1FF00BF00BF34E014F8860F22
:10434000401E207014F8860910B9022084F8360047
:1043500000BFFDF72BF800BF3046FBF7ADFF00BFF5
:1043600000BF20E014F8860F401E207014F8860964
:1043700010B9032084F8360000BFFDF717F800BF1E
:104380003046FBF799FF00BF00BF0CE000BFFDF710
:104390000DF800BF3046FBF78FFF00BF00BF46F6A9
:1043A0002D60288070BD00BFFEF74EFA00BFF9E710
:1043B00008B506480068FEF73BFD00BF6A460021CD
:1043C00003480068FEF746FFF8E7000008030020F6
:1043D00054B700082DE9F8430446884617461D46A1
:1043E0004FF0000900BF00BFFBF762FF814600BF2E
:1043F000FCF7C2FF00BF0CB971480468A764002035
:10440000288094F83600082878D2DFE800F0040508
:10441000585906075A5B00BF00BF00BF042001289F
:1044200004D0022815D0042839D126E0E06CFF28FA
:104430000ED100BFFCF7BAFF00BF4846FBF73CFFB8
:1044400000BF00BF46F6C55028800020BDE8F883B5
:1044500026E04FF6FF71E06C88420DD100BFFCF7FB
:10446000A5FF00BF4846FBF727FF00BF00BF46F689
:10447000C55028800020E9E712E0E06C401C68B9D4
:1044800000BFFCF793FF00BF4846FBF715FF00BFD6
:1044900000BF46F6C55028800020D7E700E000BFE7
:1044A00000BFE06C401CE064E66C00BFFCF77EFFE0
:1044B00000BF4846FBF700FF00BF00BF7DE000BF24
:1044C00000BF00BF94F83400072818D100231A4613
:1044D000214618460097FFF75DFAE66C00BFFCF72F
:1044E00065FF00BF4846FBF7E7FE00BF00BF08F4CA
:1044F0000040002852D1FEF7A7F94FE04FE004201A
:10450000012804D0022814D0042838D125E0E06C1A
:10451000FF280DD100BFFCF749FF00BF4846FBF75D
:10452000CBFE00BF00BF46F6C550288000208DE7B7
:1045300026E04FF6FF71E06C88420DD100BFFCF71A
:1045400035FF00BF4846FBF7B7FE00BF00BF46F689
:10455000C5502880002079E712E0E06C401C68B963
:1045600000BFFCF723FF00BF4846FBF7A5FE00BFD6
:1045700000BF46F6C5502880002067E700E000BF76
:1045800000BFE06C401CE064E66C00BFFCF70EFF6F
:1045900000BF4846FBF790FE00BF00BF0DE000BF24
:1045A000FCF704FF00BF4846FBF786FE00BF00BFD4
:1045B00046F62D602880002600BF00BF304645E744
:1045C0000803002070B504460D46002600BF00BF5A
:1045D000FBF76EFE064600BFFCF7CEFE00BF0CB92F
:1045E0004448046843480068844210D14248007837
:1045F00000280CDD00BFFCF7D9FE00BF3046FBF7FA
:104600005BFE00BF00BF46F66350288070BD0020EF
:10461000288094F8360008285AD2DFE800F0041702
:1046200027374748494A042084F83600012084F897
:1046300086002046FFF7E6FA00BFFCF7B7FE00BF92
:104640003046FBF739FE00BF00BF4EE0052084F87E
:104650003600012084F8860000BFFCF7A7FE00BFEB
:104660003046FBF729FE00BF00BF3EE0062084F87D
:104670003600012084F8860000BFFCF797FE00BFDB
:104680003046FBF719FE00BF00BF2EE0072084F87C
:104690003600012084F8860000BFFCF787FE00BFCB
:1046A0003046FBF709FE00BF00BF1EE000BF00BFA1
:1046B00000BF94F88600401C84F8860000BFFCF719
:1046C00075FE00BF3046FBF7F7FD00BF00BF0CE0F2
:1046D00000BFFCF76BFE00BF3046FBF7EDFD00BFEF
:1046E00000BF46F62D60288090E700BFFEF7ACF8CB
:1046F00000BF8BE708030020A202002070B515461A
:10470000066846B90D6500264E618E61C86101607C
:104710000126868033E0046802682B4624E0166D8B
:104720009E421DD396696EB90B6500268E614A6163
:10473000C861166DF61A1665916101608688761C4F
:1047400086800CE094690B658C614A61C861166DC6
:10475000F61A1665916161618688761C868070BD47
:10476000166D9B1B14465269002AD8D10B658C61CB
:1047700000264E61C86161618688761C868000BF14
:10478000EDE700002DE9F04104460D4690461F4636
:10479000B8F1040F0ED1284800682E1A16F5803F94
:1047A00001D8002E3CD10020206547F27E203880C1
:1047B000BDE8F081B8F1080F29D11F49606D096883
:1047C000081AA84205D92E461B480068284460658F
:1047D00026E01949606D0968081A2E1A16F5803FFF
:1047E00000D886B91449606D0968081AB0FBF5F065
:1047F00005FB0050616D084460650020206547F2AC
:104800007E203880D4E7606D2844606508E00DB1F3
:104810002E4605E00020206547F27E203880C7E75D
:10482000012084F83600324621460448FFF766FF2F
:104830000020388000BFBBE7D0020020D802002053
:1048400030B5C26983694169ABB929B900241460E4
:1048500094800465C4611EE000248C610C6D056DBC
:104860002C440C6511609488641E9480002444617B
:104870000465C4610FE0596121B18B610C6D056D58
:104880002C440C65002484619488641E9480002468
:1048900044610465C46130BD2DE9F0474FF0000963
:1048A00000BF00BFFBF704FD814600BFFCF764FDBD
:1048B00000BFFCF7EFFD064600271E4D2C683CB3F9
:1048C000206D401E20651FE0781C87B294F83600EA
:1048D000012806D1002084F836002046FFF73EF973
:1048E00006E094F83600052802D1042084F836004A
:1048F000606928602C6814B90020A88007E0A888A7
:10490000401EA8800020A061206D0028DCD000BFE0
:10491000EF80FCF7BFFDA0EB060800BFFCF746FDEB
:1049200000BF4846FBF7C8FC00BF00BF4046BDE8DB
:10493000F0870000D80200202DE9F05F4FF0000B57
:1049400000BF00BFFBF7B4FC834600BFFCF714FDBB
:1049500000BFFCF79FFD07464FF000083C4D2C6858
:10496000002C63D0206D401E20655BE008F1010043
:104970001FFA80F8002694F83400042802D1206B36
:10498000C068466A0020A065A4F85C00FCF782FDC0
:10499000A0642046FEF7C3FF94F83600032806D132
:1049A0002046FFF7DBF8002084F8360006E094F894
:1049B0003600072802D1042084F83600032084F84A
:1049C0003500002084F8340006B396F8370096F8D6
:1049D000381088421AD096F8370094F83710884279
:1049E00014D13046FEF78EFE814696F838004845D1
:1049F00002DA96F8380000E04846814696F837001B
:104A0000484503D049463046FFF744FB60692860BB
:104A10002C6814B90020A88007E0A888401EA88050
:104A20000020A061206D0028A0D000BFA5F806805E
:104A3000FCF730FDA0EB070A00BFFCF7B7FC00BF96
:104A40005846FBF739FC00BF00BF5046BDE8F09F59
:104A5000E002002008B500272CE06B46002211463A
:104A60001046FEF7F1F9BDF8000018BB00BF00BF0B
:104A7000FBF71EFC074600BFFCF77EFC00BF0E489C
:104A80000068401C0C49086000BFFCF78FFC00BFA9
:104A90003846FBF711FC00BF00BFFFF7FDFE0646DE
:104AA000FFF74AFF0546741904480068A04201D286
:104AB00002480460D1E70000D0020020D4020020A8
:104AC00010B58AB0044600202049086020490860DB
:104AD000204908601E498880C8801E498880C88097
:104AE0001D48006820B947F2122020800AB010BD8E
:104AF0001A4800681A490968884203D247F213200D
:104B00002080F3E7174800781F2803D347F21120CD
:104B10002080EBE70B2000210591CDE907040691E9
:104B200008460E490A68104909680B4B1B68CDE915
:104B30000131CDE903200B48007800230B4A0CA17A
:104B400000901048FEF7AAF800BFCFE7D00200207F
:104B5000D8020020E00200205CB7000864B700081B
:104B600050B7000858B7000860B70008554A000859
:104B700075432F4F532D494949205469636B205485
:104B800061736B006873002010B58AB00446002082
:104B90002F4908602F4908602F4908802F48006876
:104BA00040B12F4800682D490968B0FBF1F02D494C
:104BB000086006E02A4800680A21B0FBF1F02949A4
:104BC00008602848006828490860002027490860D4
:104BD00027490860224627A12A48FDF74BFC208878
:104BE00008B10AB010BD2848006818B947F247302C
:104BF0002080F6E72548006825490968884203D2E5
:104C000047F248302080ECE7224800781F2803D381
:104C100047F246302080E4E70B20002105910A4648
:104C2000CDE907040691194800681B490968164B2D
:104C30001B68CDE90131CDE9030216480078002355
:104C4000164A17A100901C48FEF728F800BFC8E7D5
:104C5000E8020020F0020020EC02002070B70008FB
:104C600054B700080003002004030020FC020020C9
:104C7000F80200204F5320546D72204D75746578F2
:104C8000000000002874002074B700087CB70008FA
:104C900050B700086CB7000878B70008D54C00087A
:104CA00075432F4F532D4949492054696D65722032
:104CB0005461736B00000000587400200EB502A808
:104CC00001AB0022114600900148FDF709FC0EBD22
:104CD000287400201CB53FE001AB6A46002108465D
:104CE000FEF7B2F8FFF7EAFFFCF7D4FB06461B48D5
:104CF0000068401C19490860194804681FE001A8B1
:104D0000FDF7F4FDD4F81080A069401EA061A069F1
:104D100080B9A08C022802D1206AA06105E020465B
:104D200000F022F8032084F82600A56815B120467B
:104D3000E168A847444601A8FDF70AFE00BF002C21
:104D4000DDD1FCF7A7FB871B06480068B84201D2FB
:104D50000448076000F02AF8BEE70000FC020020CB
:104D6000F0020020F802002010B50E4B1B688342B1
:104D700006D101690B4B196039B100234B6104E086
:104D8000416902690A6102B15161012380F826304C
:104D9000002303614361044B1B885B1E024C23808C
:104DA00010BD0000F0020020EC02002008B56A46A9
:104DB00000210248FDF78AFC08BD0000287400208D
:104DC0002DE9F0414FF0A04040694FF0A0418969C2
:104DD00000EA010606F4805070B103F07FF906F096
:104DE00025F8F948006810B1F748006880474FF48B
:104DF00080504FF0A041486106F4006060B103F0BC
:104E0000DFFAF248006810B1F048006880474FF4BC
:104E100000604FF0A041486106F0004060B103F02F
:104E20002BFAEB48006810B1E948006880474FF062
:104E300000404FF0A041486106F40050A8B3E54897
:104E4000006820F00300E34908604020082804D0EF
:104E5000102809D0202815D10DE0DE48006840F068
:104E60000300DC4908600DE0DA48006840F0020009
:104E7000D849086006E0D748006840F00100D549ED
:104E8000086000BF00BFD348FC38006840F4807061
:104E9000D049FC3908600846006840F4806008602A
:104EA0004FF400504FF0A041486106F0080048B1AF
:104EB000C948006810B1C8480068804708204FF012
:104EC000A041486106F0100088B34FF0A040D0F830
:104ED0001C8008F00F04C8F3434002280BD00628BA
:104EE00030D1BE4850F8240020B1BC4850F82410FE
:104EF000022088472AE04FF0A040806920F010008F
:104F00004FF0A0418861B648E10050F82100C0F39D
:104F1000814001280CD1B3490860B34850F82410EF
:104F2000204602F07BFC0020AE49086009E00EE05C
:104F3000AA4850F8240020B1A84850F824100420B2
:104F4000884703E04FF0A040006A00BF00BF06F4AE
:104F5000002000287DD09F48E83800689D49E4394A
:104F6000096808404FF6FF7101EA104700259CE0F0
:104F700000240AE027FA05F000F0010020B12C46D9
:104F80000120A840874302E06D1C022DF2D300BF30
:104F900093480830E10050F8210000F00200E8B327
:104FA0008F48E10050F82100C0F3814001282DD145
:104FB0008E4850F8240040F4002189481030E20067
:104FC00040F8221002F062F800F0010050B184486D
:104FD000E10050F8210040F080518148E20040F8A3
:104FE000221009E07E48E10050F8210040F0005115
:104FF0007B48E20040F822107948E10050F8210097
:1050000040F004417648E20040F82210744808302D
:10501000E10050F8210040F0020100E004E0704897
:105020000830E20040F822106D480830E10050F8E6
:10503000210000F001006A490831E20051F8221015
:1050400001F00801084380B36548E10050F82100F1
:1050500000E02DE0C0F3814001281AD0634850F8E9
:10506000240040F400215E481030E20040F8221095
:105070002CB9006840F00050594910310860584878
:10508000E10050F8210040F004415548E20040F8AA
:10509000221053480830E10050F8210040F001018F
:1050A0004F480830E20040F82210002F7FF460AF34
:1050B00006F4802000287DD04648E838006845493D
:1050C000E4390968084087B20025DBE000240AE0E3
:1050D00027FA05F000F0010020B12C460120A8407D
:1050E000874302E06D1C022DF2D300BF394808301F
:1050F000E10050F8210000F0020060B302213548C1
:105100000830E20040F822103248E10050F8210057
:10511000C0F3814001281ED1A040354909680840EC
:10512000C8B144F0800001F093FF012031490860CC
:10513000314850F82420314850F82410204603F01C
:1051400041F900202B4908600120A0402849096846
:105150008143274801601F480830E10050F82100D2
:1051600000F0400038B31B48E10050F82100C0F3C4
:105170008140012856D0214850F8240018B301205E
:10518000A0401F4909680840E8B10120194908609A
:10519000194850F82420194850F82410204603F0EC
:1051A00011F90020134908601548006850B90948F2
:1051B000F03801E069E035E0006820F04000054982
:1051C000F03908605EE01DE078B500087CB50008A5
:1051D00080B500080009005088B5000890B50008A7
:1051E000000B005008020020BC600020E0010020FD
:1051F0000C02002004020020CC600020F0010020FE
:10520000000200208048E10050F8210040F0806159
:105210007D48E20040F8221040217B480830E2003F
:1052200040F8221078480830E10050F8210000F0E2
:10523000010030B3012174480830E20040F8221028
:105240000120724908607048E10050F82100C0F365
:105250008140012809D16E4850F824206D4850F84B
:105260002410204603F0AEF808E06B4850F8240004
:1052700020B1694850F8241008208847002063496D
:10528000086000BF002F7FF421AF06F40040D0B3C8
:1052900001246BE06148E10050F82100C0F3814037
:1052A000012800D061E05D48E10050F82100C0F322
:1052B000C03000B959E04FF0A040406900F4001040
:1052C00010B301F0E3FE00F001015448E20050F891
:1052D0002200C0F30040814246D15048E10050F81E
:1052E000210000F00040E0B30020494941F82400CB
:1052F0004A48E10050F8210040F080414748E20070
:1053000040F8221030E038E0454850F8240040F4DE
:10531000002142481030E20040F8221001F0B6FEB1
:1053200000F0010050B13D48E10050F8210040F08C
:1053300080513A48E20040F8221009E03748E10085
:1053400050F8210040F000513448E20040F82210AB
:105350003248E10050F8210040F004412F48E200BB
:1053600000E001E040F8221000BF641C012C91D93C
:105370004FF402104FF0A041486106F48010E8B3EA
:105380004FF480104FF0A0414861012438E01E48DE
:10539000E10050F82100C0F38140012800D02CE04A
:1053A0001948E10050F82100C0F3C03000B924E0F2
:1053B0001548E10050F8210000F00040E0B101F094
:1053C00065FE00F001011048E20050F82200C0F331
:1053D0000040814210D10120A040124909680843D1
:1053E000104908600848E10050F8210040F0904161
:1053F0000548E20040F8221000BF00E002E0641C13
:10540000022CC4D3BDE8F081000900500402002042
:10541000CC600020F001002090B50008000B005087
:10542000E00100200C02002010B5FCF739F805F06F
:1054300031FA10BD00B587B00121062000F004FD4F
:1054400001210E2000F0F0FC1D208DF80400012049
:105450008DF805008DF806008DF8070001A8FCF70F
:105460008FFE1E208DF8040001208DF805008DF8B8
:1054700006008DF8070001A8FCF782FEC020059009
:1054800002208DF8180003208DF8190000208DF8F7
:105490001A0002208DF81B0005A99548FCF732FA86
:1054A0000320059002208DF8180003208DF81900C4
:1054B00000208DF81A0002208DF81B0005A98D48E8
:1054C000FCF720FA022206218948FCF763FA02223F
:1054D00007218748FCF75EFA022200218548FCF785
:1054E00059FA022201218348FCF754FA53208249D9
:1054F00008800020ADF808000A20ADF80A0001205D
:10550000ADF80C000020ADF80E00ADF8100002A9B7
:105510007948283800F07DFE0420ADF808000A2004
:10552000ADF80A000120ADF80C000020ADF80E0027
:10553000ADF8100002A97048283800F06AFE082073
:10554000ADF808000A20ADF80A000120ADF80C0003
:105550000020ADF80E00ADF8100002A9664828380A
:1055600000F057FE0C20ADF808000A20ADF80A0044
:105570000120ADF80C000020ADF80E00ADF81000D1
:1055800002A95D48283800F044FE01215A48283815
:1055900000F018FE012202215748283800F070FE62
:1055A000012204215448283800F06AFE0122082113
:1055B0005148283800F064FE012210214E48283856
:1055C00000F05EFE4FF47040059002208DF8180048
:1055D00003208DF8190000208DF81A0002208DF8A4
:1055E0001B0005A94548FCF78DF902220C21434810
:1055F000FCF7D0F902220D214048FCF7CBF902223A
:105600000E213E48FCF7C6F902220F213B48FCF769
:10561000C1F953203A4908800020ADF808000A205B
:10562000ADF80A000120ADF80C000020ADF80E0026
:10563000ADF8100002A93248283800F0EAFD042035
:10564000ADF808000A20ADF80A000120ADF80C0002
:105650000020ADF80E00ADF8100002A92848283847
:1056600000F0D7FD0820ADF808000A20ADF80A00C8
:105670000120ADF80C000020ADF80E00ADF81000D0
:1056800002A91F48283800F0C4FD0C20ADF808001E
:105690000A20ADF80A000120ADF80C000020ADF89A
:1056A0000E00ADF8100002A91548283800F0B1FD31
:1056B00001211348283800F085FD012202211048FD
:1056C000283800F0DDFD012204210D48283800F0C3
:1056D000D7FD012208210A48283800F0D1FD012217
:1056E00010210748283800F0CBFD07B000BD0000AE
:1056F000000802400004024028040040000C024060
:105700002808004070B58AB00646002542F21070A5
:1057100006FB00F407A800F069FF02A800F0EDFE08
:105720000CB9012004E0A848844200D900E02046DA
:1057300004460121082000F087FB0121022000F02F
:10574000A3FB0121084600F09FFB0121152000F07A
:105750006BFB0C20009002208DF8040003208DF8D4
:10576000050000208DF8060001208DF8070069462D
:105770009648FCF7C7F8022211469448FCF70AF94C
:10578000022203219148FCF705F99148006840087E
:10579000B0FBF4F0401E85B242F210700890ADF8F4
:1057A0001C500020ADF82400ADF81E0007A9894860
:1057B00000F0DAFE6020ADF808000020ADF814001B
:1057C0000120ADF80A004FF47A60049002A98148E4
:1057D00000F0F0FD08217F4800F03CFE0120ADF80C
:1057E0000A004FF47A60049002A97A4800F03CFE67
:1057F0000821784800F074FE0121764800F0D6FCBC
:105800000121744800F0DEFC4FF4D44000900220E7
:105810008DF8040003208DF8050000208DF80600A7
:1058200001208DF8070069466B48FCF76BF80122F0
:1058300009216948FCF7AEF801220B216648FCF704
:10584000A9F801220D216448FCF7A4F801220E21D9
:105850006148FCF79FF85E480068B0FBF4F0401E1A
:1058600085B242F210700890ADF81C500020ADF8DF
:105870002400ADF81E008DF8260007A9574800F057
:1058800073FE6020ADF808000020ADF80C00ADF804
:1058900014000820ADF816004001ADF818000020F3
:1058A000ADF81A000120ADF80A004FF47A600490B8
:1058B00002A94A4800F0EEFC4FF47A60049002A975
:1058C000464800F025FD4FF47A60049002A9434851
:1058D00000F070FD4FF47A60049002A93F4800F098
:1058E000C3FD01213D4800F079FC01213B4800F057
:1058F0005DFC0121394800F065FC4FF440700090D8
:1059000002208DF8040003208DF8050000208DF89A
:10591000060001208DF8070069463148FBF7F2FFC9
:10592000032208212E48FCF735F8032209212C48D0
:10593000FCF730F826480068B0FBF4F0401E85B252
:1059400042F210700890ADF81C500020ADF8240011
:10595000ADF81E008DF8260007A9224800F004FECD
:105960006020ADF808000020ADF80C00ADF8140080
:105970000820ADF816004001ADF818000020ADF881
:105980001A004FF47A60049002A9164800F012FD44
:105990004FF47A60049002A9124800F065FD0121DD
:1059A000104800F01BFC01210E4800F0FFFB012114
:1059B0000C4800F007FC0448844202D900200AB0D9
:1059C00070BD0120FBE7000000BD010500000240A2
:1059D00020020020000C00400010024000000140A6
:1059E000000802400004014010B500F00FF8044622
:1059F000002C04DA00F0A6F801200349087000F03A
:105A0000AFF9FFF711FD10BD5D00002038B5012290
:105A100040A1414804F0C6F80446C4B10022114632
:105A20003CA003F07DFD044614B14FF0FF3038BDBB
:105A3000002238A1384804F0B5F804463CB10022F1
:105A400034A1104604F0AEF86FF00100EFE733A187
:105A5000334804F087F904463CB100222DA11046DA
:105A600004F0A0F86FF00200E1E701222DA1304818
:105A700004F0C6F804463CB1002226A1104604F00A
:105A800091F86FF00300D2E76B464022294928487D
:105A900004F09FF90446009878B3254803F030FDE0
:105AA000012225A1224804F0ABF804463CB10022B3
:105AB00018A1104604F076F86FF00300B7E76B46C4
:105AC000C0221F491A4804F084F90446009848B1DE
:105AD000174803F015FD00220EA1104604F062F8ED
