:020000040800F2
:10000000E8BF0020650200080F74000879020008AC
:10001000F9710008352E000861E7000800000000B3
:1000200000000000000000000000000065BA0008A9
:10003000F33E0008000000007D050008F985000877
:100040008902000889020008890200088902000864
:100050008902000889020008890200088902000854
:100060008902000889020008890200088902000844
:100070008902000889020008890200088902000834
:100080008902000889020008890200088902000824
:100090008902000889020008890200088902000814
:1000A0008902000889020008890200088902000804
:1000B000890200087FBD000887BD0008890200088A
:1000C00089020008890200088902000889020008E4
:1000D00089020008C5C300084DC400088902000851
:1000E00089020008890200088902000889020008C4
:1000F00089020008890200088902000889020008B4
:1001000089020008890200088902000889020008A3
:10011000B3C30008BBC300088902000889020008B5
:100120008902000889020008890200088902000883
:100130008902000889020008890200088902000873
:100140008902000889020008890200083DA0000811
:100150008902000889020008890200088902000853
:100160008902000889020008890200088902000843
:100170008902000889020008890200088902000833
:10018000890200088902000800F002F800F05AF81D
:100190000AA090E8000C82448344AAF10107DA45E2
:1001A00001D100F04FF8AFF2090EBAE80F0013F0DA
:1001B000010F18BFFB1A43F0010318474C38010028
:1001C0006C3801000A444FF0000C10F8013B13F0AA
:1001D000070408BF10F8014B1D1108BF10F8015BA0
:1001E000641E05D010F8016B641E01F8016BF9D193
:1001F00013F0080F1EBF10F8014BAD1C0C1B09D1EA
:100200006D1E58BF01F801CBFAD505E014F8016B5B
:1002100001F8016B6D1EF9D59142D6D370470000ED
:100220000023002400250026103A28BF78C1FBD8FF
:10023000520728BF30C148BF0B6070471FB51FBDB4
:1002400010B510BD00F024F91146FFF7F7FF11F0CB
:10025000EBFB00F042F903B4FFF7F2FF03BC0EF032
:10026000DDFE00000C48016841F4700101600B489C
:1002700080470B480047FEE7FEE7FEE7FEE7FEE7A4
:10028000FEE7FEE7FEE7FEE7FEE700000548064959
:10029000044A064B7047000088ED00E001BC0008EE
:1002A00089010008E8BB0020E8BF0020E8BB00206F
:1002B00072B6704762B67047EFF3108072B670473F
:1002C00080F31088704730BF704720BF7047B0FA86
:1002D00080F0704790FAA0F0B0FA80F0704790FA82
:1002E000A0F07047704710B5431C02E010F8011BE6
:1002F00071B18107FAD14FF0013202C88C1A8C43D8
:1003000014EAC211F9D0C01A0A0603D0C01E10BDEB
:10031000C01A10BD0A0401D0801E10BD0902FCD015
:10032000401E10BD032A40F2308010F0030C00F094
:10033000158011F8013BBCF1020F624498BF11F81F
:1003400001CB00F8013B38BF11F8013BA2F10402D8
:1003500098BF00F801CB38BF00F8013B11F0030350
:1003600000F05B80083AC0F0088051F8043B083A7E
:1003700051F804CBA0E80810F5E7121D5CBF51F856
:10038000043B40F8043BAFF30080D20724BF11F8D0
:10039000013B11F801CB48BF11F8012B24BF00F835
:1003A000013B00F801CB48BF00F8012B70474FF02C
:1003B000000200B5134694469646203922BFA0E8B5
:1003C0000C50A0E80C50B1F12001BFF4F7AF0907C1
:1003D00028BFA0E80C5048BF0CC05DF804EB8900B2
:1003E00028BF40F8042B08BF704748BF20F8022BF5
:1003F00011F0804F18BF00F8012B7047704770470D
:100400007047704710B500F03BF8006810BD10B59C
:10041000044600F035F8046010BD10B5203AC0F075
:100420000B80B1E81850203AA0E81850B1E81850F5
:10043000A0E81850BFF4F5AF5FEA027C24BFB1E832
:100440001850A0E8185044BF18C918C0BDE81040A3
:100450005FEA827C24BF51F8043B40F8043B08BFAC
:100460007047D20728BF31F8023B48BF11F8012B73
:1004700028BF20F8023B48BF00F8012B704700005E
:100480000048704784BB00200048704784BB0020B0
:100490007546FFF7F9FFAE4605006946534620F062
:1004A0000700854618B020B5FFF7F0FEBDE82040F4
:1004B0004FF000064FF000074FF000084FF0000B20
:1004C00021F00701AC46ACE8C009ACE8C009ACE8D3
:1004D000C009ACE8C0098D46704710B50446AFF3BB
:1004E00000802046BDE81040FFF7B5BE72B64EF65C
:1004F0002250CEF2000040F2FF01C0F20001017074
:100500004FF0000080F3098807F0B4FF40F6780050
:10051000C2F20000016881F3088840F2FE70C2F266
:10052000000040F2FF71C2F200010A78027040F64A
:100530007005C2F2000540F67401C2F200010A68BB
:100540002A60106880F30988EFF3148040F00200FD
:1005500080F31488BFF36F8FBDE8F00F0FBCBDE8C8
:10056000005006BC62B6084718484FF08051016041
:10057000704716484FF080510160704772B6EFF334
:10058000098020E9F00F40F67005C2F200052E68E0
:100590003060744607F06EFF40F2FE70C2F2000059
:1005A00040F2FF71C2F200010A78027040F6740155
:1005B000C2F200010A682A6044F0F40E1068B0E844
:1005C000F00F80F3098862B67047000004ED00E088
:1005D00070B59B48007800287ED09A48B0F900009A
:1005E000002803DD9748B0F9000003E09548B0F912
:1005F00000004042B0F5C87F6FDA9248B0F90200BF
:10060000002803DD8F48B0F9020003E08D48B0F9FF
:1006100002004042B0F5C87FEEDA8A48B0F9040023
:10062000002803DD8748B0F9040003E08548B0F9ED
:1006300004004042B0F5C87FDEDA8249B1F900001B
:1006400012F096FD044680480168204612F0BCFE78
:1006500005D27C49B1F9000012F08AFD01E07A4828
:100660000068794908607749B1F9020012F080FD0D
:10067000044675484168204612F0A6FE05D271492D
:10068000B1F9020012F074FD01E06F4840686E4954
:1006900048606C49B1F9040012F06AFD04466A48EA
:1006A0008168204612F090FE05D26649B1F9040037
:1006B00012F05EFD01E0644880686349886061492A
:1006C000B1F9000012F054FD04466048016820466C
:1006D00012F07AFD08D201E0B0E0AAE05949B1F980
:1006E000000012F045FD01E05848006857490860D5
:1006F0005449B1F9020012F03BFD044653484168E9
:10070000204612F061FD05D24E49B1F9020012F007
:100710002FFD01E04D4840684C4948604949B1F916
:10072000040012F025FD044648488168204612F076
:100730004BFD05D24349B1F9040012F019FD01E067
:10074000424880684149886041480088B0F5FA6FA6
:100750006FD10A4611683C4A106812F069FB0646E0
:100760004FF07C5112F064FD054612F0C5FC04B256
:10077000204612F0FDFC33498860344A5168324A01
:10078000506812F055FB06464FF07C5112F050FDB8
:10079000054612F0B1FC04B2204612F0E9FC2949EA
:1007A000C8602A4A9168284A906812F041FB0646C0
:1007B0004FF07C5112F03CFD054612F09DFC04B256
:1007C000204612F0D5FC1F490861204A11681E4AD4
:1007D000106812F035FE1F4908601C4A51681A4A19
:1007E000506812F02DFE1B494860184A9168164A5D
:1007F000906812F025FE174988600A465168106813
:1008000012F084FB0F498861124A9168106812F057
:100810007DFB0C49C86101F108000AF0EFFC0020E3
:100820000B4908800649087003200B490870012015
:10083000487007480088401C0549088070BD0000CA
:100840005D06002030060020600600206C060020B7
:1008500078060020F09F00208412002010B500F0E0
:1008600001F810BD1FB50020394908706A46032100
:100870000C2004F07BFC0DF1010204210C2004F09B
:1008800075FC9DF800009DF8011040EA012000B2BF
:10089000ADF80A000DF1020205210C2004F066FCFF
:1008A0000DF1030206210C2004F060FC9DF802000B
:1008B0009DF8031040EA012000B2ADF8080001AA3B
:1008C00007210C2004F052FC0DF1050208210C2038
:1008D00004F04CFC9DF804009DF8051040EA01204E
:1008E000404200B2ADF80C00BDF80800194908807C
:1008F000BDF80A004880BDF80C008880B1F90000FE
:1009000012F036FC044613488168204612F098FD28
:1009100010490862B1F9020012F02AFC04460D48A1
:10092000C168204612F08CFD0A494862B1F9040002
:1009300012F01EFC044607480169204612F080FDB3
:1009400004498862FFF744FE00F006F81FBD00006E
:100950007A0600203006002010B501220A210C2062
:1009600004F062FC08B1012010BD0020FCE700008B
:100970002DE9F04F87B0FE480078FE49097890FBDA
:10098000F1F201FB1201FB480078401E814202D1C6
:100990000120F9494871F6480078F849097890FB38
:1009A000F1F201FB1201F5480078401E814202D1AC
:1009B0000120F1498871EE480078F149097890FBEF
:1009C000F1F201FB1201EE480078801E814202D153
:1009D0000120E9494874E6480078EA49097890FB23
:1009E000F1F201FB1201E7480078401E814202D17A
:1009F0000120E1490871DE480078E349097890FB5D
:100A0000F1F201FB1201E0480078401E814202D160
:100A10000120D9494873D6480078DC49097890FB11
:100A2000F1F201FB1201D9480078801E814202D107
:100A30000120D149C873CE480078D549097890FB88
:100A4000F1F201FB1201D2480078801E814202D1EE
:100A50000120C9490874C6480078CE49097890FB3E
:100A6000F1F201FB1201CB480078C01E814202D195
:100A70000120C1498874BE480078C749097890FBB5
:100A8000F1F201FB1201C4480078C01E814204D17A
:100A9000B948C07C401CB849C874B5480078401CAF
:100AA000C0B2B3490870C82801DD00200870B24800
:100AB000007838B1B04A5178107800F01BFF002060
:100AC000AD490870AC48807848B10020AA498870C8
:100AD000B2480178B248007800F0B8FDD6E1A648E7
:100AE000C07860B10020A449C8704FF4C873642274
:100AF0004FF496710090042001F014FCC6E19E486A
:100B00000079D0B100209C490871A648016CA64824
:100B100012F08EFB054612F0EFFA0446A348007867
:100B200000212346CDE90010A1480268A1480168D0
:100B3000A148006801F090FAA8E18F48807C48B194
:100B400000208D4988749D4800210268084601F004
:100B50000FFA9BE18848407C28B100208649487400
:100B600001F01CFB92E184484079E8B300208249FF
:100B700048719349886A12F0BFFA04B29049486AF2
:100B800012F0BAFA05B28E49086A12F0B5FA06B246
:100B90008C49486A12F0B0FA07B28A49086A12F022
:100BA000ABFA0FFA80F88749C86912F0A5FA0FFA74
:100BB00080F98449886912F09FFA0FFA80FA814916
:100BC000486912F099FA0FFA80FB7E49086912F021
:100BD00093FA00B24B4652465946CDE90087CDE91B
:100BE00002650494069000E002E001F0A3F84DE1F4
:100BF0006148807950B100205F498871724A12883B
:100C000091B2724A106801F063F93FE15A48407BA3
:100C1000A8B300205849487340F2DC526C48C089A0
:100C200000F2DC5080B26A49898901F2DC5189B254
:100C3000CDE90302664805920291408900F2DC503A
:100C400080B26349098901F2DC5189B2604CCDE977
:100C50000010648804F2DC54A3B25D4C248804F2D2
:100C6000DC54A2B25A4CE48804F2DC54A1B2584CD1
:100C7000A48804F2DC54A0B200F0AAFF06E1FFE76A
:100C80003D48C07BA8B100203B49C873009001904B
:100C90000290504C0390E488A3B24E4CA488A2B2B8
:100CA0004C4C6488A1B24B4C2488A0B200F08CFD5F
:100CB000ECE03148007C40B100202F4908744FF42B
:100CC000E4717B2000F03EFFE0E02B48C079C0B12A
:100CD00000202949C8714048826FC36F416F806E00
:100CE00002AC0BC405923C48C06E3B49496ECDE94D
:100CF00000103948836DC26D416D012000F01CFE6B
:100D0000C4E01D48007AC0B100201B490872334876
:100D1000816FC36F426F806E02AC0DC405912F4886
:100D2000C06E2E49496ECDE900102C48836DC26D0E
:100D3000416D022000F000FEA8E00F48407AA8B103
:100D400000200D4948722648D0F88410D0F8880059
:100D5000234AD2F88020224B5B6FCDE90232CDE9E5
:100D600004011F48806F1E49096F3BE044E000000A
:100D7000C0000020C100002084120020C20000201A
:100D8000C3000020C4000020C5000020C6000020D1
:100D9000C7000020C8000020C9000020BD000020BE
:100DA000BC0000203C100020CDCCCC3DBC05002078
:100DB000400100203C010020380100208800002074
:100DC0003006002008A000200CA2002098A10020DE
:100DD000E8350020AC0000208010002044110020E5
:100DE000B4140020CDE900102B48436E826E016ED2
:100DF000032000F0A1FD49E02848807A98B1002046
:100E0000264988720290039004900590009001900A
:100E10002148D0F89430D0F89820D0F890100420D1
:100E200000F08AFD32E01D48C07A78B100201B49ED
:100E3000C872029003900490059000900346024609
:100E400001460190052000F077FD1FE01348007B6C
:100E500078B1002011490873029003900490059026
:100E600000900346024601460190062000F064FD12
:100E70000CE00A48C07C022808D100200749C87449
:100E8000034602460146009000F010FC0DF082FD82
:100E900007B0BDE8F08F0000B414002084120020D9
:100EA0002DE9F04704468A464FF00009002005E08E
:100EB000215C494401F0FF09411CC8B2AAF10101BB
:100EC0008142F5DC04EB0A0010F8010C484501D022
:100ED000BDE8F0872078AA2802D16078AF2800D03A
:100EE000F6E7A078012822D12079012802D1FE4915
:100EF00008701CE02079022803D10120FA494870CB
:100F000015E02079032804D10120F74908704870C2
:100F10000DE02079042803D10120F449087006E08F
:100F20002079212802DB2079262800DD00BFA07867
:100F3000022814D12079012806D1ED49C871087220
:100F400048728872C87208732079A02802D10120E3
:100F5000E749C8702079A12801D10AF013F8A078D8
:100F6000032836D1E3480078012802D0022002F09D
:100F7000D9FF2079617941EA0020DF498880A07992
:100F8000E17941EA0020DC49C880207A617A41EAAF
:100F90000020D9490880A07AE17A41EA0020D649A8
:100FA0004880207B617B41EA0020D3490881A07BF7
:100FB000E17B41EA0020D0494881207C617C41EA04
:100FC0000020CD498881A07CE17C41EA0020CA490B
:100FD000C881A07810287CD12179090209B26279F0
:100FE00041EA020011F020FC0746C44AC44B11F04C
:100FF00033FC054611F0DEF9C2494865A1790902C2
:1010000009B2E27941EA020011F00EFC0746BB4A40
:10101000BB4B11F021FC054611F0CCF9B949C8656C
:10102000217A090209B2627A41EA020011F0FCFB5E
:101030000746B24AB24B11F00FFC054611F0BAF95F
:10104000B0498865A17A090209B2E27A41EA020050
:1010500011F0EAFB0746A94AA94B11F0FDFB054632
:1010600011F0A8F9A7494866217B090209B2627B01
:1010700041EA020011F0D8FB0746A04AA04B11F04C
:10108000EBFB054611F096F901469E48C166A17B2F
:10109000090209B2E27B41EA020011F0C5FB0746F2
:1010A000964A974B11F0D8FB054611F083F901469B
:1010B00094488166217C090209B2627C41EA0200FF
:1010C00011F0B2FB07468D4A8D4B11F0C5FB05466A
:1010D00000E03AE011F06EF98A494867A17C090204
:1010E00009B2E27C41EA020011F09EFB0746834A06
:1010F000834B11F0B1FB054611F05CF901468148C4
:10110000C167217D090209B2627D41EA020011F046
:101110008BFB0746794A7A4B11F09EFB054611F08E
:1011200049F90146774881677148807840B90120C4
:101130006F498870A07874490870744880F80090EE
:1011400009F0B0FA012072490880A07811287CD1FA
:101150002179090209B2627941EA020011F064FBC7
:101160000746664A664B11F077FB054611F022F9F7
:1011700068494865A179090209B2E27941EA0200A9
:1011800011F052FB07465D4A5D4B11F065FB0546C9
:1011900011F010F95F49C865217A090209B2627A33
:1011A00041EA020011F040FB0746544A544B11F04B
:1011B00053FB054611F0FEF856498865A17A0902ED
:1011C00009B2E27A41EA020011F02EFB07464B4ACF
:1011D0004B4B11F041FB054611F0ECF84D494866C8
:1011E000217B090209B2627B41EA020011F01CFB7B
:1011F0000746424A424B11F02FFB054611F0DAF840
:1012000001464448C166A17B090209B2E27B41EA7A
:10121000020011F009FB0746384A394B11F01CFB5C
:10122000054611F0C7F801463A488166217C09025B
:1012300009B2627C41EA020011F0F6FA07462F4A31
:101240002F4B11F009FB054600E03AE011F0B2F82F
:1012500030494867A17C090209B2E27C41EA0200F8
:1012600011F0E2FA0746254A254B11F0F5FA05463A
:1012700011F0A0F801462748C167217D090209B293
:10128000627D41EA020011F0CFFA07461B4A1C4B6F
:1012900011F0E2FA054611F08DF801461D4881670C
:1012A0001348807840B9012011498870A078164908
:1012B0000870164880F8009009F0F4F901201449EC
:1012C0000880A07812287DD12179090209B26279BB
:1012D00041EA020011F0A8FA0546084A084B11F04D
:1012E000BBFA074618E0000008A000205D060020B9
:1012F0008412002085050020CA120020FCA9F1D22A
:101300004D62503F80100020BC000020BD00002036
:10131000BE0000204411002011F04CF88A490866F4
:10132000A179090209B2E27941EA020011F07CFADE
:101330000546864A864B11F08FFA074611F03AF8B7
:1013400081498866217A090209B2627A41EA02007B
:1013500011F06AFA05467D4A7D4B11F07DFA074689
:1013600011F028F878494866A17A090209B2E27AB0
:1013700041EA020011F058FA0746744A744B11F022
:101380006BFA054611F016F86F490867217B0902D0
:1013900009B2627B41EA020011F046FA05466B4A47
:1013A0006B4B11F059FA074611F004F8664988674B
:1013B000A17B090209B2E27B41EA020011F034FA92
:1013C000054600E052E0614A614B11F045FA0746DC
:1013D00010F0F0FF5C494867217C090209B2627C89
:1013E00041EA020011F020FA0546584A584B11F024
:1013F00033FA074610F0DEFF5349C1F88000A17CA4
:10140000090209B2E27C41EA020011F00DFA074636
:101410004E4A4F4B11F020FA054610F0CBFF4A49D7
:10142000C1F88800217D090209B2627D41EA02000B
:1014300011F0FAF90546454A454B11F00DFA0746F9
:1014400010F0B8FF4049C1F884004248807840B9A4
:10145000012040498870A0783F4908703F4880F8D3
:10146000009009F01FF901203D490880A078132859
:1014700049D12179090209B2627941EA020011F0E9
:10148000D3F90546314A324B11F0E6F9074610F020
:1014900091FF2D49C1F89000A179090209B2E279C2
:1014A00041EA020011F0C0F90546284A284B11F024
:1014B000D3F9074610F07EFF2349C1F89800217A3E
:1014C000090209B2627A41EA020011F0ADF905465B
:1014D0001E4A1F4B11F0C0F9074610F06BFF1A4966
:1014E000C1F894001B48807840B9012019498870E0
:1014F000A07819490870194880F8009009F0D2F8CE
:10150000012017490880A07814280BD11148807851
:1015100040B901200F498870A0780F4908700F4822
:1015200080F80090A07815280BD10A48807840B93F
:10153000012008498870A07807490870074880F89A
:10154000009000BFC4E40000B4140020FCA9F1D254
:101550004D62503F84120020BC000020BD000020DE
:10156000BE00002010B504463448007838B9AA2CD3
:1015700005D1012031490870314804705DE02F48E1
:101580000078012807D1AF2C05D102202B49087023
:101590002B48447051E029480078022807D1F12CEB
:1015A00005DA0320254908702548847045E0234862
:1015B000007803280CD1322C0ADA04201F49087065
:1015C0001F48C4701F48047000201F49087034E091
:1015D0001A480078042819D11A480078002815DD27
:1015E00018480078401E17490870174800781649B7
:1015F0000978491C144A1170001D11490C541148F6
:101600000078D0B905200D49087016E00B48007825
:1016100005280FD10020094908700B480078001DEB
:1016200007490C5408480078401DC1B20448FFF730
:1016300037FC02E000200149087010BDCC000020FA
:10164000DA120020CA000020CB00002070B504464A
:101650000D46AA200D4908704870EF2088700220BE
:10166000C8700846047145710026002005E007494E
:10167000095C3144CEB2411CC8B20628F7DB0348EE
:101680008671072100F004F870BD00009812002058
:1016900070B505460C46214603480DF05DF921461C
:1016A00001480DF033F970BD981200202DE9FC5F60
:1016B00005460E4617469846DDF830A00024AA22BB
:1016C0002146641C3E4842542146641C4254042274
:1016D0002146641C425400222146641C4254214687
:1016E000641C45542146641C465400979DF8032011
:1016F0002146641C42549DF802202046611CCCB255
:101700002F490A549DF801202046611CCCB22C4977
:101710000A549DF800202046611CCCB228490A5486
:10172000CDF800809DF803202046611CCCB22449EE
:101730000A549DF802202046611CCCB220490A546C
:101740009DF801202046611CCCB21D490A549DF829
:1017500000202046611CCCB219490A545146194850
:1017600011F066FD834611F0C7FC00B201909DF8B0
:1017700005202046611CCCB211490A549DF8042072
:101780002046611CCCB20E490A54201FC8704FF08D
:101790000009002006E00A49095C494401F0FF09FC
:1017A000411CC8B2A042F6DB2046611CCCB2044901
:1017B00001F8009021460248FFF76AFFBDE8FC9F50
:1017C000981200200000C8427FB50024AA222146BA
:1017D000641C474842542146641C42540622214658
:1017E000641C425400222146641C42549DF801208E
:1017F0002146641C42549DF800202146641C42543A
:101800009DF805202146641C42549DF80420204682
:10181000611CCCB236490A549DF809202046611C4F
:10182000CCB233490A549DF808202046611CCCB242
:101830002F490A549DF80D202046611CCCB22C493A
:101840000A549DF80C202146601CC4B2284842541A
:101850009DF821202046611CCCB225490A549DF8F0
:1018600020202046611CCCB221490A549DF8252035
:101870002046611CCCB21E490A549DF82420204603
:10188000611CCCB21A490A549DF829202046611CDB
:10189000CCB217490A549DF828202046611CCCB2CE
:1018A00013490A549DF82D202046611CCCB21049E2
:1018B0000A549DF82C202046611CCCB20C490A54D5
:1018C000201FC8700025002005E00949095C294453
:1018D000CDB2411CC8B2A042F7DB2046611CCCB29D
:1018E00003490D5421460248FFF7D2FE7FBD000098
:1018F0009812002070B504460D46AA200D490870C4
:101900004870EE2088700220C87008460471457146
:101910000026002005E00749095C3144CEB2411C95
:10192000C8B20628F7DB034886710721FFF7B0FE2F
:1019300070BD0000981200202DE9FC5F05460E46A0
:1019400017469846DDE90CAB0024AA222146641C08
:101950007A4842542146641C425405F10F00C2B239
:101960002146641C7548425400222146641C42549E
:101970007349304611F05CFC009011F0BDFB00B2E1
:1019800001909DF805202146641C6C4842549DF846
:1019900004202146641C42546949384611F048FC31
:1019A000009011F0A9FB00B201909DF8052021469E
:1019B000641C624842549DF804202046611CCCB24D
:1019C0005E490A545E49404611F032FC009011F025
:1019D00093FB00B201909DF805202146601CC4B223
:1019E000564842549DF804202046611CCCB253490D
:1019F0000A545349504611F01BFC009011F07CFB37
:101A000000B201909DF805202046611CCCB24B49E4
:101A10000A549DF804202046611CCCB247490A5460
:101A20004749584611F004FC009011F065FB00B2E4
:101A300001909DF805202046611CCCB23F490A5414
:101A40009DF804202046611CCCB23C490A543C4914
:101A50000E9811F0EDFB009011F04EFB00B20190DA
:101A60009DF805202046611CCCB234490A549DF8EB
:101A700004202046611CCCB230490A5430490F98EA
:101A800011F0D6FB009011F037FB00B201909DF8E9
:101A900005202146601CC4B2284842549DF8042009
:101AA0002046611CCCB225490A542549109811F0F2
:101AB000BFFB009011F020FB00B201909DF80520C3
:101AC0002046611CCCB21D490A549DF804202046D2
:101AD000611CCCB219490A541949119811F0A8FB9C
:101AE000009011F009FB00B201909DF805202046FE
:101AF000611CCCB211490A549DF804202046611C97
:101B0000CCB20E490A54201FC8704FF000090020C3
:101B100006E00A49095C494401F0FF09411CC8B2CA
:101B2000A042F6DB2046611CCCB2044901F80090CB
:101B300021460248FFF7ACFDBDE8FC9F981200204B
:101B400000007A44F8B505460E460024AA22214634
:101B5000641C1E4842542146641C425405222146FE
:101B6000641C425400222146641C425400959DF896
:101B700001202146641C42549DF800202146641C2B
:101B8000425400969DF801202146641C42549DF861
:101B900000202146601CC4B20C484254201F0B494F
:101BA000C8700027002005E00849095C3944CFB21D
:101BB000411CC8B2A042F7DB2046611CCCB20349ED
:101BC0000F5421460148FFF763FDF8BD981200202D
:101BD0007FB50024AA222146641C55484254214660
:101BE000641C425403222146641C425400222146B4
:101BF000641C42549DF801202146641C42549DF807
:101C000000202146641C42549DF805202146641C96
:101C100042549DF804202046611CCCB244490A5429
:101C20009DF809202046611CCCB241490A549DF818
:101C300008202046611CCCB23D490A549DF80D2075
:101C40002046611CCCB23A490A549DF80C2020462B
:101C5000611CCCB236490A549DF821202046611CF3
:101C6000CCB233490A549DF820202146601CC4B2EE
:101C70002F4842549DF825202046611CCCB22C49A7
:101C80000A549DF824202046611CCCB228490A54ED
:101C90009DF829202046611CCCB225490A549DF8A4
:101CA00028202046611CCCB221490A549DF82D20E1
:101CB0002046611CCCB21E490A549DF82C202046B7
:101CC000611CCCB21A490A549DF831202046611C8F
:101CD000CCB217490A549DF830202046611CCCB282
:101CE00013490A549DF835202046611CCCB2104996
:101CF0000A549DF834202046611CCCB20C490A5489
:101D0000201FC8700025002005E00949095C29440E
:101D1000CDB2411CC8B2A042F7DB2046611CCCB258
:101D200003490D5421460248FFF7B2FC7FBD000075
:101D3000981200202DE9F84F05460E4617469846A2
:101D4000DDE90AAB0024AA222146641C5F48425404
:101D50002146641C425402222146641C4254002243
:101D60002146641C425400959DF801202146641CC4
:101D700042549DF800202146641C425400969DF870
:101D800001202146641C42549DF800202146601C1D
:101D9000C4B24E48425400979DF801202046611C71
:101DA000CCB24A490A549DF800202046611CCCB2AE
:101DB00046490A54CDF800809DF801202046611C58
:101DC000CCB242490A549DF800202046611CCCB296
:101DD0003E490A54CDF800A09DF801202046611C20
:101DE000CCB23A490A549DF800202046611CCCB27E
:101DF00036490A54CDF800B09DF801202146601CF8
:101E0000C4B2324842549DF800202146601CC4B23E
:101E10002E4842540C9800909DF801202046611CE9
:101E2000CCB22A490A549DF800202046611CCCB24D
:101E300026490A540D9800909DF801202046611C07
:101E4000CCB222490A549DF800202046611CCCB235
:101E50001E490A540E9800909DF801202046611CEE
:101E6000CCB21A490A549DF800202046611CCCB21D
:101E700016490A54002000909DF801202046611C5C
:101E8000CCB212490A549DF800202046611CCCB205
:101E90000E490A54201FC8704FF00009002006E0C8
:101EA0000A49095C494401F0FF09411CC8B2A0423B
:101EB000F6DB2046611CCCB2044901F800902146B3
:101EC0000248FFF7E5FBBDE8F88F000098120020FC
:101ED00073B50024AA222146641C2448425421469A
:101EE000641C425407222146641C425400222146AD
:101EF000641C42549DF803202146641C42549DF802
:101F000002202146641C42549DF801202146641C95
:101F100042549DF800202046611CCCB213490A545B
:101F20009DF805202046611CCCB210490A549DF84A
:101F300004202046611CCCB20C490A54201FC870F2
:101F40000025002005E00949095C2944CDB2411C67
:101F5000C8B2A042F7DB2046611CCCB203490D5445
:101F600021460248FFF794FB7CBD00009812002038
:101F70002DE9F8430746884615460024AA22214643
:101F8000641C334842542146641C42540B222146AF
:101F9000641C425400222146641C42542D49384698
:101FA00011F046F9814611F0A7F800B200909DF8B3
:101FB00001202146641C264842549DF800202146F9
:101FC000641C42544146234811F032F9814611F015
:101FD00093F800B200909DF801202146641C1C4833
:101FE00042549DF800202046611CCCB218490A5486
:101FF0002946184811F01CF9814611F07DF800B20D
:1020000000909DF801202046611CCCB210490A5472
:102010009DF800202046611CCCB20D490A54201FB7
:10202000C8700026002005E00949095C3144CEB2A1
:10203000411CC8B2A042F7DB2046611CCCB2044967
:102040000E5421460248FFF723FBBDE8F883000049
:1020500098120020CDCCCC3D2DE9FE4F81460D4697
:1020600016461F46DDE90CAB00240197AA22214643
:10207000641C484842542146641C425401222146B3
:10208000641C425400222146641C42544249484682
:1020900011F0CEF8009011F02FF800B202909DF8E8
:1020A00009202146641C3B4842549DF808202146E3
:1020B000641C42543849284611F0BAF8009011F0D7
:1020C0001BF800B202909DF809202146641C31489B
:1020D00042549DF808202046611CCCB22D490A5478
:1020E0002D49304611F0A4F8009011F005F800B227
:1020F00002909DF809202046611CCCB225490A5463
:102100009DF808202046611CCCB222490A549DF853
:1021100007202046611CCCB21E490A549DF80620B7
:102120002046611CCCB21B490A549DF8052020466C
:10213000611CCCB217490A549DF804202046611C4A
:10214000CCB214490A542046611CCCB2114901F8A2
:1021500000A02046611CCCB20E4901F800B0201F3F
:10216000C8704FF00008002006E00A49095C4144AD
:1021700001F0FF08411CC8B2A042F6DB2046611CFA
:10218000CCB2044901F8008021460248FFF780FAEA
:10219000BDE8FE8F981200200000C842F8B5002468
:1021A000AA222146641C584842542146641C4254C9
:1021B000F1222146641C425400222146641C4254F0
:1021C0005249486810F098FF00B200909DF8012035
:1021D0002146641C4C4842549DF800202146641C52
:1021E00042544B48006810F087FF00B200909DF801
:1021F00001202146641C444842549DF8002020469A
:10220000611CCCB240490A544049C86810F074FFC0
:1022100000B200909DF801202046611CCCB23A49E2
:102220000A549DF800202046611CCCB236490A545D
:102230003849086910F060FF00B200909DF8012055
:102240002046611CCCB230490A549DF8002020463B
:10225000611CCCB22C490A542E49086C10F04CFF7A
:1022600000B200909DF801202046611CCCB22649A6
:102270000A549DF800202046611CCCB222490A5421
:102280002548008800EB8000400000B200909DF8D7
:1022900001202046611CCCB21B490A549DF8002045
:1022A0002046611CCCB218490A541C4881681C485D
:1022B00010F0BEFF064610F01FFF00B200909DF820
:1022C00001202046611CCCB20F490A549DF8002021
:1022D0002046611CCCB20C490A54201FC87000254E
:1022E000002005E00849095C2944CDB2411CC8B270
:1022F000A042F7DB2046611CCCB203490D542146B5
:102300000148FFF7C5F9F8BD9812002024100020FD
:10231000880000203C1000200CA20020F0130020B8
:1023200000401C467FB505460024AA222146641CB5
:102330002C4842542146641C425400222146641C0D
:1023400042542146641C42542146641C45549DF865
:1023500005202146641C42549DF804202146641C3B
:1023600042549DF809202046611CCCB21D490A54F4
:102370009DF808202046611CCCB21A490A549DF8E9
:102380000D202046611CCCB216490A549DF80C2041
:102390002046611CCCB213490A549DF821202046E6
:1023A000611CCCB20F490A549DF820202046611CC4
:1023B000CCB20C490A54201FC8700026002005E04A
:1023C0000849095C3144CEB2411CC8B2A042F7DBD7
:1023D0002046611CCCB203490E5421460148FFF748
:1023E00057F97FBD9812002010B502F0A7FD08F044
:1023F00041FA4FF4C87008F0A5FB0CF0C3FA04F0E2
:102400007BFE4FF4C87001F075FD142004F02EFC23
:1024100004F022F84FF4E1300FF072FE4FF4E13097
:102420000CF0FCF913480BF0E9FF08F0FDFC642008
:1024300001F060FD0CF08EF9FEF78EFA80F00100DD
:102440000D4908700D48007810B904F04DF80AE005
:102450000948007810B904F099F804E008480078B9
:1024600008B904F05DF804200CF06CFE01F036FDB4
:10247000012010BD20A107005C060020B40600204A
:10248000E60600202DE9FF4705460F46164663493C
:10249000304610F099FE01D2604807E060493046AE
:1024A00010F092FF01D25E4800E03046064685F00B
:1024B00000493946484610F0BBFC8046314610F0D2
:1024C000B7FC00903946284610F0B2FC80463146F1
:1024D00010F0B6FF01903946284610F0B1FF804653
:1024E000314610F0A5FC029085F000493946484677
:1024F00010F0A6FF8046314610F0A2FF03900024A2
:1025000024E05DF82400474910F05EFE01D2454802
:1025100009E05DF82400444910F056FF01D242481A
:1025200001E05DF824004DF824005DF824103F48D8
:10253000006810F07DFE80463D480168404610F07E
:1025400077FC3C4941F82400601CC4B2042CD8DB61
:1025500039480078002840D038480078F0B9002485
:1025600019E0344951F82400354910F02DFE01D20C
:1025700033480BE02F4951F824002B4910F024FF79
:1025800001D2294802E02B4850F82400294941F89B
:102590002400601CC4B2042CE3DB28E0002419E012
:1025A000244951F82400002110F00EFE01D2002031
:1025B0000BE0204951F824001B4910F005FF01D21F
:1025C000194802E01B4850F824001A4941F8240039
:1025D000601CC4B2042CE3DB09E0002405E0002009
:1025E000144941F82400601CC4B2042CF7DB002419
:1025F0000AE0104951F8240010F07EFD00B21149A4
:1026000021F81400601CC4B2042CF2DB4FF47A727F
:1026100000210C4809F028FABDE8FF870000C8C374
:102620000000C84300007AC400007A44A8000020DB
:10263000A000002054120020BC050020A4000020AF
:1026400000004843AC0000202DE9F04704468946CD
:102650004FF0000A002005E0215C514401F0FF0A20
:10266000411CC8B2A9F101018142F5DC04EB09006B
:1026700010F8010C504501D0BDE8F087A078512832
:1026800035D1207970B9607997490870A07940B246
:1026900096490870E07940B295490870207A9549CA
:1026A000087024E02079012821D160798E490870D2
:1026B000A079000200B2E17908438F490880207AAE
:1026C000000200B2617A08438C490880A07A0002B7
:1026D00000B2E17A08438A490880207B000200B2F8
:1026E000617B084387490880A07B82490870A078F5
:1026F000522811D1207930B9A079617940EA0120BE
:102700008149088008E02079012805D1A079617904
:1027100040EA01207D490880A078532859D12079CA
:1027200050BB6079000200B2A17908437849088063
:10273000E079000200B2217A084376490880607A85
:10274000000200B2A17A084373490880E07A0002CF
:1027500000B2217B084371490880607B000200B20F
:10276000A17B08436E490880E07B000200B2217C17
:1027700008436C4908802CE02079012829D1607930
:10278000000200B2A179084367490880E07900029D
:1027900000B2217A084365490880607A000200B2DD
:1027A000A17A084362490880E07A000200B2217BE6
:1027B000084360490880607B000200B2A17B0843A7
:1027C0005D490880E07B000200B2217C08435B4940
:1027D0000880A078542837D12079B0BB61790902EC
:1027E00009B2A27941EA020010F01EF80746544AE5
:1027F000544B10F031F805460FF0DCFD52490860EB
:10280000E179090209B2227A41EA020010F00CF8DB
:1028100007464B4A4B4B10F01FF805460FF0CAFD18
:102820004A490860617A090209B2A27A41EA0200C3
:102830000FF0FAFF0746424A424B10F00DF80546EA
:102840000FF0B8FD424908604BE0FFE7207901280E
:1028500047D16179090209B2A27941EA02000FF079
:10286000E3FF05463B4A3C4B0FF0F6FF07460FF0EF
:10287000A1FD3A490860E179090209B2227A41EAE8
:1028800002000FF0D1FF0546324A334B0FF0E4FF50
:1028900007460FF08FFD32490860617A090209B2DC
:1028A000A27A41EA02000FF0BFFF0546294A2A4BEF
:1028B0000FF0D2FF07460FF07DFD2A490860E17A4C
:1028C000090209B2227B41EA02000FF0ADFF054682
:1028D000204A214B0FF0C0FF07460FF06BFD224945
:1028E000086000BFC8E600000400002006000020C9
:1028F0000700002005000020080000200A0000203A
:102900000C0000200E00002010000020120000200B
:1029100014000020160000201800002020000020D5
:1029200022000020240000201A0000201C000020AB
:102930001E00002026000020280000202A00002081
:102940007B14AE47E17A843F2C0000203000002049
:10295000340000202D431CEBE2361A3F38000020E3
:102960003C000020400000204400002010B5044638
:102970003448007838B9AA2C05D1012031490870B3
:10298000314804705DE02F480078012807D1AA2C57
:1029900005D102202B4908702B48447051E029488A
:1029A0000078022807D1F12C05DA032025490870A8
:1029B0002548847045E02348007803280CD12D2C4D
:1029C0000ADA04201F4908701F48C4701F480470A9
:1029D00000201F49087034E01A480078042819D1F3
:1029E0001A480078002815DD18480078401E17495D
:1029F00008701748007816490978491C144A117064
:102A0000001D11490C5411480078D0B905200D491A
:102A1000087016E00B48007805280FD100200949FE
:102A200008700B480078001D07490C5408480078CE
:102A3000401DC1B20448FFF707FE02E00020014933
:102A4000087010BD4A0000203C0D00204800002006
:102A50004900002000B58BB00AA80321002205928E
:102A6000CDE906210890012081026622404BCDE984
:102A70000132CDE90310052000233E4A3EA100901B
:102A8000414805F059FA0AA8032100220592CDE930
:102A9000062108900120810266223C4BCDE90132DB
:102AA000CDE9031005200023394A3AA100903D48A2
:102AB00005F042FA0AA8032100220592CDE9062179
:102AC0000890012081026622374BCDE90132CDE921
:102AD000031005200023354A35A10090384805F041
:102AE0002BFA0AA8032100220592CDE906210890BD
:102AF000012081026622334BCDE90132CDE903107A
:102B000005200023304A31A10090344805F014FA22
:102B10000AA8032100220592CDE906210890012090
:102B2000810266222E4BCDE90132CDE9031005204A
:102B300000232C4A2CA100902F4805F0FDF90AA88B
:102B4000032100220592CDE906210890012081028F
:102B500066222A4BCDE90132CDE90310052000237E
:102B6000274A28A100902B4805F0E6F90BB000BDDC
:102B70000C3C0020592C0008417070205461736B8C
:102B800020316D73000000004C3B0020CC4C002035
:102B9000892C0008417070205461736B20326D7372
:102BA000000000000C4C00208C5D0020592D000816
:102BB000417070205461736B20356D73000000000C
:102BC000CC5C00204C6E0020452C00084170702029
:102BD0005461736B2031306D730000008C6D0020E8
:102BE0000C7F0020732C0008417070205461736BBF
:102BF0002032306D730000004C7E0020CC8F00200E
:102C0000312D0008417070205461736B2035306D98
:102C1000730000000C8F002038B5044600F01CF94A
:102C200000F0D2F80CF0C4FEFFF7DEFB0449087098
:102C3000684605F0F7F800F07DF9FFF70BFF38BDA7
:102C40000000002008B506E0FDF708FE6A460021F6
:102C50000A2005F04DFCF7E708B509E0012001F076
:102C6000FFFCFDF785FE6A460021012005F040FCCF
:102C7000F4E708B506E008F07DFB6A460021142061
:102C800005F036FCF7E7000088B042E0002001F0D4
:102C9000E7FC064610F084FA05461E4910F036F9A6
:102CA000044601F0C3FC064610F07AFA05461949BD
:102CB00010F02CF91849086004F03CF8204603F0A5
:102CC000B3FD21464FF07C5010F0B2FA054613498F
:102CD000134A144B14488069CDE9033205910290E0
:102CE0001148406910490969CDE900100E48036B8D
:102CF000C26A816A284602F015FB204600F0DAF924
:102D00000A49204608F014FC07AA0021022005F019
:102D1000EFFBBBE700247449DC9F0020400100204A
:102D20003C0100203801002008A00020C0A10020A4
:102D300008B50CE0064907480EF0D2FE03F05EF934
:102D40000BF08CFC6A460021322005F0D1FBF1E744
:102D50000C1300201836002008B528E0022001F0EE
:102D60007FFC064610F01CFA0546114910F0CEF81B
:102D7000044601F05BFC064610F012FA05460C49C9
:102D800010F0C4F80B498860204600F0A1FD01F066
:102D90004DFC064610F004FA0546054910F0B6F859
:102DA0000449C8606A460021052005F0A1FBD5E76B
:102DB00000247449DC9F00201FB5684608F044FBDE
:102DC000019804B010BD00007FB5684608F03CFBD8
:102DD0004FF47A710198B0FBF1F4E4082146481EE3
:102DE000B0F1807F00D31BE0481E4FF0E02250611D
:102DF00050170F22002807DA13071E0E0B4B00F0A6
:102E00000F052D1F5E5503E013071D0E084B1D54C3
:102E100000BF00204FF0E02290610720106100BF4A
:102E20006FF0040008F0D8FE7FBD000018ED00E050
:102E300000E400E000BFFEE70246002007E0054B8B
:102E40001B5632F8133021F81030431CD8B2082832
:102E5000F5DB70477C05002010B500F0FBF800F0B2
:102E600003F800F0F3F810BD70B5002600201849F3
:102E700008801849088018490860184908601849EE
:102E800008601849086018490860002400BFFDF771
:102E900013FA064600BF00250BE000201049086029
:102EA00000F074F800F08CF80D4800680444681CC9
:102EB00085B2002DF1D00C4804600020084908605C
:102EC0000849086000BF3046FDF7FAF900BF70BD41
:102ED000A0070020A2070020A4070020A8070020C8
:102EE000B0070020B4070020AC07002001460846C8
:102EF000044A1268904203D9024A1268801A00E01C
:102F000000207047AC07002070B5002500BFFDF71A
:102F1000D3F9054600BF0648046800BF2846FDF700
:102F2000CFF900BF2046FFF7E1FF0646304670BDEF
:102F3000B007002070B50025FFF7E6FF044600BF8C
:102F4000FDF7BAF9054600BF00200449086000BF3C
:102F50002846FDF7B5F900BF204670BDB007002038
:102F600070B5002500BFFDF7A7F9054600BF06486C
:102F7000046800BF2846FDF7A3F900BF2046FFF70D
:102F8000B5FF0646304670BDB407002010B50948AD
:102F90000088401C074908800748008818B900F0DD
:102FA00083F80649086004480088401C02490880EC
:102FB00010BD0000A0070020A2070020A4070020E9
:102FC00010B50F480088401E0D490880084600884B
:102FD000A0B900F069F80B490860084600680A4982
:102FE0000968441A09480068A04201D207480460F1
:102FF00007480068A04201D20548046010BD0000E7
:10300000A2070020A8070020A4070020B007002086
:10301000B407002010B5002400BF00BFFDF74CF935
:10302000044600BFFFF7B2FF00BF1021064804F0BE
:10303000E5F800BFFFF7C4FF00BF2046FDF740F9E9
:1030400000BF00BF10BD000058A7002010B5FFF75B
:10305000E1FF10BD10B500200249086000F00AF839
:1030600010BD00009C070020014908607047000067
:103070009C07002010B5FFF79FFE04460848006833
:1030800040F0807006490860002006494860084604
:10309000006840F0010008602046FFF7E5FF10BD22
:1030A000FCED00E0001000E00149486870470000B6
:1030B000001000E001B58CB0FD48806CFD49079020
:1030C0000FF024FFFC49089010F0B2F80990F8487E
:1030D000C06CF84907900FF019FFF749089010F0FD
:1030E000A7F80A90F248006DF24907900FF00EFF22
:1030F000F249089010F09CF80B90F149099808608B
:103100000A9848600B98886008460068ED49089066
:1031100010F05AF801D2EB480AE0E9480068E649A5
:10312000089010F051F901D2E34801E0E44800684A
:10313000E349086008464068E249089010F044F806
:1031400001D2E0480AE0DE484068DB49089010F010
:103150003BF901D2D84801E0D9484068D8494860D5
:1031600008468068D849089010F02EF801D2D64859
:103170000AE0D3488068D149089010F025F901D2BF
:10318000CE4801E0CE488068CD498860CF480C9990
:103190000FF0BCFE0890CE4800680690CD48806ACB
:1031A0000590069910F04CF90790089910F040F836
:1031B000C949C863C5480C990FF0A8FE0890C548D6
:1031C000C06A80F000400690C14840680146059002
:1031D000069810F035F90790089910F029F8BE49C3
:1031E0000864BA480C990FF091FE0890B948006B3A
:1031F00080F000400690B648806801460590069829
:1032000010F01EF90790089910F012F8B2494864BE
:10321000B048806A0790AA4800680690079910F0A5
:103220000FF94FF07E51089010F002F8AA4908609B
:10323000A848C06A0790A2484068069007990FF016
:10324000F7FD4FF07E5108900FF0F2FFA249486061
:10325000A048006B07909A488068069007990FF085
:10326000E7FD4FF07E5108900FF0E2FF9A49886029
:10327000084600680021079010F0A6F802D2964890
:10328000006803E09448006880F000408A49089094
:103290000FF03CFE9049C1F8B40008464068002198
:1032A000079010F091F802D28B48406803E08A48FA
:1032B000406880F00040804908900FF027FE864962
:1032C000C1F8B800084680680021079010F07CF82B
:1032D00002D28148806803E07F48806880F0004027
:1032E000764908900FF012FE7B49C1F8BC00774880
:1032F0000C990FF00BFE08907748C06B01460590C3
:1033000076480FF095FF06907348806D0146059052
:1033100006980FF08DFF079008990FF089FF6E490E
:1033200008636A480C990FF0F1FD08906A48006C38
:103330000146059069480FF07BFF06906648806E55
:103340000146059006980FF073FF079008990FF05B
:103350006FFF614948635D480C990FF0D7FD0890F5
:103360005D48406C014605905C480FF061FF069097
:103370005948806F0146059006980FF059FF079055
:1033800008990FF055FF544988630846C06B0590B3
:10339000084600680490059910F052F806904E48CF
:1033A000C06D0146059006980FF042FF07900C99FA
:1033B0000FF03EFF08904848806901460790089842
:1033C0000FF036FD444988610846006C05900846B8
:1033D00040680490059910F033F806903E48C06E9E
:1033E0000146059006980FF023FF07900C990FF007
:1033F0001FFF08903848C0690146079008980FF0F1
:1034000017FD3549C8610846406C0590084680683C
:103410000490059910F014F806902F48C06F0146EB
:10342000059006980FF004FF07900C990FF000FF2D
:1034300008902948006A0146079008980FF0F8FCA8
:10344000254908624FF07C51254800680FF0F0FED6
:10345000194908900FF0ECFE1F4948624FF07C516B
:103460001F4800680FF0E4FE134908900FF0E0FEDB
:10347000194988624FF07C51194800680FF0D8FE56
:103480000D4908900FF0D4FE1349C8620846406AFF
:1034900080F000400890084680690146079008982F
:1034A0000FF092FF1ED20C48406A80F0004028E0E6
:1034B000441100200000F041000096430000164334
:1034C0002C120020000096C3000016C36F12033BAD
:1034D0003812002008A0002080100020000020C129
:1034E000A8000020F348406A0890F24880690790DD
:1034F00008990FF069FF02D2EE48406A01E0ED48FA
:103500008069EC4988610846806A80F00040089034
:103510000846C0690146079008980FF055FF04D28D
:10352000E448806A80F000400EE0E248806A08903B
:10353000E048C069079008990FF046FF02D2DD48C5
:10354000806A01E0DB48C069DA49C8610846C06AA0
:1035500080F0004008900846006A014607900898ED
:103560000FF032FF04D2D348C06A80F000400EE072
:10357000D048C06A0890CF48006A079008990FF0B9
:1035800023FF02D2CB48C06A01E0CA48006AC94999
:1035900008620846006B0290084600680190029994
:1035A0000FF046FC0390C3488069014602900398DF
:1035B0000FF03EFC0590BF48D0F8C00001460290D5
:1035C0004FF07E500FF03CFF0390BA48406D01462B
:1035D000029003980FF02CFE049005990FF028FE3E
:1035E0000790B548D0F8B40001460190B3480FF0F9
:1035F0001FFEB34902900FF01BFC002103900FF057
:10360000E3FD01D2002020E0AB48D0F8B400014631
:103610000190AA480FF00CFEA94902900FF008FC97
:103620004FF07E5103900FF0CFFE02D24FF07E504C
:103630000BE0A148D0F8B400014602909F480FF07B
:10364000F7FD9F4903900FF0F3FB04909948D0F8E1
:10365000C0000146039004980FF0EAFD05909948D8
:1036600000680146049005980FF0E2FD0690079966
:103670000FF0DEFB4FF0804108900FF0D9FD8D492F
:1036800088640846406B02900846406801900299A1
:103690000FF0CEFB03908748C06901460290039863
:1036A0000FF0C6FB05908348D0F8C0000146029099
:1036B0004FF07E500FF0C4FE03907E48406E0146EE
:1036C000029003980FF0B4FD049005990FF0B0FD3F
:1036D00007907948D0F8B8000146019077480FF07C
:1036E000A7FD774902900FF0A3FB002103900FF094
:1036F0006BFD01D2002020E06F48D0F8B8000146F1
:1037000001906E480FF094FD6D4902900FF090FB10
:103710004FF07E5103900FF057FE02D24FF07E50D3
:103720000BE06548D0F8B8000146029063480FF0FE
:103730007FFD634903900FF07BFB04905D48D0F858
:10374000C0000146039004980FF072FD05905D489B
:1037500040680146049005980FF06AFD06900799AD
:103760000FF066FB4FF0804108900FF061FD51496A
:10377000C8640846806B02900846806801900299F0
:103780000FF056FB03904B48006A014602900398E5
:103790000FF04EFB05904748D0F8C000014602905C
:1037A0004FF07E500FF04CFE03904248406F0146B0
:1037B000029003980FF03CFD049005990FF038FD3E
:1037C00007903D48D0F8BC00014601903B480FF0FF
:1037D0002FFD3B4902900FF02BFB002103900FF0CF
:1037E000F3FC01D2002020E03348D0F8BC000146B1
:1037F000019032480FF01CFD314902900FF018FB88
:103800004FF07E5103900FF0DFFD02D24FF07E505B
:103810000BE02948D0F8BC000146029027480FF081
:1038200007FD274903900FF003FB04902148D0F8CF
:10383000C0000146039004980FF0FAFC059021485F
:1038400080680146049005980FF0F2FC06900799F5
:103850000FF0EEFA4FF0814108900FF0E9FC1549A6
:1038600008650C9808F0BCFC1248006D08901148DF
:10387000C06C07900F48806C0690DDE90712FEF7D8
:1038800001FE0C4800680B49C860084641680161A8
:10389000816841610C48806A0C4908600A48C06A26
:1038A00080F0004048600848006B80F0004088606D
:1038B0000DB000BD8010002044110020CDCC0C3F85
:1038C0006666E63E2C12002008A000203812002078
:1038D00001B58CB0FD480068FD4A002109900EF04A
:1038E00055F9FC490A900FF011FBF9490B900FF0C4
:1038F0009FFCF9490860F548406880F00040F44AB0
:10390000002109900EF042F9F2490A900FF0FEFAF8
:10391000EF490B900FF08CFCEF494860EF480078BE
:1039200020BBEA48C068EE4A002105900EF052F92B
:10393000E84906900FF0EAFAEA4907900FF078FCA0
:1039400008900FF0D9FB00B209900FF011FC0A901B
:103950000C990FF06DFC0B90DF48806801460A90CF
:103960000B980FF065FADC4988602EE0DA48806831
:1039700001460090DC4800680FF062FD01900FF0F6
:103980002BFACDE904010C980FF026FAD74AD84B50
:10399000CDE900010EF060FFCDE90201DDE904236D
:1039A0000EF05AFFCDE90801CB48806805900FF072
:1039B00013FACDE90601DDE908230EF02DFDCDE96E
:1039C0000A010EF0F7FCC4498860C34880680B9078
:1039D00008F0CAFCC0498860084600680990C548DC
:1039E0000068089009990FF023FA0A90C24801680C
:1039F0000A980FF025FD0B9008F0B6FCBF4908604F
:103A0000B54840680990BB484068089009990FF094
:103A10000FFA0A90BA4801680A980FF011FD0B904E
:103A200008F0A2FCB5494860AB4880680990B148ED
:103A30008068089009990FF0FBF90A90AA4801687C
:103A40000A980FF0FDFC0B9008F08EFCAB498860E3
:103A50000846006800210A900FF0B6FC02D2A74881
:103A6000006803E0A548006880F0004098490B908A
:103A70000FF04CFAA149C1F8B40008464068002193
:103A80000A900FF0A1FC02D29C48406803E09B48DA
:103A9000406880F000408E490B900FF037FA97494C
:103AA000C1F8B8000846806800210A900FF08CFC2D
:103AB00002D29248806803E09048806880F000401D
:103AC00083490B900FF022FA8C49C1F8BC008D4855
:103AD0000C990FF01BFA0B908848C0680790874834
:103AE0000068069007990FF0ABFC09908348806D41
:103AF0000146079084480FF09BFB089009990FF04E
:103B000097FB0A900B990FF093FB7C4908637D4863
:103B10000C990FF0FBF90B907848006907907748F3
:103B20004068069007990FF08BFC09907348806EEF
:103B30000146079074480FF07BFB089009990FF03D
:103B400077FB0A900B990FF073FB6C4948636D4843
:103B50000C990FF0DBF90B906848406907906748B3
:103B60008068069007990FF06BFC09906348806F9E
:103B70000146079064480FF05BFB089009990FF02D
:103B800057FB0A900B990FF053FB5C49886308467A
:103B9000006809900846C06D089009990FF048FB2D
:103BA0000A900C990FF044FB0B9054488069014631
:103BB0000A900B980FF03CF950498861084640681C
:103BC00009900846C06E089009990FF031FB0A90E1
:103BD0000C990FF02DFB0B904848C06901460A90E4
:103BE0000B980FF025F94549C8610846806809908F
:103BF0000846C06F089009990FF01AFB0A900C99BB
:103C00000FF016FB0B903D48006A01460A900B9896
:103C10000FF00EF9394908624FF07C513B480068BB
:103C20000FF006FB2A490B900FF002FB3349486264
:103C30004FF07C51354800680FF0FAFA24490B9098
:103C40000FF0F6FA2D4988624FF07C512F4800683A
:103C50000FF0EEFA1E490B900FF0EAFA2749C862FE
:103C60000846406A80F000400B9008468069014693
:103C70000A900B980FF0A8FB04D22048406A80F00D
:103C800000400EE01D48406A0B901C4880690A9075
:103C90000B990FF099FB02D21848406A01E01748CF
:103CA0008069164988610846806A80F000400B9060
:103CB0000846C06901460A900B980FF085FB27D291
:103CC0000E48806A80F0004031E000001836002085
:103CD0000000F0410000FA4308120020A400002078
:103CE0000000204200001643400100201F85EB51D8
:103CF000B81E094014120020380100204411002091
:103D00003C0100200AD7A33B00002041A80000206E
:103D10006748806A0B906648C0690A900B990FF05B
:103D200053FB02D26248806A01E06148C069604981
:103D3000C8610846C06A80F000400B900846006ADF
:103D400001460A900B980FF03FFB04D25848C06A16
:103D500080F000400EE05648C06A0B905448006A5C
:103D60000A900B990FF030FB02D25148C06A01E073
:103D70004F48006A4E49086208460068C860084615
:103D8000416801618168416100684A490B900FF008
:103D90001BFA01D247480AE04548006846490B90A3
:103DA0000FF012FB01D2444801E04148006840494D
:103DB0000860084640683F490B900FF005FA01D2B1
:103DC0003C480AE03A4840683B490B900FF0FCFA47
:103DD00001D2394801E03648406835494860084614
:103DE000806834490B900FF0EFF901D231480AE0B6
:103DF0002F48806830490B900FF0E6FA01D22E4828
:103E000001E02B4880682A4988600846006B0990C9
:103E100008460068089009990FF00AF80A902448AB
:103E20008069014609900A980FF002F80B9020482B
:103E3000406D01460A900B980FF0FAF91C4988640E
:103E40000846406B099008464068089009990EF0B2
:103E5000EFFF0A901648C069014609900A980EF0D3
:103E6000E7FF0B901248406E01460A900B980FF046
:103E7000DFF90F49C8640846806B099008468068DE
:103E8000089009990EF0D4FF0A900948006A01468B
:103E900009900A980EF0CCFF0B900548406F014640
:103EA0000A900B980FF0C4F9014908650DB000BDE8
:103EB000441100200000B4C20000B4424FF07E5113
:103EC000044801660167C0F8801003480149C1F841
:103ED000C000704780100020CDCC4C3E10B50024AF
:103EE00004E0204600F0BCFB601CC4B2052CF8DBEB
:103EF00010BD704710B5044603E04FF47A7000F02F
:103F000005F8201EA4F10104F7D110BD30B5044618
:103F100000F08CFB054600BF00F088FB401BA04270
:103F2000FAD330BD024908700021024A118070475F
:103F3000850500208E05002000487047FC9F00206A
:103F400000B589B00121084607F02EFA01210803C7
:103F500007F05AFA05221146564800F03DFB0522AB
:103F60000621544800F038FB05220721514800F093
:103F700033FBE020069002208DF81C0003208DF812
:103F80001D0000208DF81E0002208DF81F0006A9DC
:103F9000484800F0D9FA1020069001208DF81C0046
:103FA00000208DF81E0001208DF81F0000208DF8E4
:103FB0001D0006A93F4800F0C7FA3F4807F0FAFC89
:103FC0000020ADF804004FF48270ADF80600002028
:103FD000ADF808000220ADF80A000120ADF80C0091
:103FE0004002ADF80E001820ADF810000020ADF82A
:103FF00012000720ADF8140001A92F4807F014FDA6
:1040000001212D4807F0C9FC01221021294800F0A8
:1040100008FB00221021274800F003FBFF2000F0DE
:104020003FF901221021234800F0FBFA08A800F014
:104030009DF89DF82000EF2831D14FF480501F49A2
:1040400048809DF82200182803D14FF480508880C2
:104050001DE09DF82200172804D14FF40060174995
:10406000888014E09DF82200162804D14FF4806067
:10407000124988800BE09DF82200152804D14FF4E6
:1040800000700E49888002E000200C4988800B48AF
:1040900040880A49898848430849886004E000202C
:1040A0000649087009B000BD01200449087000BF2E
:1040B000F8E700000000024000300140FC9F0020B3
:1040C00070B504460D46164600221021104800F037
:1040D000A8FA032000F0E4F8C4F3074000F0E0F889
:1040E000C4F3072000F0DCF8E0B200F0D9F804E0F7
:1040F000FF2000F0D5F828706D1C301EA6F10106D7
:10410000F6D101221021024800F08BFA70BD0000A8
:104110000000024070B504460D46164600F0F8F85F
:1041200000221021104800F07CFA022000F0B8F8BC
:10413000C4F3074000F0B4F8C4F3072000F0B0F86F
:10414000E0B200F0ADF803E0287800F0A9F86D1CAB
:10415000301EA6F10106F7D101221021024800F01D
:1041600060FA00F0B9F870BD0000024070B5054675
:104170002C46002210210E4800F053FA9F2000F038
:104180008FF8FF2000F08CF804F8010BFF2000F0FE
:1041900087F804F8010BFF2000F082F804F8010B07
:1041A00001221021024800F03CFA287870BD00007E
:1041B0000000024070B504460D4600F0A9F8002248
:1041C00010210D4800F02DFA202000F069F8C4F30A
:1041D000074000F065F8C4F3072000F061F8E0B292
:1041E00000F05EF801221021034800F01AFA0DB128
:1041F00000F072F870BD0000000002402DE9F041AF
:1042000004460D461646002700BF0DE008484288C8
:1042100029462046FFF754FF0548408805440448D6
:1042200040880444781C87B2B742EFDBBDE8F081D8
:10423000FC9F00202DE9F04104460D46164600275C
:1042400016494888C11700EB11614FEA212800F098
:104250005FF800BF1EE001212046FFF7ABFF0F49CA
:104260004888C11700EB11614FEA212809E04FF49B
:10427000807229462046FFF74DFF05F5807504F54D
:104280008074B8F10000A8F101011FFA81F8EED1A5
:10429000781C87B2B742DEDBBDE8F081FC9F0020CE
:1042A00010B5044600BF02210A4807F0AFFB002802
:1042B000F9D02146074807F0B5FB00BF01210548AA
:1042C00007F0A4FB0028F9D0024807F0A8FBC0B211
:1042D00010BD00000030014010B5002400BF0022D6
:1042E00010210A4800F09DF90520FFF7D9FFFF20B3
:1042F000FFF7D6FF044601221021044800F091F98F
:1043000004F001000028EAD110BD000000000240C6
:1043100010B500221021064800F083F90620FFF7AF
:10432000BFFF01221021024800F07BF910BD000000
:10433000000002402DE9F04105460C4675498868A9
:1043400075490EF041FF53D201207449087071493C
:10435000C86871490EF038FF1ED27148B0F90000EC
:10436000401C002849D06F480078002845D06E498D
:1043700028460EF05DFF07466948B0F900000EF0D0
:10438000F7FE804639460EF053FD06460EF0B4FEA9
:1043900000B26349088030E05E49C86863490FF0A5
:1043A00013F81CD25E48B0F90000401CF8B15D481B
:1043B0000078E0B95C4928460EF03AFF07465848B5
:1043C000B0F900000EF0D4FE804639460EF030FD04
:1043D00006460EF091FE00B2514908800DE05048AB
:1043E000B0F90000401C10B900204D49088004E0DD
:1043F00000204B490880494908704948B0F900003D
:10440000B0F5967F12DD4FF0FF30454908804548F2
:10441000007840B90120434908700220444948709F
:104420004449087002E000203E4908703949886814
:1044300039490EF0C9FE30D23649C86836490EF007
:10444000C3FE2AD23349086838490EF0BDFF24D292
:104450003049486835490EF0B7FF1ED23648B0F9EA
:104460000000B0F5FA6F14DA2F4928460EF0E0FE8E
:1044700007463148B0F900000EF07AFE8046394612
:104480000EF0D6FC06460EF037FE00B22A49088030
:1044900006E001202949087002E000202649088032
:1044A0002048007880B31D48007801282DD10021D4
:1044B00020460EF089FF01D2204601E084F0004042
:1044C00006461F490EF080FE1FD21E48B0F90000BC
:1044D000B0F5FA6F14DA144928460EF0A9FE074623
:1044E0001848B0F900000EF043FE804639460EF041
:1044F0009FFC06460EF000FE00B21249088007E05D
:1045000000200849087003E0FFE700200D490880FB
:10451000BDE8F081183600200000C8C3BD050020AA
:10452000BE050020BC05002000007A440000C843FE
:1045300008A0002068010020C00500205D060020C2
:1045400000009643C2050020F0B50A460021002372
:10455000002400BF3DE0012505FA01F3156805EAD6
:1045600003049C4234D105684F000326BE40B54386
:10457000056015794E00B54006683543056015792C
:10458000012D02D01579022D16D185684F00032622
:10459000BE40B543856055794E00B54086683543C9
:1045A0008560456801268E40B5434560456896792B
:1045B0008E40B6B235434560C5684F000326BE4005
:1045C000B543C560D5794E00B540C6683543C56072
:1045D000491C1029BFD3F0BDF0B5002300244D07BE
:1045E000ED0E02FA05F3CE1000F1200555F8265025
:1045F0004E07F70E0F26BE40B543CF1000F1200640
:1046000046F82750CE1000F1200555F8265045EA0F
:104610000304CE1000F1200545F82640F0BD0183CB
:1046200070470AB1018300E0418370470B4A11686B
:104630004FF0E02252694FF0E0239B69D21A4FF409
:104640007A735A434FF0E0235B69B2FBF3F201EB5C
:104650004103C3EBC11302EBC30070471C070020EA
:1046600070B5044604EB4400164951F8200004EBF1
:104670004401144A02EB81014860FFF7D7FF054669
:104680000EF08EFD04EB44010E4A42F8210004EBCB
:1046900044020C4B03EB8202516804EB440253F8D2
:1046A00022000EF0CDFE04EB4401064A02EB81012C
:1046B000886004EB440102EB810188680EF038FD4C
:1046C00070BD0000D0A100202DE9F04F85B0054657
:1046D0000E4617461C464FB90020FB490870FB499F
:1046E00008700024FA490860FA490870FA4800780E
:1046F000052815D2DFE800F00304080C100010E0D4
:104700000220F54908700CE00320F349087008E026
:104710000420F149087004E00020EF49087000E02F
:1047200000BF00BFED48016820460EF089FE8146BB
:1047300000210EF049FE05D2E848016820460EF03F
:104740007FFE06E0E548016820460EF079FE80F025
:10475000004080464FF07C510EF036FE10D2E0490A
:10476000DB4800680EF030FD08D2DE49DE48006804
:104770000EF02AFE02D2DD48D5490860D748046011
:10478000DB4930460EF05CFE8146DA4A00210DF02E
:10479000FDF98046D24A00210DF01CFAD24908608A
:1047A0000021D14800680EF00FFE1DD2D249CE483C
:1047B00000680EF0ABFB8046D0490EF039FDD049C1
:1047C0000860D049C84800680EF0FEFD1DD20120E7
:1047D000BD490870BF480078B8B90120BD490870CC
:1047E000C948BB49086010E0B7480078012801D1EA
:1047F000B6490870C049BC4800680EF087FB804687
:10480000C2490EF015FDBE490860C149BC480068A8
:104810000EF0DAFC01D2BE4809E0B849B848006899
:104820000EF0D2FD01D2B54801E0B5480068B449A8
:104830000860B649B24800680EF068FB002100909D
:104840000EF0C2FD05D2B149AD4800680EF05EFB26
:1048500006E0AE49AA4800680EF058FB80F0004020
:104860004FF07A5101900EF0E3FC83464FF07D51FA
:104870000EF0DEFA8246A248016850460EF0D8FCDF
:104880000290A448016802980EF0DAFD8146A24920
:1048900028460EF0CDFC014602904FF07E500EF0FF
:1048A00035FB83464FF07E510EF0C2FA82465146E8
:1048B0004FF07E500EF02AFB494603900EF0B8FCF4
:1048C00080469448016840460EF0B2FA914908606B
:1048D0008F49904800680EF077FC01D28C4809E0BF
:1048E00086498C4800680EF06FFD01D2834801E0D4
:1048F0008848006887490860884928460AF002FF0E
:1049000086484168834800680EF09AFD8146294632
:104910000EF08EFC80468248016840460EF088FA10
:104920007F490860694909784EF6784211FB02F028
:104930000EF01EFC80467A48016840460EF044FDA9
:1049400008D2624909784EF6784211FB02F00EF067
:104950000FFC19E05D49097841F2883211FB02F041
:104960000EF006FC80466E48016840460EF02CFCB6
:1049700008D25649097841F2883211FB02F00EF054
:10498000F7FB01E066480068654908606348016913
:1049900064480EF04DFC82465E48016850460EF0B9
:1049A00044FD814629460EF043FC80465E4801687E
:1049B00040460EF03DFA5C490860444909784EF6DD
:1049C000784211FB02F00EF0D3FB80465648016896
:1049D00040460EF0F9FC08D23C4909784EF6784280
:1049E00011FB02F00EF0C4FB19E03849097841F2DE
:1049F000883211FB02F00EF0BBFB80464A4801688A
:104A000040460EF0E1FB08D23049097841F2883285
:104A100011FB02F00EF0ACFB01E043480068424994
:104A20000860084601683E4800680EF009FD3F49ED
:104A3000039028460EF0FCFB014602904FF07E509A
:104A40000EF064FA83464FF07E510EF0F1F9824683
:104A500051464FF07E500EF059FA814603990EF000
:104A6000E7FB80463048016840460EF0E1F92E49E8
:104A700008602F4920460EF0A7FB07D2274800699F
:104A80002C4908602548C0682B4908602B494868B4
:104A900000210EF0FDFA01D1002004E02748416812
:104AA00027480EF033FA049026480068264908602B
:104AB0001A48006923490860002128460EF0E8FAE8
:104AC00044D100204CE000002401002025010020FA
:104AD00018010020040100202C01002020010020EA
:104AE00000002041000016C30C0100200000C84354
:104AF0000000FA43000020420000E14300409C45D2
:104B0000E80000200000C8420000AF4300803B45A1
:104B100000803BC5EC00002034337B42181300209A
:104B2000E40000206666863FE00000209CC4A03EB2
:104B3000CDCCCC3DF0000020F80000203013002048
:104B400000001643F400002000010020CA4801685C
:104B5000CA4800680EF074FC804629460EF0D6F96B
:104B6000C7490860214604980EF062FB8046C5489C
:104B7000C549CDE901080091C1480368C3480268EE
:104B80000168284605F094FDC1490860C1490498B0
:104B90000EF04EFB8046BB48816940460EF014FB88
:104BA0002BD2BD49BD4800680EF00EFB5ED2BC4959
:104BB00028460EF03DFB8046B848016840460EF09E
:104BC00037F9B6490860B049486800210EF060FA2C
:104BD00001D1002004E0AC484168B1480EF096F9DC
:104BE000814629460EF024FB8046A648816940464E
:104BF0000EF01BFCA349886138E0049880F000495E
:104C0000A44948460EF014FB80469E488169404600
:104C10000EF0DAFB2AD20021A04800680EF0D4FB87
:104C200024D29F4928460EF003FB80469B4801682A
:104C300040460EF0FAFB9949086093494868002104
:104C40000EF026FA01D1002004E08F484168944814
:104C50000EF05CF9814629460EF0EAFA8046894852
:104C6000816940460EF0E4F88649886100218B484E
:104C700000680EF0A9FA01D2002009E086498748B1
:104C800000680EF0A1FB01D2834801E08348006870
:104C9000824908608349886883490EF095FA01D2F9
:104CA00081480BE07F4988684FF07E510EF08CFB05
:104CB00002D24FF07E5001E07A48806880460021A1
:104CC0000EF0E6F901D1002019E0764988687649AE
:104CD0000EF07AFA01D274480BE0724988684FF0FE
:104CE0007E510EF071FB02D24FF07E5001E06D4814
:104CF0008068804641464FF07E500EF007F96B49C0
:104D0000086066480168694800680EF091FA8046BC
:104D10005F48016840460EF08BF865490860002145
:104D2000634800680EF050FA01D2002009E06149A2
:104D30005F4800680EF048FB01D25E4801E05C4825
:104D400000685B4908605C48016828460EF070F80E
:104D50005949086059480078401C5849087008466D
:104D600000780A2875DB214655480EF061FA804626
:104D700054480168544800680EF05AF88146534878
:104D80005349CDE90108009152484A4603694D480C
:104D900001684948006805F08BFC3C4908604E49B1
:104DA0003A4800680EF010FA01D24B4809E04B492E
:104DB000364800680EF008FB01D2484801E033484D
:104DC0000068324908603C480168454800680EF0B8
:104DD0002FF84349086043480078401C4149087057
:104DE000084600780A282FDB21463F480EF020FABB
:104DF00080463E48006880F000493D483D494B46AA
:104E00000022CDE90108009111463548006805F0FF
:104E10004FFC2C49086038492A4800680EF0D4F944
:104E200001D2354809E03549264800680EF0CCFA31
:104E300001D2324801E0234800682249086000207E
:104E4000274908602749087000201C4908701A4942
:104E500008602B48007810B90120294908702949B9
:104E600020460EF0B1F903D2304605B0BDE8F08F10
:104E70000F480068F9E7000000010020F40000205E
:104E8000FC0000208413002030130020F8000020D4
:104E900010010020CDCC4C3E0080094418010020B8
:104EA00000001643F0130020F4FD343F1C010020E5
:104EB0001401002000007A44300100202D01002060
:104EC0000000FA43F0000020EC000020A8130020AE
:104ED0004C1300201813002000803BC500803B4588
:104EE000340100202E0100200080BB44E00000209F
:104EF000CC13002068130020000096C300009643E6
:104F00002C010020CDCCCC3D00B540200A490880C2
:104F100000F014F980200849088000F00FF94020C3
:104F20000549891E088000F009F9402002490880DF
:104F300000F004F900BD00001A0402401CB5012174
:104F4000022006F031FAC020009001208DF8040004
:104F50008DF8060003208DF8050000208DF807006D
:104F600069460248FFF7F0FA1CBD00000004024049
:104F700000B540200A49088000F0E0F88020084988
:104F8000891E088000F0DAF840200549891E088053
:104F900000F0D4F840200249088000F0CFF800BDAE
:104FA0001A04024030B50446082500238020144925
:104FB000088014E05806030E40201149891C08801F
:104FC00000F0BCF840200E49088000F0B7F80C480B
:104FD0000838006800F0800008B143F00103281E83
:104FE000A5F10101CDB2E5D140200549891C088019
:104FF00014B1FFF789FF01E0FFF7BAFF184630BD93
:105000001804024010B50346082419E04020114955
:10501000088000F093F803F0800020B180200D4953
:10502000891E088002E080200A4908805806030E85
:1050300000F084F840200749891E088000F07EF8BF
:10504000201EA4F10101CCB2E0D14020014908802A
:1050500010BD00001A04024000B5802013490880EA
:105060004020088000F06AF810480838006808B945
:10507000012000E0002000F0800008B1002000BD09
:1050800080200A49891C088000F058F80748083831
:10509000006800F0800008B10020F0E7802003499C
:1050A000891C088000F04AF80120E8E71804024053
:1050B00000B540200A49088000F040F880200849E7
:1050C000088000F03BF840200549891E088000F068
:1050D00035F880200249891E088000F02FF800BDB5
:1050E0001A04024000B5002340201349088000F054
:1050F00025F880201049891E088000F01FF8402004
:105100000D49891E088000F019F807E0581CC3B249
:10511000322B03DDFFF7CCFF012000BD06480A3823
:10512000006800F080000028F0D14020024908808B
:1051300000F004F80020F0E71A04024000BF00BFAE
:1051400000BF00BF00BF00BF00BF00BF00BF0648D8
:10515000007838B90F2000BF011EA0F10102D0B2C3
:10516000FAD100BF704700007A06002070B50446EF
:105170000D461646FFF770FF6106080EFFF742FF67
:10518000FFF7B0FF18B1FFF793FF012070BD28466D
:10519000FFF738FFFFF7A6FFFFF75EFF012101EBE6
:1051A0004401C8B2FFF72EFFFFF79CFF0020FFF776
:1051B000F9FE3070FFF77CFF0020E7E7F0B5064608
:1051C0000F4614461D46FFF747FF7106080EFFF70E
:1051D00019FFFFF787FF18B1FFF76AFF0120F0BD45
:1051E0003846FFF70FFFFFF77DFFFFF735FF01217F
:1051F00001EB4601C8B2FFF705FFFFF773FF0DE0B3
:10520000012C04D10020FFF7CDFE287003E001201F
:10521000FFF7C8FE28706D1C601EC4B2002CEFD1D1
:10522000FFF746FF0020DAE770B504460D46164644
:10523000FFF712FF6106080EFFF7E4FEFFF752FFCB
:1052400018B1FFF735FF012070BD2846FFF7DAFEE1
:10525000FFF748FF3046FFF7D5FEFFF743FFFFF7A4
:1052600027FF0020F0E70000F8B506460F46144679
:105270001D466B46012239463046FFF79FFF2DB190
:105280000120A0409DF80010084305E00120A04047
:105290009DF8001021EA0000C0B200909DF80020A7
:1052A00039463046FFF7C0FF08B9012000E0002072
:1052B00001490870F8BD0000B40600202DE9F8434C
:1052C0000746884614461D46089E6B460122414605
:1052D0003846FFF773FF601CFF2101FA00F0C4F1AC
:1052E00008012944491EFF220A41104300F0FF092A
:1052F000C5F1080006FA00F0C6B2C4F10700064185
:105300009DF8000000EA090000909DF8000030437D
:1053100000909DF8002041463846FFF785FFBDE824
:10532000F88300000FB58FB0FE490F980DF080FF95
:10533000FD490B900DF07CFF0C90FC48806A0890B2
:10534000FA48806A079008990DF072FF0A90F748B2
:10535000406A0690F548406A059006990DF068FF8E
:105360000890F248006A0690F048006A0590069995
:105370000DF05EFF079008990DF05AFD09900A990B
:105380000DF056FD0B900CF045FCE949086000213A
:10539000E74800680DF07CFE59D0E448006A0890A8
:1053A000E348016808980DF0B1FD0990E1480068F4
:1053B0000146089009980EF043F80A900C990DF0F8
:1053C00037FF0B90DB48006801460A900B980DF000
:1053D0002FFDD8490860D548406A0890D448016834
:1053E00008980DF093FD0990D24840680146089056
:1053F00009980EF025F80A900C990DF019FF0B9002
:10540000CC48406801460A900B980DF011FDC9493F
:105410004860C648806A0890C548016808980DF041
:1054200075FD0990C34880680146089009980EF000
:1054300007F80A900C990DF0FBFE0B90BD488068B0
:1054400001460A900B980DF0F3FCBA498860BA4AFD
:10545000B849BA480CF014FDB74840680890B648FF
:105460004068079008990DF0E3FE0A90B248006882
:105470000890B1480068079008990DF0D9FE09908E
:105480000A990DF0D5FC0B900CF0C4FBAC490860F8
:10549000A948006800210B900DF0FAFD2ED0A64817
:1054A000406800210B900DF0F3FD27D0A2488068E2
:1054B00000210B900DF0ECFD20D00021A0480068E9
:1054C0000DF0E6FD1AD09C48006808909C480168E1
:1054D00008980DF01BFD0A9097484068089098487E
:1054E000016808980DF012FD09900A990BF0F4FC80
:1054F00094490B900DF09CFE934908609348806896
:10550000089092480068079008990DF091FE0A9063
:105510008E48C06808908D484068079008990DF043
:1055200087FE09900A990DF08BFF4FF080410B9098
:105530000DF07EFE814908608448C0680890834869
:105540008068079008990DF073FE0A907F484068C4
:1055500008907E480068079008990DF069FE099050
:105560000A990DF065FC4FF080410B900DF060FE44
:105570007249486075488068079074488068069052
:1055800007990DF055FE09907048406807906F48E4
:105590004068069007990DF04BFE089009990DF0B0
:1055A00047FC4FF080410A900DF042FE4FF07E51D3
:1055B0000B900DF03AFF614988606548007800283B
:1055C0006DD063480078022804D10020614908604A
:1055D0004860886059480068014607904FF08B404A
:1055E0000DF026FE089014990DF01FFF5A490990FE
:1055F0000DF01EFE59490A900DF01AFE0B90554809
:10560000006801460A900B980DF012FC51490860A1
:105610004A484068014607904FF08B400DF008FE65
:10562000089015990DF001FF4B4909900DF000FE0F
:105630004A490A900DF0FCFD0B904648406801462F
:105640000A900B980DF0F4FB424948603B48806893
:10565000014607904FF08B400DF0EAFD0890169937
:105660000DF0E3FE3C4909900DF0E2FD3B490A9044
:105670000DF0DEFD0B903748806801460A900B98CC
:105680000DF0D6FB3349886031480078401C304922
:10569000087008460078522801DB0020087027486F
:1056A0000068014608904FF08B400DF0C1FD099055
:1056B00014990DF0BAFE28490A900DF0B9FD0B902F
:1056C0002448006801460A900B980DF0B9FE244961
:1056D00008601A484068014608904FF08B400DF072
:1056E000A7FD099015990DF0A0FE1B490A900DF039
:1056F0009FFD0B901748406801460A900B980DF0EB
:105700009FFE174948600D488068014608904FF099
:105710008B400DF08DFD099016990DF086FE0E4917
:105720000A901FE0C3F5C8400000A04130060020E9
:10573000640100206814002038140020F0130020B9
:1057400060010020333365427001002044010020D5
:10575000680100205C1400205C201940CDCC4C3C3A
:10576000501400200DF064FD0B90FE488068014647
:105770000A900B980DF064FEFB498860FB48806836
:10578000099008468068089009990DF051FD0B902A
:10579000F64840680790F4484068069007990DF075
:1057A00047FD0990F14800680790EF4800680690AF
:1057B00007990DF03DFD089009990DF039FB0A900D
:1057C0000B990DF035FBEA498860169908460DF0F3
:1057D0002FFD0A90159908460DF02AFD089014999E
:1057E00008460DF025FD079008990DF021FB099062
:1057F0000A990DF01DFB0B900CF00CFADD490860C6
:10580000002114980DF0E0FD01D2149802E01498E4
:1058100080F00040D8490B900DF0D6FC7ED20021DC
:1058200015980DF0D1FD01D2159802E0159880F081
:105830000040D1490B900DF0C7FCEFD20021169823
:105840000DF0C2FD01D2169802E0169880F00040DB
:10585000C9490B900DF0B8FCE0D2C6480168149815
:105860000DF054FB1490C348016815980DF04EFBE1
:105870001590C048016816980DF048FB1690BD4879
:105880000168BE480DF0A0FC74D2BB49B94800685D
:105890000DF09AFC6ED2B548406801460990169802
:1058A0000DF0C6FC0B90B148806801460990159830
:1058B0000DF0BEFC0A900B990DF0C2FDB049C86016
:1058C000AA4880680146099014980DF0B1FC0B902D
:1058D000A64800680146099016980DF0A9FC0A90A8
:1058E0000B990DF0ADFDA6490861A6490F980DF082
:1058F0009FFC4FF07E510B900DF09AFC0D90A0484C
:10590000806909909E48C068089009990DF098FD3B
:105910000A900D990DF08CFC0B9000E026E0984861
:10592000806901460A900B980DF082FA94498861CB
:105930000846C069099008460069089009990DF069
:105940007FFD0A900D990DF073FC0B908C48C06997
:1059500001460A900B980DF06BFA8949C861084618
:10596000806908600846C069486003E000208449F7
:105970000860486082480068002108900DF058FCDB
:105980004FF0804109900DF053FC0A900F990DF0F3
:105990004FFC0B907A48406A01460A900B980DF034
:1059A00047FA7749486208464068002108900DF0A0
:1059B0003FFC4FF0804109900DF03AFC0A900F999E
:1059C0000DF036FC0B906E48806A01460A900B98E9
:1059D0000DF02EFA6A498862084680680021089016
:1059E0000DF026FC4FF0804109900DF021FC0A904B
:1059F0000F990DF01DFC0B906148C06A01460A909A
:105A00000B980DF015FA5E49C8620846406A5E4977
:105A10000B900DF0D9FB01D25B480AE05848406A70
:105A20005A490B900DF0D0FC01D2584801E054487F
:105A3000406A534948620846806A53490B900DF00A
:105A4000C3FB01D250480AE04D48806A4F490B9091
:105A50000DF0BAFC01D24D4801E04948806A48493E
:105A600088620846C06A48490B900DF0ADFB01D230
:105A700045480AE04248C06A44490B900DF0A4FC36
:105A800001D2424801E03E48C06A3D49C8623748F9
:105A9000806800210B900DF097FC22D23C480078E2
:105AA00078B13C4801683C4800680DF0C9FC0A9098
:105AB00006F05AFC39490B900DF0BAFB38490860E2
:105AC00012E034480168344800680DF0B9FC0A90CF
:105AD00006F04AFC33490B900DF0AAFB30490860F0
